:100000000C9462000C948A000C948A000C948A0070
:100010000C948A000C948A000C948A000C948A0038
:100020000C948A000C948A000C948A000C948A0028
:100030000C948A000C948A000C948A000C948A0018
:100040000C940B040C948A000C947B040C945504BF
:100050000C948A000C948A000C948A000C948A00F8
:100060000C948A000C948A000000000024002700F1
:100070002A0000000000250028002B0000000000DE
:1000800023002600290004040404040404040202DA
:100090000202020203030303030301020408102007
:1000A0004080010204081020010204081020000012
:1000B0000008000201000003040700000000000027
:1000C0000000AD0411241FBECFEFD8E0DEBFCDBFCE
:1000D00011E0A0E0B1E0E4E7F0E102C005900D928C
:1000E000A635B107D9F722E0A6E5B1E001C01D921F
:1000F000AB32B207E1F710E0C2E6D0E004C02197CE
:10010000FE010E942D08C136D107C9F70E94F904EB
:100110000C9438080C940000833081F028F481306E
:1001200099F08230A1F008958730A9F08830B9F0B5
:100130008430D1F4809180008F7D03C08091800055
:100140008F7780938000089584B58F7702C084B53F
:100150008F7D84BD08958091B0008F7703C080911A
:10016000B0008F7D8093B0000895CF93DF93E0EBD4
:10017000F0E08491ECE9F0E0D491E8E8F0E0C4919B
:10018000CC2391F081110E948C00EC2FF0E0EE0F57
:10019000FF1FE458FF4FA591B491EC91ED2381E04E
:1001A00090E021F480E002C080E090E0DF91CF9108
:1001B00008951F93CF93DF93282F30E0F901E25584
:1001C000FF4F8491F901E656FF4FD491F901EA57A8
:1001D000FF4FC491CC23C9F0162F81110E948C00CF
:1001E000EC2FF0E0EE0FFF1FEE58FF4FA591B491FA
:1001F0008FB7F894111105C09C91ED2FE095E9237C
:1002000002C0EC91ED2BEC938FBFDF91CF911F914A
:100210000895CF93DF9390E0FC01E656FF4F2491C1
:10022000FC01EA57FF4F8491882361F190E0880F29
:10023000991FFC01E859FF4FC591D491FC01EE587C
:10024000FF4FA591B491611109C09FB7F8948881BF
:10025000209582238883EC912E230BC0623061F4B9
:100260009FB7F8943881822F809583238883EC91FF
:100270002E2B2C939FBF06C08FB7F894E8812E2BAE
:1002800028838FBFDF91CF9108958E3008F08E5074
:100290008770806480937C0080917A008064809372
:1002A0007A0080917A0086FDFCCF809178002091C1
:1002B000790090E0922B08953FB7F89480917001F7
:1002C00090917101A0917201B091730126B5A89B24
:1002D00005C02F3F19F00196A11DB11D3FBFBA2FD8
:1002E000A92F982F8827820F911DA11DB11DBC0138
:1002F000CD0142E0660F771F881F991F4A95D1F7FD
:1003000008958F929F92AF92BF92CF92DF92EF9219
:10031000FF926B017C010E945C014B015C01C114E6
:10032000D104E104F104F1F00E945C01DC01CB0195
:1003300088199909AA09BB09883E9340A105B1050E
:1003400070F321E0C21AD108E108F10888EE880EA6
:1003500083E0981EA11CB11CC114D104E104F10476
:1003600019F7DDCFFF90EF90DF90CF90BF90AF9067
:100370009F908F900895CF92DF92EF92FF920F930C
:100380001F93CF93DF936C017A018B01C0E0D0E023
:10039000CE15DF0589F0D8016D918D01D601ED9163
:1003A000FC910190F081E02DC6010995892B11F493
:1003B0007E0102C02196ECCFC701DF91CF911F9142
:1003C0000F91FF90EF90DF90CF900895FC01918DF9
:1003D000828D981761F0828DDF01A80FB11D5D96A7
:1003E0008C91928D9F5F9F73928F90E008958FEF15
:1003F0009FEF0895FC01918D828D981731F0828DC9
:10040000E80FF11D858D90E008958FEF9FEF08951F
:10041000FC01918D228D892F90E0805C9F4F821B83
:1004200091098F739927089584E791E00E9408024B
:1004300021E0892B09F420E0822F0895FC01848DAE
:10044000DF01A80FB11DA35ABF4F2C91848D90E0FE
:1004500001968F739927848FA689B7892C93A089D9
:10046000B1898C9180648C93938D848D981306C090
:100470000288F389E02D80818F7D80830895EF923B
:10048000FF920F931F93CF93DF93EC0181E0888F4E
:100490009B8D8C8D981305C0E889F989808185FD35
:1004A00024C0F62E0B8D10E00F5F1F4F0F73112726
:1004B000E02E8C8DE8120CC00FB607FCFACFE8894D
:1004C000F989808185FFF5CFCE010E941E02F1CF10
:1004D0008B8DFE01E80FF11DE35AFF4FF0820B8F69
:1004E000EA89FB898081806207C0EE89FF89608389
:1004F000E889F98980818064808381E090E0DF91E0
:10050000CF911F910F91FF90EF900895CF93DF93BC
:10051000EC01888D8823C9F0EA89FB89808185FDFB
:1005200005C0A889B9898C9186FD0FC00FB607FC5C
:10053000F5CF808185FFF2CFA889B9898C9185FF9D
:10054000EDCFCE010E941E02E7CFDF91CF9108953B
:1005500080E090E0892B29F00E94140281110C9414
:10056000000008958EBD00000DB407FEFDCF8EB5CE
:100570000895009769F0FC0101900020E9F7319798
:10058000AF01481B590BBC0184E791E00C94BB01FF
:1005900080E090E00895CF93DF930E94B902EC01D0
:1005A00080E191E00E94B9028C0F9D1FDF91CF91F5
:1005B00008958F929F92AF92BF920F931F93CF9304
:1005C000DF93CDB7DEB7A1970FB6F894DEBF0FBEAD
:1005D000CDBF19A2423008F44AE08E010F5D1F4FD3
:1005E000842E912CA12CB12CA50194010E94ED0721
:1005F000E62FB901CA0101501109EA3014F4E05D97
:1006000001C0E95CD801EC93232B242B252B61F747
:10061000C8010E94B902A1960FB6F894DEBF0FBEC2
:10062000CDBFDF91CF911F910F91BF90AF909F9061
:100630008F900895CF92DF92EF92FF92CF93DF9346
:100640006B017C01E0917401F09175010190F081E2
:10065000E02D6DE284E791E00995EC0166277727AC
:10066000CB016C197D098E099F094AE00E94D902CD
:100670008C0F9D1FDF91CF91FF90EF90DF90CF9077
:1006800008959CB59F7D9CBD9CB5937F9CBD9CB5FA
:100690009C7F9CBD9DB591609DBD682F809115028A
:1006A0000E94D90080912702909128028230910502
:1006B00038F0880F991F880F991F05970197F1F758
:1006C000089581E00C9441031F93CF93DF931F9211
:1006D000CDB7DEB7182F80E069830E944103812FD8
:1006E0008F7180620E94B202182F6981862F0E944A
:1006F000B2020E946103812F0F90DF91CF911F9171
:1007000008951F93CF93DF931F92CDB7DEB7182FB5
:1007100080E00E944103812F0E94B20289830E94DF
:10072000610389810F90DF91CF911F9108951F93ED
:10073000CF93DF931F92CDB7DEB7182F80E00E94D2
:100740004103812F8F710E94B2028FEF0E94B2028B
:1007500089830E94610389810F90DF91CF911F915E
:1007600008950F931F93CF938C0186E00E94970307
:10077000C82FC77D0230110531F4C0628BE990E0CB
:10078000A0E0B0E00DC00130110529F085E590E052
:10079000A0E0B0E005C0C86081E490E0A0E0B0E077
:1007A0008093230290932402A0932502B093260203
:1007B0006C2F86E00E94640386E00E94970391E01C
:1007C0008C1390E0892FCF911F910F910895CF93B3
:1007D000DF93BC01990F880B990B97FF03C00E9410
:1007E0001A0303C04AE00E94D902EC0180E191E0C3
:1007F0000E94B9028C0F9D1FDF91CF910895BC011B
:10080000990F880B990B97FD0C941A034AE00C94EE
:10081000D9020E9433081F920F920FB60F92112433
:100820002F933F938F939F93AF93BF9380916C01CE
:1008300090916D01A0916E01B0916F0130916B01AB
:1008400023E0230F2D3720F40196A11DB11D05C013
:1008500026E8230F0296A11DB11D20936B01809302
:100860006C0190936D01A0936E01B0936F01809124
:10087000700190917101A0917201B0917301019684
:10088000A11DB11D8093700190937101A09372011D
:10089000B0937301BF91AF919F918F913F912F9131
:1008A0000F900FBE0F901F9018951F920F920FB6CA
:1008B0000F9211242F933F934F935F936F937F93E6
:1008C0008F939F93AF93BF93EF93FF9384E791E050
:1008D0000E941E02FF91EF91BF91AF919F918F9166
:1008E0007F916F915F914F913F912F910F900FBE2C
:1008F0000F901F9018951F920F920FB60F92112410
:100900002F938F939F93EF93FF93E0918401F09146
:1009100085018081E0918A01F0918B0182FD12C0F6
:10092000908180918D018F5F8F7320918E0182174E
:1009300051F0E0918D01F0E0EC58FE4F958F8093DF
:100940008D0101C08081FF91EF919F918F912F9137
:100950000F900FBE0F901F901895E4E7F1E01382FF
:10096000128288EE93E0A0E0B0E084839583A683B2
:10097000B78384E091E09183808385EC90E0958754
:10098000848784EC90E09787868780EC90E0918B59
:10099000808B81EC90E0938B828B82EC90E0958B46
:1009A000848B86EC90E0978B868B118E128E138E43
:1009B000148EE3E1F2E087E090E09183808388E0A9
:1009C00090E093838283168280E28783108685E09D
:1009D000868785E090E0A0E0B0E0848B958BA68BC5
:1009E000B78B118684E091E09093120280931102FC
:1009F0000895CF93DF93CDB7DEB728970FB6F8945D
:100A0000DEBF0FBECDBF789484B5826084BD84B54F
:100A1000816084BD85B5826085BD85B5816085BDF9
:100A200080916E00816080936E00109281008091B1
:100A30008100826080938100809181008160809339
:100A40008100809180008160809380008091B1005E
:100A500084608093B1008091B00081608093B00089
:100A600080917A00846080937A0080917A0082601D
:100A700080937A0080917A00816080937A008091DF
:100A80007A00806880937A001092C100E09184011E
:100A9000F091850182E08083E0918001F0918101F5
:100AA0001082E0918201F09183018FEC808310929B
:100AB0008C01E0918801F091890186E08083E091CA
:100AC0008601F0918701808180618083E0918601B9
:100AD000F0918701808188608083E0918601F091A8
:100AE0008701808180688083E0918601F091870191
:100AF00080818F7D808362E082E00E940901809185
:100B0000130290911402209115023091160282175F
:100B1000930719F061E00E940901809115029091FC
:100B2000160220911302309114022817390719F088
:100B300061E00E9409011FB7F8948091560181116C
:100B400027C0E0E9F0E08491E4EAF0E09491E82F36
:100B5000F0E0EE0FFF1FE859FF4FA591B491EC9123
:100B6000E92321F461E08AE00E94D90061E08AE093
:100B70000E9409018CB580618CBD8CB580648CBDF0
:100B800061E08DE00E94090161E08BE00E940901B3
:100B9000809156018F5F809356011FBF8091130291
:100BA000909114022091150230911602821793073A
:100BB00019F060E00E94D90081E00E94410365E0E5
:100BC00070E080E090E00E9481016CE080E00E9493
:100BD00064036FE584E00E94640382E090E00E9479
:100BE000B103882319F081E08093190286E00E9406
:100BF000970380E090E00E94B10380E00E944103EF
:100C000080E50E94B20283E70E94B2020E94610363
:100C100060E08DE10E94640360E08CE10E94640367
:100C200010921B0260E787E00E9464036CE485E099
:100C30000E94640382EE0E94810381EE0E94810380
:100C400080E00E94970381FD0BC0682F626080E006
:100C50000E94640365E070E080E090E00E94810102
:100C600080E00E949703682F6E7F80E00E946403FB
:100C70006CE685E00E94640380E090E00E94B1038E
:100C800086E00E949703887F682F656086E00E9457
:100C900064038BEB898380EF8A838B8388EE8C835C
:100CA0008D831E821F821886D090210280E00E94D0
:100CB00041038AE20E94B2028E010F5F1F4F78014A
:100CC000C02ED00EDE1431F0F70181917F010E9419
:100CD000B202F8CF0E946103F090210280E00E94EE
:100CE000410380E30E94B202FC0CF01631F0F801DF
:100CF00081918F010E94B202F8CF0E94610360913E
:100D00001A0281E10E94640383E191E00E94CB0218
:100D100068EE73E080E090E00E948101CC24CA94E8
:100D200093E0D92EE12CF12C20E9822E9924939482
:100D3000A12CB12C80E10E94450190935E0180932B
:100D40005D018FE00E94450190935C0180935B01FF
:100D50008EE00E94450190935A018093590182E1EF
:100D60000E9445019C01A1E0BCEF0E941E08A70162
:100D700096010E94C307DA01C90181509C4FAF4F11
:100D8000BF4F90935801809357010E94B500892B63
:100D900041F589E191E00E94B90280915D01909155
:100DA0005E010E94FF0382E291E00E94B9028091FD
:100DB0005B0190915C010E94FF038DE291E00E9433
:100DC000B9028091590190915A010E94FF0388E372
:100DD00091E00E94B90280915701909158010E94C0
:100DE000E7034090110250901202052C000C660897
:100DF000770820915D0130915E01C901330FAA0B84
:100E0000BB0B9C01AD012419350946095709A8EC13
:100E1000B0E00E94E207A5019401241935094609B2
:100E200057090E94C30729013A01F4E64F1A5108F5
:100E30006108710850926A0140926901A0915701BE
:100E4000B091580128EC30E00E942608A7019601D5
:100E50000E94C307DA01C90184569109A109B109A9
:100E60009093600180935F010E94B500892B69F423
:100E7000C2010E94FF0383E491E00E94B9028091C5
:100E80005F01909160010E94E7030E94B500892BE9
:100E900031F468EE73E080E090E00E94810180917F
:100EA000690190916A0190936201809361011092AF
:100EB00064011092630110926601109265018091A5
:100EC0005F01909160019093680180936701109198
:100ED0001A02012F193008F008E080911B028111DD
:100EE00002C0101B01C010E080E00E94410380EAB4
:100EF0000E94B20281E6682E81E0782E015030F027
:100F0000F30181913F010E94B202F8CF112329F031
:100F100080E00E94B2021150F9CF0E9461038091DB
:100F2000130290911402209115023091160282173B
:100F3000930719F061E00E94D9008FEF0E948103AE
:100F40008073D9F3809113029091140220911502BD
:100F5000309116028217930719F060E00E94D900C1
:100F600060E787E00E94640384FF0AC081EE0E946C
:100F7000810385E491E00E94CB020E94A802DACEB0
:100F80008BE491E0F8CF052E97FB1EF400940E94AD
:100F9000DA0757FD07D00E94ED0707FC03D04EF497
:100FA0000C94DA0750954095309521953F4F4F4F5F
:100FB0005F4F089590958095709561957F4F8F4F05
:100FC0009F4F08950E940F08A59F900DB49F900D0C
:100FD000A49F800D911D11240895A1E21A2EAA1B31
:100FE000BB1BFD010DC0AA1FBB1FEE1FFF1FA217D9
:100FF000B307E407F50720F0A21BB30BE40BF50BD6
:10100000661F771F881F991F1A9469F7609570955E
:10101000809590959B01AC01BD01CF010895A29FE1
:10102000B001B39FC001A39F700D811D1124911DBC
:10103000B29F700D811D1124911D08950E940F080B
:10104000332312F48A1B9B0B0C9428080E940F0870
:10105000B7FF0895821B930B0895EE0FFF1F0590B5
:10106000F491E02D099481E090E0F8940C94380814
:04107000F894FFCF22
:10107400000000003F02BB010802E601FA018602FB
:101084000D0A005374617274005261775F58203DF9
:1010940020005F5F5261775F59203D20005F5F52FF
:1010A40061775F5A203D20005F526177506F742052
:1010B4003D20002C004661696C210044617461206C
:0610C40073656E7421004B
:00000001FF
