:100000000C9462000C948A000C948A000C948A0070
:100010000C948A000C948A000C948A000C948A0038
:100020000C948A000C948A000C948A000C948A0028
:100030000C948A000C948A000C948A000C948A0018
:100040000C940C040C948A000C947C040C945604BC
:100050000C948A000C948A000C948A000C948A00F8
:100060000C948A000C948A000000000024002700F1
:100070002A0000000000250028002B0000000000DE
:1000800023002600290004040404040404040202DA
:100090000202020203030303030301020408102007
:1000A0004080010204081020010204081020000012
:1000B0000008000201000003040700000000000027
:1000C0000000AE0411241FBECFEFD8E0DEBFCDBFCD
:1000D00011E0A0E0B1E0E6EEF0E102C005900D9283
:1000E000A635B107D9F722E0A6E5B1E001C01D921F
:1000F000AF32B207E1F710E0C2E6D0E004C02197CA
:10010000FE010E946608C136D107C9F70E94FA04B1
:100110000C9471080C940000833081F028F4813035
:1001200099F08230A1F008958730A9F08830B9F0B5
:100130008430D1F4809180008F7D03C08091800055
:100140008F7780938000089584B58F7702C084B53F
:100150008F7D84BD08958091B0008F7703C080911A
:10016000B0008F7D8093B0000895CF93DF93E0EBD4
:10017000F0E08491ECE9F0E0D491E8E8F0E0C4919B
:10018000CC2391F081110E948C00EC2FF0E0EE0F57
:10019000FF1FE458FF4FA591B491EC91ED2381E04E
:1001A00090E021F480E002C080E090E0DF91CF9108
:1001B00008951F93CF93DF93282F30E0F901E25584
:1001C000FF4F8491F901E656FF4FD491F901EA57A8
:1001D000FF4FC491CC23C9F0162F81110E948C00CF
:1001E000EC2FF0E0EE0FFF1FEE58FF4FA591B491FA
:1001F0008FB7F894111105C09C91ED2FE095E9237C
:1002000002C0EC91ED2BEC938FBFDF91CF911F914A
:100210000895CF93DF9390E0FC01E656FF4F2491C1
:10022000FC01EA57FF4F8491882361F190E0880F29
:10023000991FFC01E859FF4FC591D491FC01EE587C
:10024000FF4FA591B491611109C09FB7F8948881BF
:10025000209582238883EC912E230BC0623061F4B9
:100260009FB7F8943881822F809583238883EC91FF
:100270002E2B2C939FBF06C08FB7F894E8812E2BAE
:1002800028838FBFDF91CF9108958E3008F08E5074
:100290008770806480937C0080917A008064809372
:1002A0007A0080917A0086FDFCCF809178002091C1
:1002B000790090E0922B08953FB7F89480917401F3
:1002C00090917501A0917601B091770126B5A89B18
:1002D00005C02F3F19F00196A11DB11D3FBFBA2FD8
:1002E000A92F982F8827820F911DA11DB11DBC0138
:1002F000CD0142E0660F771F881F991F4A95D1F7FD
:1003000008958F929F92AF92BF92CF92DF92EF9219
:10031000FF926B017C010E945C014B015C01C114E6
:10032000D104E104F104F1F00E945C01DC01CB0195
:1003300088199909AA09BB09883E9340A105B1050E
:1003400070F321E0C21AD108E108F10888EE880EA6
:1003500083E0981EA11CB11CC114D104E104F10476
:1003600019F7DDCFFF90EF90DF90CF90BF90AF9067
:100370009F908F900895CF92DF92EF92FF920F930C
:100380001F93CF93DF936C017A018B01C0E0D0E023
:10039000CE15DF0589F0D8016D918D01D601ED9163
:1003A000FC910190F081E02DC6010995892B11F493
:1003B0007E0102C02196ECCFC701DF91CF911F9142
:1003C0000F91FF90EF90DF90CF900895FC01918DF9
:1003D000828D981761F0828DDF01A80FB11D5D96A7
:1003E0008C91928D9F5F9F73928F90E008958FEF15
:1003F0009FEF0895FC01918D828D981731F0828DC9
:10040000E80FF11D858D90E008958FEF9FEF08951F
:10041000FC01918D228D892F90E0805C9F4F821B83
:1004200091098F739927089588E791E00E94080247
:1004300021E0892B09F420E0822F0895FC01848DAE
:10044000DF01A80FB11DA35ABF4F2C91848D90E0FE
:1004500001968F739927848FA689B7892C93A089D9
:10046000B1898C9180648C93938D848D981306C090
:100470000288F389E02D80818F7D80830895EF923B
:10048000FF920F931F93CF93DF93EC0181E0888F4E
:100490009B8D8C8D981305C0E889F989808185FD35
:1004A00024C0F62E0B8D10E00F5F1F4F0F73112726
:1004B000E02E8C8DE8120CC00FB607FCFACFE8894D
:1004C000F989808185FFF5CFCE010E941E02F1CF10
:1004D0008B8DFE01E80FF11DE35AFF4FF0820B8F69
:1004E000EA89FB898081806207C0EE89FF89608389
:1004F000E889F98980818064808381E090E0DF91E0
:10050000CF911F910F91FF90EF900895CF93DF93BC
:10051000EC01888D8823C9F0EA89FB89808185FDFB
:1005200005C0A889B9898C9186FD0FC00FB607FC5C
:10053000F5CF808185FFF2CFA889B9898C9185FF9D
:10054000EDCFCE010E941E02E7CFDF91CF9108953B
:1005500080E090E0892B29F00E94140281110C9414
:10056000000008958EBD00000DB407FEFDCF8EB5CE
:100570000895009769F0FC0101900020E9F7319798
:10058000AF01481B590BBC0188E791E00C94BB01FB
:1005900080E090E00895CF93DF930E94B902EC01D0
:1005A00080E191E00E94B9028C0F9D1FDF91CF91F5
:1005B00008958F929F92AF92BF920F931F93CF9304
:1005C000DF93CDB7DEB7A1970FB6F894DEBF0FBEAD
:1005D000CDBF19A2423008F44AE08E010F5D1F4FD3
:1005E000842E912CA12CB12CA50194010E942608E7
:1005F000E62FB901CA0101501109EA3014F4E05D97
:1006000001C0E95CD801EC93232B242B252B61F747
:10061000C8010E94B902A1960FB6F894DEBF0FBEC2
:10062000CDBFDF91CF911F910F91BF90AF909F9061
:100630008F900895CF92DF92EF92FF92CF93DF9346
:100640006B017C01E0917801F09179010190F081DA
:10065000E02D6DE288E791E00995EC0166277727A8
:10066000CB016C197D098E099F094AE00E94D902CD
:100670008C0F9D1FDF91CF91FF90EF90DF90CF9077
:1006800008959CB59F7D9CBD9CB5937F9CBD9CB5FA
:100690009C7F9CBD9DB591609DBD682F8091190286
:1006A0000E94D90080912B0290912C0282309105FA
:1006B00038F0880F991F880F991F05970197F1F758
:1006C000089580E00C9441031F93CF93DF9300D0F3
:1006D000CDB7DEB76A8389830E94610389818F71F8
:1006E00080620E94B202182F6A81862F0E94B20295
:1006F00081E00E944103812F0F900F90DF91CF91F5
:100700001F9108951F93CF93DF931F92CDB7DEB74C
:1007100089830E94610389810E94B202182F81E0BF
:100720000E944103812F0F90DF91CF911F91089577
:100730001F93CF93DF931F92CDB7DEB789830E94BB
:10074000610389818F710E94B2028FEF0E94B20211
:10075000182F81E00E944103812F0F90DF91CF91EC
:100760001F9108950F931F93CF938C0186E00E94F1
:100770009803C82FC77D0230110531F4C0628BE9A0
:1007800090E0A0E0B0E00DC00130110529F085E552
:1007900090E0A0E0B0E005C0C86081E490E0A0E097
:1007A000B0E08093270290932802A0932902B0938F
:1007B0002A026C2F86E00E94640386E00E94980360
:1007C00091E08C1390E0892FCF911F910F910895A4
:1007D000CF93DF93BC01990F880B990B97FF03C050
:1007E0000E941A0303C04AE00E94D902EC0180E192
:1007F00091E00E94B9028C0F9D1FDF91CF91089567
:10080000BC01990F880B990B97FD0C941A034AE0D1
:100810000C94D9020E946C081F920F920FB60F928F
:1008200011242F933F938F939F93AF93BF93809106
:10083000700190917101A0917201B091730130919A
:100840006F0123E0230F2D3720F40196A11DB11D68
:1008500005C026E8230F0296A11DB11D20936F014C
:100860008093700190937101A0937201B093730112
:100870008091740190917501A0917601B0917701FA
:100880000196A11DB11D8093740190937501A093F1
:100890007601B0937701BF91AF919F918F913F9176
:1008A0002F910F900FBE0F901F9018951F920F92CF
:1008B0000FB60F9211242F933F934F935F936F9333
:1008C0007F938F939F93AF93BF93EF93FF9388E7AB
:1008D00091E00E941E02FF91EF91BF91AF919F9115
:1008E0008F917F916F915F914F913F912F910F90D9
:1008F0000FBE0F901F9018951F920F920FB60F9278
:1009000011242F938F939F93EF93FF93E09188018E
:10091000F09189018081E0918E01F0918F0182FD3B
:1009200012C09081809191018F5F8F73209192010D
:10093000821751F0E0919101F0E0E858FE4F958F59
:100940008093910101C08081FF91EF919F918F91E0
:100950002F910F900FBE0F901F901895E8E7F1E0D0
:100960001382128288EE93E0A0E0B0E08483958346
:10097000A683B78384E091E09183808385EC90E047
:100980009587848784EC90E09787868780EC90E059
:10099000918B808B81EC90E0938B828B82EC90E04A
:1009A000958B848B86EC90E0978B868B118E128EC4
:1009B000138E148EE7E1F2E087E090E0918380836C
:1009C00088E090E093838283168280E2878310869A
:1009D00085E0868785E090E0A0E0B0E0848B958B91
:1009E000A68BB78B118684E091E0909316028093DA
:1009F00015020895CF93DF93CDB7DEB728970FB6D2
:100A0000F894DEBF0FBECDBF789484B5826084BDFC
:100A100084B5816084BD85B5826085BD85B5816002
:100A200085BD80916E00816080936E001092810080
:100A3000809181008260809381008091810081603B
:100A400080938100809180008160809380008091FC
:100A5000B10084608093B1008091B0008160809388
:100A6000B00080917A00846080937A0080917A004F
:100A7000826080937A0080917A00816080937A000E
:100A800080917A00806880937A001092C100E09192
:100A90008801F091890182E08083E0918401F091E6
:100AA00085011082E0918601F09187018FEC8083AF
:100AB00010929001E0918C01F0918D0186E080838D
:100AC000E0918A01F0918B01808180618083E091C7
:100AD0008A01F0918B01808188608083E0918A0196
:100AE000F0918B01808180688083E0918A01F09190
:100AF0008B0180818F7D808362E082E00E9409010A
:100B000080911702909118022091190230911A02D7
:100B10008217930719F061E00E9409018091190280
:100B200090911A0220911702309118022817390764
:100B300019F061E00E9409011FB7F89480915601F5
:100B4000811127C0E0E9F0E08491E4EAF0E09491BB
:100B5000E82FF0E0EE0FFF1FE859FF4FA591B49189
:100B6000EC91E92321F461E08AE00E94D90061E080
:100B70008AE00E9409018CB580618CBD8CB58064CF
:100B80008CBD61E08DE00E94090161E08BE00E9474
:100B90000901809156018F5F809356011FBF80919C
:100BA0001702909118022091190230911A028217AF
:100BB000930719F060E00E94D90081E00E94410390
:100BC00065E070E080E090E00E9481016CE080E0F0
:100BD0000E9464036FE584E00E94640382E090E079
:100BE0000E94B203882319F081E080931D0286E001
:100BF0000E94980380E090E00E94B2030E9461038B
:100C000080E50E94B20283E70E94B20281E00E9466
:100C1000410360E08DE10E94640360E08CE10E948A
:100C2000640310921F0260E787E00E9464036CE493
:100C300085E00E94640382EE0E94820381EE0E949E
:100C4000820380E00E94980381FD0BC0682F6260E0
:100C500080E00E94640365E070E080E090E00E9424
:100C6000810180E00E949803682F6E7F80E00E94DF
:100C700064036CE685E00E94640380E090E00E94DB
:100C8000B20386E00E949803887F682F656086E043
:100C90000E9464038CEC898380EF8A838B8388EEC7
:100CA0008C838D831E821F821886D09025020E941D
:100CB00061038AE20E94B2028E010F5F1F4F78012A
:100CC000C02ED00EDE1431F0F70181917F010E9419
:100CD000B202F8CF81E00E944103F09025020E9409
:100CE000610380E30E94B202FC0CF01631F0F801BF
:100CF00081918F010E94B202F8CF81E00E944103EE
:100D000060911E0281E10E94640383E191E00E94F0
:100D1000CB0268EE73E080E090E00E948101CC2479
:100D2000CA9423E0D22EE12CF12C80E10E944501EF
:100D300090935E0180935D018FE00E944501909346
:100D40005C0180935B018EE00E94450190935A0103
:100D50008093590182E10E9445019C01A1E0BCEF12
:100D60000E945708A70196010E94F407DA01C90101
:100D700081509C4FAF4FBF4F9093580180935701C4
:100D80000E94B500892B41F589E191E00E94B902EA
:100D900080915D0190915E010E94000482E291E0E9
:100DA0000E94B90280915B0190915C010E94000455
:100DB0008DE291E00E94B9028091590190915A010F
:100DC0000E94000488E391E00E94B90280915701DB
:100DD000909158010E94E8038091150290911602AB
:100DE0004C01990FAA08BB0890E9492E5524539449
:100DF000612C712C481859086A087B082091590108
:100E000030915A01C901330FAA0BBB0B9C01AD01F4
:100E1000281939094A095B09A8E3BFEF0E94210894
:100E2000A30192010E94F407DA01C9018C599F4F76
:100E3000AF4FBF4F90936401809363019093620121
:100E40008093610140915D0150915E01052E000C7F
:100E5000660B770B9A01AB01281939094A095B091E
:100E6000A8ECB0E00E941308A30192010E94F407CD
:100E700029013A01F4E64F1A5108610871085092AD
:100E80006E0140926D01A0915701B091580124E686
:100E900030E00E945F08A70196010E94F40730939A
:100EA000600120935F010E94B500892BB9F4C20153
:100EB0000E94000483E491E00E94B90280916101E4
:100EC000909162010E94000483E491E00E94B902C3
:100ED00080915F01909160010E94E8030E94B5003B
:100EE000892B31F468EE73E080E090E00E9481018C
:100EF00080916D0190916E019093660180936501E0
:100F000080916301909164019093680180936701DF
:100F1000809161019091620190936A0180936901CF
:100F200080915F019091600190936C0180936B01BF
:100F300010911E02012F193008F008E080911F0265
:100F4000811102C0101B01C010E00E94610380EA01
:100F50000E94B20285E6682E81E0782E015030F0C2
:100F6000F30181913F010E94B202F8CF112329F0D1
:100F700080E00E94B2021150F9CF81E00E9441034B
:100F800080911702909118022091190230911A0253
:100F90008217930719F061E00E94D9008FEF0E9439
:100FA00082038073D9F380911702909118022091E7
:100FB000190230911A028217930719F060E00E941B
:100FC000D90060E787E00E94640384FF0AC081EED5
:100FD0000E94820385E491E00E94CB020E94A80255
:100FE000A4CE8BE491E0F8CF052E97FB1EF400947D
:100FF0000E940B0857FD07D00E94260807FC03D06B
:101000004EF40C940B0850954095309521953F4F28
:101010004F4F5F4F089590958095709561957F4FE4
:101020008F4F9F4F08950E944808A59F900DB49F31
:10103000900DA49F800D911D11240895B7FF0C946D
:1010400013080E941308821B930B0895A1E21A2E25
:10105000AA1BBB1BFD010DC0AA1FBB1FEE1FFF1F5C
:10106000A217B307E407F50720F0A21BB30BE40BAC
:10107000F50B661F771F881F991F1A9469F76095F3
:101080007095809590959B01AC01BD01CF010895AD
:10109000A29FB001B39FC001A39F700D811D1124B9
:1010A000911DB29F700D811D1124911D08950E9404
:1010B0004808332312F48A1B9B0B0C9461080E948E
:1010C0004808B7FF0895821B930B0895EE0FFF1F8A
:1010D0000590F491E02D099481E090E0F8940C944F
:0610E0007108F894FFCF37
:1010E600000000003F02BB010802E601FA01860289
:1010F6000D0A005374617274005261775F58203D87
:1011060020005F5F5261775F59203D20005F5F528C
:1011160061775F5A203D20005F526177506F7420DF
:101126003D20002C004661696C21004461746120F9
:0611360073656E742100D8
:00000001FF
