:100000000C945D000C9485000C9485000C94850084
:100010000C9485000C9485000C9485000C9485004C
:100020000C9485000C9485000C9485000C9485003C
:100030000C9485000C9485000C9485000C9485002C
:100040000C9414030C9485000C9484030C945E03AC
:100050000C9485000C9485000C9485000C9485000C
:100060000C9485000C9485000000000024002700FB
:100070002A0000000000250028002B0004040404CE
:100080000404040402020202020203030303030342
:10009000010204081020408001020408102001021F
:1000A00004081020000000080002010000030407FB
:1000B0000000000000000000B60311241FBECFEFB7
:1000C000D8E0DEBFCDBF11E0A0E0B1E0E2EEF9E0A4
:1000D00002C005900D92A231B107D9F721E0A2E14B
:1000E000B1E001C01D92A83DB207E1F710E0CDE5F7
:1000F000D0E004C02197FE010E94E404CC35D10772
:10010000C9F70E9429040C94EF040C94000090E0BD
:10011000FC01EC55FF4F3491FC01E057FF4F249157
:10012000FC01E458FF4FE491EE2309F43BC0332374
:1001300039F1333091F038F43130A9F0323001F533
:1001400084B58F7D12C0373091F03830A1F0343053
:10015000B9F4809180008F7D03C0809180008F77FB
:10016000809380000DC084B58F7784BD09C08091D5
:10017000B0008F7703C08091B0008F7D8093B00076
:10018000F0E0EE0FFF1FEE58FF4FA591B4918FB72F
:10019000F894EC91611103C020952E2301C02E2B01
:1001A0002C938FBF0895CF93DF9390E0FC01E0572D
:1001B000FF4F2491FC01E458FF4F8491882361F1A3
:1001C00090E0880F991FFC01E859FF4FC591D49129
:1001D000FC01EE58FF4FA591B491611109C09FB782
:1001E000F8948881209582238883EC912E230BC07C
:1001F000623061F49FB7F8943881822F8095832311
:100200008883EC912E2B2C939FBF06C08FB7F89458
:10021000E8812E2B28838FBFDF91CF9108951F9304
:10022000CF93DF93182FEB0161E00E94D30020975A
:1002300011F460E004C0CF3FD10539F461E0812FB3
:10024000DF91CF911F910C948700E12FF0E0EC55E6
:10025000FF4FE491E330F9F048F4E130B9F0E230D7
:10026000A1F584B5806284BDC8BD34C0E730E9F033
:10027000E83019F1E43049F5809180008062809384
:100280008000D0938B00C0938A0024C084B580681E
:1002900084BDC7BD1FC080918000806880938000AE
:1002A000D0938900C093880015C08091B000806809
:1002B0008093B000C093B3000DC08091B000806205
:1002C0008093B000C093B40005C0C038D1050CF0D5
:1002D000B5CFAFCFDF91CF911F9108953FB7F8947D
:1002E0008091170190911801A0911901B0911A0104
:1002F00026B5A89B05C02F3F19F00196A11DB11D81
:100300003FBFBA2FA92F982F8827820F911DA11DBB
:10031000B11DBC01CD0142E0660F771F881F991FF8
:100320004A95D1F708958F929F92AF92BF92CF9244
:10033000DF92EF92FF926B017C010E946E014B01F4
:100340005C01C114D104E104F104F1F00E946E01DA
:10035000DC01CB0188199909AA09BB09883E9340A1
:10036000A105B10570F321E0C21AD108E108F10836
:1003700088EE880E83E0981EA11CB11CC114D10424
:10038000E104F10419F7DDCFFF90EF90DF90CF90FB
:10039000BF90AF909F908F900895CF92DF92EF9291
:1003A000FF920F931F93CF93DF936C017A018B0120
:1003B000C0E0D0E0CE15DF0589F0D8016D918D0148
:1003C000D601ED91FC910190F081E02DC6010995D7
:1003D000892B11F47E0102C02196ECCFC701DF9179
:1003E000CF911F910F91FF90EF90DF90CF900895E4
:1003F000089580E090E00895FC01538D448D252FF1
:1004000030E0842F90E0821B930B541710F0CF96AE
:10041000089501970895FC01918D828D981761F0E0
:10042000828DDF01A80FB11D5D968C91928D9F5F2B
:100430009F73928F90E008958FEF9FEF0895FC01D6
:10044000918D828D981731F0828DE80FF11D858D89
:1004500090E008958FEF9FEF0895FC01918D228D1C
:10046000892F90E0805C9F4F821B91098F739927A1
:1004700008958BE191E00E942D0221E0892B09F47F
:1004800020E0822F0895FC01848DDF01A80FB11DAB
:10049000A35ABF4F2C91848D90E001968F739927BA
:1004A000848FA689B7892C93A089B1898C918064A7
:1004B0008C93938D848D981306C00288F389E02D68
:1004C00080818F7D80830895EF92FF920F931F9319
:1004D000CF93DF93EC0181E0888F9B8D8C8D9813F7
:1004E00005C0E889F989808185FD24C0F62E0B8D31
:1004F00010E00F5F1F4F0F731127E02E8C8DE81255
:100500000CC00FB607FCFACFE889F989808185FF16
:10051000F5CFCE010E944302F1CF8B8DFE01E80F93
:10052000F11DE35AFF4FF0820B8FEA89FB8980812E
:10053000806207C0EE89FF896083E889F98980813C
:100540008064808381E090E0DF91CF911F910F91D3
:10055000FF90EF900895CF93DF93EC01888D88236F
:10056000C9F0EA89FB89808185FD05C0A889B98920
:100570008C9186FD0FC00FB607FCF5CF808185FFFB
:10058000F2CFA889B9898C9185FFEDCFCE010E9469
:100590004302E7CFDF91CF91089580E090E0892B6F
:1005A00029F00E94390281110C9400000895CF9324
:1005B000DF93EC0160E070E08A810E940F0160E04F
:1005C00070E08881DF91CF910C940F010F931F93FE
:1005D000CF93DF938C016F3F710519F014F06FEF2B
:1005E00070E0EB0161307F4F14F4C1E0DFEF60E0B9
:1005F00070E0F801D7FD07C082810E940F01BE01A3
:10060000F801808109C080810E940F016627772749
:100610006C1B7D0BF8018281DF91CF911F910F91AF
:100620000C940F010E94EA041F920F920FB60F92D2
:1006300011242F933F938F939F93AF93BF938091F8
:10064000130190911401A0911501B0911601309100
:10065000120123E0230F2D3720F40196A11DB11DB7
:1006600005C026E8230F0296A11DB11D209312019B
:100670008093130190931401A0931501B093160178
:100680008091170190911801A0911901B0911A0160
:100690000196A11DB11D8093170190931801A0939D
:1006A0001901B0931A01BF91AF919F918F913F9122
:1006B0002F910F900FBE0F901F9018951F920F92C1
:1006C0000FB60F9211242F933F934F935F936F9325
:1006D0007F938F939F93AF93BF93EF93FF938BE1A0
:1006E00091E00E944302FF91EF91BF91AF919F91E2
:1006F0008F917F916F915F914F913F912F910F90CB
:100700000FBE0F901F9018951F920F920FB60F9269
:1007100011242F938F939F93EF93FF93E0912B01DD
:10072000F0912C018081E0913101F091320182FD44
:1007300012C09081809134018F5F8F7320913501B9
:10074000821751F0E0913401F0E0E55EFE4F958FA5
:100750008093340101C08081FF91EF919F918F912F
:100760002F910F900FBE0F901F901895CF93DF938E
:10077000EBE1F1E01382128288EE93E0A0E0B0E0BA
:1007800084839583A683B78384E091E091838083FB
:1007900085EC90E09587848784EC90E09787868746
:1007A00080EC90E0918B808B81EC90E0938B828B3E
:1007B00082EC90E0958B848B86EC90E0978B868B17
:1007C000118E128E138E148EC8EBD1E089E090E06A
:1007D000998388838AE090E09B838A8361E089E043
:1007E0000E94D30061E08A810E94D30085E090E0FE
:1007F0009D838C8386E090E09F838E8361E085E01B
:100800000E94D30061E08E810E94D30061E084E009
:100810000E94D30060E083E00E94D30084E090E077
:100820009987888783E090E09B878A8788EB9BE0A5
:10083000A0E0B0E08C879D87AE87BF8781E090E025
:100840009D8F8C8F80E991E09F8F8E8FDF91CF916C
:100850000895789484B5826084BD84B5816084BD38
:1008600085B5826085BD85B5816085BD80916E004E
:10087000816080936E00109281008091810082607F
:1008800080938100809181008160809381008091BC
:1008900080008160809380008091B10084608093AB
:1008A000B1008091B00081608093B00080917A00A7
:1008B000846080937A0080917A00826080937A00CD
:1008C00080917A00816080937A0080917A008068BC
:1008D00080937A001092C100E0912B01F0912C01DD
:1008E00082E08083E0912701F09128011082E0915D
:1008F0002901F0912A018FEC808310923301E0915D
:100900002F01F091300186E08083E0912D01F0917C
:100910002E01808180618083E0912D01F0912E0174
:10092000808188608083E0912D01F0912E0180818B
:1009300080688083E0912D01F0912E0180818F7D70
:1009400080836FEF70E08CEB91E00E94E6026FEF26
:1009500070E088EB91E00E94E60268EB7BE080E0CB
:1009600090E00E9493018CEB91E00E94D70288EB0B
:1009700091E00E94D70268EC70E080E090E00E9475
:10098000930161E07FEF8CEB91E00E94E60261E071
:100990007FEF88EB91E00E94E60268EB7BE080E06D
:1009A00090E00E9493018CEB91E00E94D70288EBCB
:1009B00091E00E94D70268EC70E080E090E00E9435
:1009C00093010E94CD02BDCFEE0FFF1F0590F49161
:1009D000E02D099481E090E0F8940C94EF04F894F1
:0209E000FFCF47
:1009E200000000006402CD01FC01AB022D020B02EB
:0209F2001F02E2
:00000001FF
