:100000000C945D000C9485000C9485000C94850084
:100010000C9485000C9485000C9485000C9485004C
:100020000C9485000C940E040C9485000C948500AF
:100030000C9485000C9485000C9485000C9485002C
:100040000C946C030C9485000C94DC030C94B603A4
:100050000C9485000C9485000C9485000C9485000C
:100060000C9485000C9485000000000024002700FB
:100070002A0000000000250028002B0004040404CE
:100080000404040402020202020203030303030342
:10009000010204081020408001020408102001021F
:1000A00004081020000000080002010000030407FB
:1000B0000000000000000000B90411241FBECFEFB3
:1000C000D8E0DEBFCDBF11E0A0E0B1E0E4E1FDE0AB
:1000D00002C005900D92AA31B107D9F722E0AAE13A
:1000E000B1E001C01D92A230B207E1F710E0CDE50A
:1000F000D0E004C02197FE010E947D06CC35D107D7
:10010000C9F70E945E050C9488060C940000CF93FA
:10011000C091FD012FEF2C0F283098F52EEA36E024
:10012000DC010E94760624EB30E040E050E00E94C3
:100130002606DA01C901845E9D4FAF4FBF4F8C3157
:1001400022E0920744F09C012B3C88E038072CF019
:100150002AEC38E002C02CE132E028503109EC2FC3
:10016000F0E0C901880F892F881F990BAF01440F58
:10017000551FE40FF51FE85DFE4F8183220F209588
:100180002283CF91089590E0FC01EC55FF4F34910C
:10019000FC01E057FF4F2491FC01E458FF4FE4912C
:1001A000EE2309F43BC0332339F1333091F038F4B6
:1001B0003130A9F0323001F584B58F7D12C037306F
:1001C00091F03830A1F03430B9F4809180008F7D07
:1001D00003C0809180008F77809380000DC084B52C
:1001E0008F7784BD09C08091B0008F7703C0809164
:1001F000B0008F7D8093B000F0E0EE0FFF1FEE584F
:10020000FF4FA591B4918FB7F894EC91611103C0A1
:1002100020952E2301C02E2B2C938FBF0895CF93B2
:10022000DF9390E0FC01E057FF4F2491FC01E4587C
:10023000FF4F8491882361F190E0880F991FFC01A2
:10024000E859FF4FC591D491FC01EE58FF4FA5919D
:10025000B491611109C09FB7F894888120958223D9
:100260008883EC912E230BC0623061F49FB7F89421
:100270003881822F809583238883EC912E2B2C93B9
:100280009FBF06C08FB7F894E8812E2B28838FBFBD
:10029000DF91CF91089580912701811123C080E0E3
:1002A00090E03BE027E5FC01E85DFE4F34832583C9
:1002B000039688319105B9F78EE380932901109256
:1002C000260110922501109270001092B00082E079
:1002D0008093B1001092B20081E087BB80937000E0
:1002E000809327018091FD01882399F061E082E0ED
:1002F0000E940F01E091FD01F0E0CF01880F991FEE
:10030000E80FF91FE85DFE4F8081807E8260806289
:1003100080838091FD0108951F93CF93DF93182F61
:10032000EB0161E00E940F01209711F460E004C02E
:10033000CF3FD10539F461E0812FDF91CF911F913B
:100340000C94C300E12FF0E0EC55FF4FE491E33053
:10035000F9F048F4E130B9F0E230A1F584B58062FB
:1003600084BDC8BD34C0E730E9F0E83019F1E430AD
:1003700049F580918000806280938000D0938B004B
:10038000C0938A0024C084B5806884BDC7BD1FC0E7
:1003900080918000806880938000D0938900C09312
:1003A000880015C08091B00080688093B000C09331
:1003B000B3000DC08091B00080628093B000C09304
:1003C000B40005C0C038D1050CF0B5CFAFCFDF9178
:1003D000CF911F9108953FB7F8948091210190919A
:1003E0002201A0912301B091240126B5A89B05C04C
:1003F0002F3F19F00196A11DB11D3FBFBA2FA92FA4
:10040000982F8827820F911DA11DB11DBC01CD0120
:1004100042E0660F771F881F991F4A95D1F708950C
:100420008F929F92AF92BF92CF92DF92EF92FF9204
:100430000E94EB014B015C018FE0C82ED12CE12C16
:10044000F12C0E94EB01DC01CB0188199909AA0962
:10045000BB09883E9340A105B10558F021E0C21ABE
:10046000D108E108F10888EE880E83E0981EA11CEF
:10047000B11CC114D104E104F10419F7FF90EF900D
:10048000DF90CF90BF90AF909F908F900895CF92C4
:10049000DF92EF92FF920F931F93CF93DF936C0144
:1004A0007A018B01C0E0D0E0CE15DF0589F0D801DC
:1004B0006D918D01D601ED91FC910190F081E02DBF
:1004C000C6010995892B11F47E0102C02196ECCF5B
:1004D000C701DF91CF911F910F91FF90EF90DF90B7
:1004E000CF900895FC01918D828D981761F0828DD7
:1004F000DF01A80FB11D5D968C91928D9F5F9F7358
:10050000928F90E008958FEF9FEF0895FC01918DF9
:10051000828D981731F0828DE80FF11D858D90E066
:1005200008958FEF9FEF0895FC01918D228D892F03
:1005300090E0805C9F4F821B91098F7399270895EB
:1005400083E491E00E94940221E0892B09F420E0E9
:10055000822F0895FC01848DDF01A80FB11DA35ADD
:10056000BF4F2C91848D90E001968F739927848FD3
:10057000A689B7892C93A089B1898C9180648C93CA
:10058000938D848D981306C00288F389E02D8081B5
:100590008F7D80830895EF92FF920F931F93CF93E7
:1005A000DF93EC0181E0888F9B8D8C8D981305C0C3
:1005B000E889F989808185FD24C0F62E0B8D10E035
:1005C0000F5F1F4F0F731127E02E8C8DE8120CC0A8
:1005D0000FB607FCFACFE889F989808185FFF5CF4E
:1005E000CE010E94AA02F1CF8B8DFE01E80FF11D12
:1005F000E35AFF4FF0820B8FEA89FB89808180628A
:1006000007C0EE89FF896083E889F9898081806469
:10061000808381E090E0DF91CF911F910F91FF9057
:10062000EF900895CF93DF93EC01888D8823C9F074
:10063000EA89FB89808185FD05C0A889B9898C91EB
:1006400086FD0FC00FB607FCF5CF808185FFF2CF86
:10065000A889B9898C9185FFEDCFCE010E94AA02AD
:10066000E7CFDF91CF91089580E090E0892B29F0CA
:100670000E94A00281110C94000008950F931F9313
:10068000CF93DF938C016F3F710519F014F06FEF7A
:1006900070E0EB0161307F4F14F4C1E0DFEF60E008
:1006A00070E0F801D7FD07C082810E948C01BE0175
:1006B000F801808109C080810E948C01662777271C
:1006C0006C1B7D0BF8018281DF91CF911F910F91FF
:1006D0000C948C010E9483061F920F920FB60F920A
:1006E00011242F933F938F939F93AF93BF93809148
:1006F0001D0190911E01A0911F01B0912001309128
:100700001C0123E0230F2D3720F40196A11DB11DFC
:1007100005C026E8230F0296A11DB11D20931C01E0
:1007200080931D0190931E01A0931F01B09320019F
:100730008091210190912201A0912301B091240187
:100740000196A11DB11D8093210190932201A093D8
:100750002301B0932401BF91AF919F918F913F915D
:100760002F910F900FBE0F901F9018951F920F9210
:100770000FB60F9211242F933F934F935F936F9374
:100780007F938F939F93AF93BF93EF93FF9383E4F4
:1007900091E00E94AA02FF91EF91BF91AF919F91CA
:1007A0008F917F916F915F914F913F912F910F901A
:1007B0000FBE0F901F9018951F920F920FB60F92B9
:1007C00011242F938F939F93EF93FF93E091530105
:1007D000F09154018081E0915901F0915A0182FD1C
:1007E00012C0908180915C018F5F8F7320915D01B9
:1007F000821751F0E0915C01F0E0ED5BFE4F958FC8
:1008000080935C0101C08081FF91EF919F918F9156
:100810002F910F900FBE0F901F9018951F920F925F
:100820000FB60F9211242F933F934F935F936F93C3
:100830007F938F939F93AF93BF93EF93FF93809199
:1008400025018F5F8093250120912501809126014C
:1008500090E0FC01EE0FFF1F8E0F9F1FFC01E85D73
:10086000FE4F818128130FC08091260190E0FC018A
:10087000EE0FFF1F8E0F9F1FFC01E85DFE4F828170
:100880008093B20065C0209125018091260190E0FF
:10089000FC01EE0FFF1F8E0F9F1FFC01E85DFE4F56
:1008A0008181821708F054C08091260190E0FC01FC
:1008B000EE0FFF1F8E0F9F1FFC01E85DFE4F808132
:1008C00085FF10C08091260190E0FC01EE0FFF1F14
:1008D0008E0F9F1FFC01E85DFE4F808160E08F71ED
:1008E0000E94C300809126018F5F809326011092A1
:1008F00025011092B20080912601882319F1809180
:1009000026018930F8F48091260190E0FC01EE0F79
:10091000FF1F8E0F9F1FFC01E85DFE4F808185FF4A
:1009200017C08091260190E0FC01EE0FFF1F8E0F93
:100930009F1FFC01E85DFE4F808161E08F710E9486
:10094000C30006C080912601893010F01092260164
:10095000FF91EF91BF91AF919F918F917F916F9197
:100960005F914F913F912F910F900FBE0F901F906D
:100970001895109246011092450188EE93E0A0E090
:10098000B0E08093470190934801A0934901B09350
:100990004A0184E091E0909344018093430185EC07
:1009A00090E09093500180934F0184EC90E09093FD
:1009B00052018093510180EC90E090935401809318
:1009C000530181EC90E0909356018093550182ECA5
:1009D00090E0909358018093570186EC90E09093BB
:1009E0005A018093590110925C0110925D0110929E
:1009F0005E0110925F0189E090E09093E2018093A4
:100A0000E1018AE090E09093E4018093E30161E0EA
:100A100089E00E940F0161E08091E3010E940F01D3
:100A200085E090E09093E6018093E50186E090E018
:100A30009093E8018093E70161E085E00E940F0157
:100A400061E08091E7010E940F0161E084E00E9473
:100A50000F0160E083E00E940F0184E090E090933A
:100A6000EA018093E90183E090E09093EC018093A8
:100A7000EB0188EB9BE0A0E0B0E08093ED01909368
:100A8000EE01A093EF01B093F0018091E001883076
:100A900030F48F5F8093E0018093FD0102C01092DB
:100AA000FD0181E090E09093FF018093FE0180E9D9
:100AB00091E090930102809300020895789484B5A8
:100AC000826084BD84B5816084BD85B5826085BD4A
:100AD00085B5816085BD80916E00816080936E00D8
:100AE00010928100809181008260809381008091CA
:100AF000810081608093810080918000816080937B
:100B000080008091B10084608093B1008091B0003A
:100B100081608093B00080917A00846080937A0035
:100B200080917A00826080937A0080917A0081605F
:100B300080937A0080917A00806880937A00109286
:100B4000C100E0915301F091540182E08083E09173
:100B50004F01F09150011082E0915101F09152014A
:100B60008FEC808310925B01E0915701F091580166
:100B700086E08083E0915501F0915601808180618B
:100B80008083E0915501F0915601808188608083D7
:100B9000E0915501F0915601808180688083E09159
:100BA0005501F091560180818F7D808346E050E0B1
:100BB00060E171E083E491E00E94470242E050E08E
:100BC00067E171E083E491E00E9447026FE770E023
:100BD00085EE91E00E943E036FE770E081EE91E0C8
:100BE0000E943E0304EB10E010921B0110921A01C8
:100BF000C0911A01D0911B01C53BD1056CF40E9434
:100C00004B01CE010E9487000E9410022196D093D2
:100C10001B01C0931A01ECCF10931B0100931A0122
:100C2000C0911A01D0911B01D7FD0DC00E944B014C
:100C3000CE010E9487000E9410022197D0931B01D1
:100C4000C0931A01EDCF0E943403CECF052E97FB3F
:100C50001EF400940E943D0657FD07D00E944506F1
:100C600007FC03D04EF40C943D065095409530950A
:100C700021953F4F4F4F5F4F089590958095709508
:100C800061957F4F8F4F9F4F0895A1E21A2EAA1BA7
:100C9000BB1BFD010DC0AA1FBB1FEE1FFF1FA2172C
:100CA000B307E407F50720F0A21BB30BE40BF50B29
:100CB000661F771F881F991F1A9469F760957095B2
:100CC000809590959B01AC01BD01CF010895A29F35
:100CD000B001B39FC001A39F700D811D1124911D10
:100CE000B29F700D811D1124911D08950E94670609
:100CF000B7FF0895821B930B0895EE0FFF1F059019
:100D0000F491E02D099481E090E0F8940C94880629
:040D1000F894FFCF85
:100D140000000000CB024702940272028602120312
:0A0D2400535441525421000D0A00FF
:00000001FF
