:100000000C945D000C9485000C9485000C94850084
:100010000C9485000C9485000C9485000C9485004C
:100020000C9485000C9485000C9485000C9485003C
:100030000C9485000C9485000C9485000C9485002C
:100040000C948B030C9485000C94FB030C94D50347
:100050000C9485000C9485000C9485000C9485000C
:100060000C9485000C94850000000008000201003B
:100070000003040700000000000000000000000072
:10008000250028002B0000000000240027002A0083
:10009000040404040404040402020202020203032E
:1000A0000303030301020408102040800102040836
:1000B00010200102040810202D0411241FBECFEFD0
:1000C000D8E0DEBFCDBF11E0A0E0B1E0E6EDFFE09B
:1000D00002C005900D92A035B107D9F722E0A0E546
:1000E000B1E001C01D92A232B207E1F710E0CDE508
:1000F000D0E004C02197FE010E94DE07CC35D10775
:10010000C9F70E9473040C94E9070C94000090E076
:10011000FC01EC55FF4F2491FC01E057FF4F849107
:10012000882399F090E0880F991FFC01EA57FF4F50
:10013000A591B491FC01E458FF4F859194918FB73C
:10014000F894EC91E22BEC938FBF089590E0FC01C2
:10015000E859FF4F3491FC01EC55FF4F2491FC010D
:10016000E057FF4FE491EE2309F43BC0332339F10C
:10017000333091F038F43130A9F0323001F584B5E4
:100180008F7D12C0373091F03830A1F03430B9F49F
:10019000809180008F7D03C0809180008F77809355
:1001A00080000DC084B58F7784BD09C08091B000F8
:1001B0008F7703C08091B0008F7D8093B000F0E016
:1001C000EE0FFF1FE458FF4FA591B4918FB7F8943D
:1001D000EC91611103C020952E2301C02E2B2C938E
:1001E0008FBF08958E3008F08E50877080648093A2
:1001F0007C0080917A00806480937A0080917A00FC
:1002000086FDFCCF809178002091790090E0922BC0
:1002100008953FB7F8948091690190916A01A09187
:100220006B01B0916C0126B5A89B05C02F3F19F05A
:100230000196A11DB11D3FBFBA2FA92F982F882766
:10024000820F911DA11DB11DBC01CD0142E0660FC1
:10025000771F881F991F4A95D1F708958F929F9213
:10026000AF92BF92CF92DF92EF92FF926B017C012F
:100270000E9409014B015C01C114D104E104F104A5
:10028000F1F00E940901DC01CB0188199909AA0942
:10029000BB09883E9340A105B10570F321E0C21A65
:1002A000D108E108F10888EE880E83E0981EA11CB1
:1002B000B11CC114D104E104F10419F7DDCFFF90A2
:1002C000EF90DF90CF90BF90AF909F908F90089568
:1002D000CF92DF92EF92FF920F931F93CF93DF9312
:1002E0006C017A018B01C0E0D0E0CE15DF0589F00A
:1002F000D8016D918D01D601ED91FC910190F081B5
:10030000E02DC6010995892B11F47E0102C02196CA
:10031000ECCFC701DF91CF911F910F91FF90EF902C
:10032000DF90CF900895FC01918D828D981761F038
:10033000828DDF01A80FB11D5D968C91928D9F5F1C
:100340009F73928F90E008958FEF9FEF0895FC01C7
:10035000918D828D981731F0828DE80FF11D858D7A
:1003600090E008958FEF9FEF0895FC01918D228D0D
:10037000892F90E0805C9F4F821B91098F73992792
:1003800008958DE691E00E94B50121E0892B09F4E2
:1003900020E0822F0895FC01848DDF01A80FB11D9C
:1003A000A35ABF4F2C91848D90E001968F739927AB
:1003B000848FA689B7892C93A089B1898C91806498
:1003C0008C93938D848D981306C00288F389E02D59
:1003D00080818F7D80830895EF92FF920F931F930A
:1003E000CF93DF93EC0181E0888F9B8D8C8D9813E8
:1003F00005C0E889F989808185FD24C0F62E0B8D22
:1004000010E00F5F1F4F0F731127E02E8C8DE81245
:100410000CC00FB607FCFACFE889F989808185FF07
:10042000F5CFCE010E94CB01F1CF8B8DFE01E80FFD
:10043000F11DE35AFF4FF0820B8FEA89FB8980811F
:10044000806207C0EE89FF896083E889F98980812D
:100450008064808381E090E0DF91CF911F910F91C4
:10046000FF90EF900895CF93DF93EC01888D882360
:10047000C9F0EA89FB89808185FD05C0A889B98911
:100480008C9186FD0FC00FB607FCF5CF808185FFEC
:10049000F2CFA889B9898C9185FFEDCFCE010E945A
:1004A000CB01E7CFDF91CF91089580E090E0892BD9
:1004B00029F00E94C10181110C94000008958EBDA5
:1004C00000000DB407FEFDCF8EB508959CB59F7D4D
:1004D0009CBD9CB5937F9CBD9CB59C7F9CBD9DB5F0
:1004E00091609DBD682F80910C020E94A6008091B2
:1004F0001E0290911F028230910538F0880F991FDB
:10050000880F991F05970197F1F7089580E00C94E3
:1005100066021F93CF93DF9300D0CDB7DEB76A8317
:1005200089830E94860289818F7180620E945F02A6
:10053000182F6A81862F0E945F0281E00E94660266
:10054000812F0F900F90DF91CF911F9108951F93EE
:10055000CF93DF931F92CDB7DEB789830E948602C7
:1005600089810E945F02182F81E00E946602812F1C
:100570000F90DF91CF911F9108951F93CF93DF9339
:100580001F92CDB7DEB789830E94860289818F7161
:100590000E945F028FEF0E945F02182F81E00E948D
:1005A0006602812F0F90DF91CF911F9108950F93D5
:1005B0001F93CF938C0186E00E94BD02C82FC77D98
:1005C0000230110531F4C0628BE990E0A0E0B0E0A8
:1005D0000DC00130110529F085E590E0A0E0B0E004
:1005E00005C0C86081E490E0A0E0B0E080931A020A
:1005F00090931B02A0931C02B0931D026C2F86E007
:100600000E94890286E00E94BD0291E08C1390E076
:10061000892FCF911F910F910895009769F0FC01E8
:1006200001900020E9F73197AF01481B590BBC013D
:100630008DE691E00C94680180E090E008958F923F
:100640009F92AF92BF920F931F93CF93DF93CDB73B
:10065000DEB7A1970FB6F894DEBF0FBECDBF19A2CB
:10066000423008F44AE08E010F5D1F4F842E912C1A
:10067000A12CB12CA50194010E94AD07E62FB90170
:10068000CA0101501109EA3014F4E05D01C0E95CCF
:10069000D801EC93232B242B252B61F7C8010E9452
:1006A0000D03A1960FB6F894DEBF0FBECDBFDF914C
:1006B000CF911F910F91BF90AF909F908F90089511
:1006C000CF92DF92EF92FF92CF93DF936B017C0189
:1006D000E0916D01F0916E010190F081E02D6DE2ED
:1006E0008DE691E00995EC0166277727CB016C191F
:1006F0007D098E099F094AE00E941F038C0F9D1FF0
:10070000DF91CF91FF90EF90DF90CF9008950C9400
:100710000D030E94E4071F920F920FB60F9211244F
:100720002F933F938F939F93AF93BF9380916501D6
:1007300090916601A0916701B091680130916401C8
:1007400023E0230F2D3720F40196A11DB11D05C014
:1007500026E8230F0296A11DB11D2093640180930A
:10076000650190936601A0936701B0936801809141
:10077000690190916A01A0916B01B0916C010196A1
:10078000A11DB11D8093690190936A01A0936B0133
:10079000B0936C01BF91AF919F918F913F912F9139
:1007A0000F900FBE0F901F9018951F920F920FB6CB
:1007B0000F9211242F933F934F935F936F937F93E7
:1007C0008F939F93AF93BF93EF93FF938DE691E049
:1007D0000E94CB01FF91EF91BF91AF919F918F91BB
:1007E0007F916F915F914F913F912F910F900FBE2D
:1007F0000F901F9018951F920F920FB60F92112411
:100800002F938F939F93EF93FF93E0917D01F0914E
:100810007E018081E0918301F091840182FD12C00C
:100820009081809186018F5F8F732091870182175D
:1008300051F0E0918601F0E0E359FE4F958F8093EF
:10084000860101C08081FF91EF919F918F912F913F
:100850000F900FBE0F901F901895EDE6F1E01382F8
:10086000128288EE93E0A0E0B0E084839583A683B3
:10087000B78384E091E09183808385EC90E0958755
:10088000848784EC90E09787868780EC90E0918B5A
:10089000808B81EC90E0938B828B82EC90E0958B47
:1008A000848B86EC90E0978B868B118E128E138E44
:1008B000148EEAE0F2E087E090E09183808388E0A4
:1008C00090E093838283168280E28783108685E09E
:1008D000868785E090E0A0E0B0E0848B958BA68BC6
:1008E000B78B11860895CF93DF93CDB7DEB72897E6
:1008F0000FB6F894DEBF0FBECDBF789484B582608A
:1009000084BD84B5816084BD85B5826085BD85B5B3
:10091000816085BD80916E00816080936E00109231
:1009200081008091810082608093810080918100AC
:10093000816080938100809180008160809380003D
:100940008091B10084608093B1008091B00081609B
:100950008093B00080917A00846080937A008091C7
:100960007A00826080937A0080917A00816080931F
:100970007A0080917A00806880937A001092C1009A
:10098000E0917D01F0917E0182E08083E091790128
:10099000F0917A011082E0917B01F0917C018FEC63
:1009A000808310928501E0918101F091820186E0BF
:1009B0008083E0917F01F09180018081806180835C
:1009C000E0917F01F0918001808188608083E091D7
:1009D0007F01F0918001808180688083E0917F01B8
:1009E000F091800180818F7D808380910A029091B7
:1009F0000B0220910C0230910D028217930711F027
:100A00000E94870080910C0290910D0220910A02B1
:100A100030910B022817390711F00E9487001FB789
:100A2000F89480915001811124C0EAE9F0E08491AA
:100A3000EEEAF0E09491E82FF0E0EE0FFF1FEA57A6
:100A4000FF4FA591B491EC91E92321F461E08AE094
:100A50000E94A6008AE00E9487008CB580618CBD50
:100A60008CB580648CBD8DE00E9487008BE00E9475
:100A70008700809150018F5F809350011FBF80914C
:100A80000A0290910B0220910C0230910D02821704
:100A9000930719F060E00E94A60081E00E946602C0
:100AA00065E070E080E090E00E942E016CE080E064
:100AB0000E9489026FE584E00E94890282E090E052
:100AC0000E94D702882319F081E08093100286E00B
:100AD0000E94BD0280E090E00E94D7020E94860240
:100AE00080E50E945F0283E70E945F0281E00E942E
:100AF000660260E08DE10E94890260E08CE10E9464
:100B000089021092120260E787E00E9489026CE479
:100B100085E00E94890282EE0E94A70281EE0E9477
:100B2000A70280E00E94BD0281FD0BC0682F6260B9
:100B300080E00E94890265E070E080E090E00E9421
:100B40002E0180E00E94BD02682F6E7F80E00E942F
:100B500089026CE685E00E94890280E090E00E94B4
:100B6000D70286E00E94BD02887F682F656086E01C
:100B70000E94890281EE898380EF8A838B8388EECD
:100B80008C838D831E821F821886D09018020E944B
:100B900086028AE20E945F028E010F5F1F4F78017A
:100BA000C02ED00EDE1431F0F70181917F010E943A
:100BB0005F02F8CF81E00E946602F09018020E9466
:100BC000860280E30E945F02FC0CF01631F0F8010F
:100BD00081918F010E945F02F8CF81E00E9466023E
:100BE0006091110281E10E94890280E191E00E94FE
:100BF0000D0386E191E00E940D0368EE73E080E052
:100C000090E00E942E0192E8C92ED12CE12CF12C0B
:100C1000BB24B39480E10E94F2009093630180931F
:100C2000620189E191E00E9487034AE060E170E09F
:100C300080E090E00E941F038FE00E94F2009093FA
:100C40005B0180935A0182E291E00E9487034AE0AF
:100C50006FE070E080E090E00E941F038EE00E9451
:100C6000F20090935901809358018DE291E00E9427
:100C700087034AE06EE070E080E090E00E941F038E
:100C800086E191E00E940D032091620130916301A1
:100C9000C901330FAA0BBB0B9C01AD012A5F3109BF
:100CA00041095109A8ECB0E00E94A207A7019601F2
:100CB0000E948307DA01C90184569109A109B1098B
:100CC000909363018093620120915A0130915B01FE
:100CD000C901330FAA0BBB0B9C01AD012A5F31097F
:100CE00041095109A8ECB0E00E94A207A7019601B2
:100CF0000E948307DA01C90184569109A109B1094B
:100D000090935B0180935A012091580130915901D1
:100D1000C901330FAA0BBB0B9C01AD012A5F31093E
:100D200041095109A8ECB0E00E94A207A701960171
:100D30000E948307DA01C90184569109A109B1090A
:100D4000909359018093580188E391E00E948703B2
:100D50006091620170916301072E000C880B990B62
:100D600097FF03C00E94600303C04AE00E941F0374
:100D70008EE391E00E94870384E491E00E94870360
:100D800060915A0170915B01072E000C880B990B42
:100D900097FF03C00E94600303C04AE00E941F0344
:100DA0008EE391E00E9487038AE491E00E9487032A
:100DB0006091580170915901072E000C880B990B16
:100DC00097FF03C00E94600303C04AE00E941F0314
:100DD00086E191E00E940D03409162015091630110
:100DE00050935D0140935C0120915A0130915B0169
:100DF00030935F0120935E018091580190915901D9
:100E00009093610180936001609152017091530150
:100E10004617570771F460915401709155012617D8
:100E2000370739F46091560170915701861797077B
:100E300071F0B0925101509353014093520130939D
:100E4000550120935401909357018093560180914E
:100E50005101882309F454C010911102012F173059
:100E600008F006E080911202811102C0101B01C03F
:100E700010E00E94860280EA0E945F028CE5882EC4
:100E800081E0982E015030F0F40181914F010E94D1
:100E90005F02F8CF112329F080E00E945F02115019
:100EA000F9CF81E00E94660280910A0290910B02C4
:100EB00020910C0230910D028217930719F061E026
:100EC0000E94A6008FEF0E94A7028073D9F3809141
:100ED0000A0290910B0220910C0230910D028217B0
:100EE000930719F060E00E94A60060E787E00E9487
:100EF000890284FF03C081EE0E94A7021092510173
:100F00000E94550287CE052E97FB1EF400940E9486
:100F10009A0757FD07D00E94AD0707FC03D04EF497
:100F20000C949A0750954095309521953F4F4F4F1F
:100F30005F4F089590958095709561957F4F8F4F85
:100F40009F4F08950E94CF07A59F900DB49F900DCD
:100F5000A49F800D911D11240895A1E21A2EAA1BB1
:100F6000BB1BFD010DC0AA1FBB1FEE1FFF1FA21759
:100F7000B307E407F50720F0A21BB30BE40BF50B56
:100F8000661F771F881F991F1A9469F760957095DF
:100F9000809590959B01AC01BD01CF010895A29F62
:100FA000B001B39FC001A39F700D811D1124911D3D
:100FB000B29F700D811D1124911D0895EE0FFF1F2A
:100FC0000590F491E02D099481E090E0F8940C9460
:060FD000E907F894FFCFD1
:100FD60000000000EC016801B5019301A70133028E
:100FE6005374617274000D0A005261775F58203D98
:100FF60020005F5F5261775F59203D20005F5F529E
:1010060061775F5A203D20004378203D2000202D47
:101016002D2D20004379203D2000437A203D2000DD
:00000001FF
