:100000000C9462000C948A000C948A000C948A0070
:100010000C948A000C948A000C948A000C948A0038
:100020000C948A000C948A000C948A000C948A0028
:100030000C948A000C948A000C948A000C948A0018
:100040000C94E7030C948A000C9457040C9431042C
:100050000C948A000C948A000C948A000C948A00F8
:100060000C948A000C948A000000000023002600F3
:10007000290000000000240027002A0000000000E2
:10008000250028002B0004040404040404040202D4
:100090000202020203030303030301020408102007
:1000A0004080010204081020010204081020000012
:1000B0000008000201000003040700000000000027
:1000C0000000890411241FBECFEFD8E0DEBFCDBFF2
:1000D00011E0A0E0B1E0E6EFFFE002C005900D9274
:1000E000AC34B107D9F722E0ACE4B1E001C01D9215
:1000F000AD31B207E1F710E0C2E6D0E004C02197CD
:10010000FE010E94EE07C136D107C9F70E94D5044F
:100110000C94F9070C940000833081F028F48130AE
:1001200099F08230A1F008958730A9F08830B9F0B5
:100130008430D1F4809180008F7D03C08091800055
:100140008F7780938000089584B58F7702C084B53F
:100150008F7D84BD08958091B0008F7703C080911A
:10016000B0008F7D8093B00008951F93CF93DF93ED
:10017000282F30E0F901E255FF4F8491F901E6564E
:10018000FF4FD491F901EA57FF4FC491CC23C9F036
:10019000162F81110E948C00EC2FF0E0EE0FFF1F54
:1001A000E458FF4FA591B4918FB7F894111105C091
:1001B0009C91ED2FE095E92302C0EC91ED2BEC939F
:1001C0008FBFDF91CF911F910895CF93DF9390E080
:1001D000FC01E656FF4F2491FC01EA57FF4F849142
:1001E000882361F190E0880F991FFC01EE58FF4FC2
:1001F000C591D491FC01E458FF4FA591B4916111D0
:1002000009C09FB7F8948881209582238883EC9158
:100210002E230BC0623061F49FB7F8943881822F8F
:10022000809583238883EC912E2B2C939FBF06C04F
:100230008FB7F894E8812E2B28838FBFDF91CF9161
:1002400008958E3008F08E508770806480937C0013
:1002500080917A00806480937A0080917A0086FD94
:10026000FCCF809178002091790090E0922B089546
:100270003FB7F8948091620190916301A09164016D
:10028000B091650126B5A89B05C02F3F19F00196D6
:10029000A11DB11D3FBFBA2FA92F982F8827820F0C
:1002A000911DA11DB11DBC01CD0142E0660F771F5C
:1002B000881F991F4A95D1F708958F929F92AF9208
:1002C000BF92CF92DF92EF92FF926B017C010E946E
:1002D00038014B015C01C114D104E104F104F1F0D7
:1002E0000E943801DC01CB0188199909AA09BB09D0
:1002F000883E9340A105B10570F321E0C21AD108F0
:10030000E108F10888EE880E83E0981EA11CB11C5C
:10031000C114D104E104F10419F7DDCFFF90EF908F
:10032000DF90CF90BF90AF909F908F900895CF9225
:10033000DF92EF92FF920F931F93CF93DF936C01A5
:100340007A018B01C0E0D0E0CE15DF0589F0D8013D
:100350006D918D01D601ED91FC910190F081E02D20
:10036000C6010995892B11F47E0102C02196ECCFBC
:10037000C701DF91CF911F910F91FF90EF90DF9018
:10038000CF900895FC01918D828D981761F0828D38
:10039000DF01A80FB11D5D968C91928D9F5F9F73B9
:1003A000928F90E008958FEF9FEF0895FC01918D5B
:1003B000828D981731F0828DE80FF11D858D90E0C8
:1003C00008958FEF9FEF0895FC01918D228D892F65
:1003D00090E0805C9F4F821B91098F73992708954D
:1003E00086E691E00E94E40121E0892B09F420E0F7
:1003F000822F0895FC01848DDF01A80FB11DA35A3F
:10040000BF4F2C91848D90E001968F739927848F34
:10041000A689B7892C93A089B1898C9180648C932B
:10042000938D848D981306C00288F389E02D808116
:100430008F7D80830895EF92FF920F931F93CF9348
:10044000DF93EC0181E0888F9B8D8C8D981305C024
:10045000E889F989808185FD24C0F62E0B8D10E096
:100460000F5F1F4F0F731127E02E8C8DE8120CC009
:100470000FB607FCFACFE889F989808185FFF5CFAF
:10048000CE010E94FA01F1CF8B8DFE01E80FF11D24
:10049000E35AFF4FF0820B8FEA89FB8980818062EB
:1004A00007C0EE89FF896083E889F98980818064CB
:1004B000808381E090E0DF91CF911F910F91FF90B9
:1004C000EF900895CF93DF93EC01888D8823C9F0D6
:1004D000EA89FB89808185FD05C0A889B9898C914D
:1004E00086FD0FC00FB607FCF5CF808185FFF2CFE8
:1004F000A889B9898C9185FFEDCFCE010E94FA01C0
:10050000E7CFDF91CF91089580E090E0892B29F02B
:100510000E94F00181110C94000008958EBD00002E
:100520000DB407FEFDCF8EB50895009769F0FC016C
:1005300001900020E9F73197AF01481B590BBC012E
:1005400086E691E00C94970180E090E00895CF93C7
:10055000DF930E949502EC0180E191E00E949502F8
:100560008C0F9D1FDF91CF9108958F929F92AF9234
:10057000BF920F931F93CF93DF93CDB7DEB7A197B1
:100580000FB6F894DEBF0FBECDBF19A2423008F4FB
:100590004AE08E010F5D1F4F842E912CA12CB12CAF
:1005A000A50194010E94BD07E62FB901CA010150BF
:1005B0001109EA3014F4E05D01C0E95CD801EC9364
:1005C000232B242B252B61F7C8010E949502A196AD
:1005D0000FB6F894DEBF0FBECDBFDF91CF911F9154
:1005E0000F91BF90AF909F908F900895CF92DF9220
:1005F000EF92FF92CF93DF936B017C01E091660154
:10060000F09167010190F081E02D6DE286E691E0C6
:100610000995EC0166277727CB016C197D098E09B6
:100620009F094AE00E94B5028C0F9D1FDF91CF9178
:10063000FF90EF90DF90CF9008959CB59F7D9CBD7B
:100640009CB5937F9CBD9CB59C7F9CBD9DB59160E6
:100650009DBD682F809107020E94B500809119020C
:1006600090911A028230910538F0880F991F880FF7
:10067000991F05970197F1F7089581E00C941D03E8
:100680001F93CF93DF931F92CDB7DEB7182F80E073
:1006900069830E941D03812F8F7180620E948E02E8
:1006A000182F6981862F0E948E020E943D03812FA0
:1006B0000F90DF91CF911F9108951F93CF93DF93F8
:1006C0001F92CDB7DEB7182F80E00E941D03812F47
:1006D0000E948E0289830E943D0389810F90DF91E1
:1006E000CF911F9108951F93CF93DF931F92CDB7A2
:1006F000DEB7182F80E00E941D03812F8F710E94AA
:100700008E028FEF0E948E0289830E943D038981B1
:100710000F90DF91CF911F9108950F931F93CF9367
:100720008C0186E00E947303C82FC77D023011053B
:1007300031F4C0628BE990E0A0E0B0E00DC0013080
:10074000110529F085E590E0A0E0B0E005C0C860A3
:1007500081E490E0A0E0B0E080931502909316024F
:10076000A0931702B09318026C2F86E00E944003FA
:1007700086E00E94730391E08C1390E0892FCF9163
:100780001F910F910895CF93DF93BC01990F880BB0
:10079000990B97FF03C00E94F60203C04AE00E9433
:1007A000B502EC0180E191E00E9495028C0F9D1F43
:1007B000DF91CF910895BC01990F880B990B97FD9C
:1007C0000C94F6024AE00C94B5020E94F4071F92C2
:1007D0000F920FB60F9211242F933F938F939F93F5
:1007E000AF93BF9380915E0190915F01A0916001F2
:1007F000B091610130915D0123E0230F2D3720F48A
:100800000196A11DB11D05C026E8230F0296A11D6A
:10081000B11D20935D0180935E0190935F01A093D1
:100820006001B09361018091620190916301A09198
:100830006401B09165010196A11DB11D8093620113
:1008400090936301A0936401B0936501BF91AF9150
:100850009F918F913F912F910F900FBE0F901F90FE
:1008600018951F920F920FB60F9211242F933F935A
:100870004F935F936F937F938F939F93AF93BF93A8
:10088000EF93FF9386E691E00E94FA01FF91EF91CA
:10089000BF91AF919F918F917F916F915F914F9198
:1008A0003F912F910F900FBE0F901F9018951F92A0
:1008B0000F920FB60F9211242F938F939F93EF9364
:1008C000FF93E0917601F09177018081E0917C01C6
:1008D000F0917D0182FD12C0908180917F018F5F38
:1008E0008F7320918001821751F0E0917F01F0E039
:1008F000EA59FE4F958F80937F0101C08081FF915F
:10090000EF919F918F912F910F900FBE0F901F909D
:100910001895E6E6F1E01382128288EE93E0A0E0FB
:10092000B0E084839583A683B78384E091E09183CC
:10093000808385EC90E09587848784EC90E09787AE
:10094000868780EC90E0918B808B81EC90E0938B9C
:10095000828B82EC90E0958B848B86EC90E0978B79
:10096000868B118E128E138E148EE5E0F2E087E0F6
:1009700090E09183808388E090E093838283168265
:1009800080E28783108685E0868785E090E0A0E09E
:10099000B0E0848B958BA68BB78B118684E091E0B9
:1009A00090930402809303020895CF93DF93CDB711
:1009B000DEB728970FB6F894DEBF0FBECDBF789490
:1009C00084B5826084BD84B5816084BD85B5826054
:1009D00085BD85B5816085BD80916E008160809305
:1009E0006E0010928100809181008260809381006E
:1009F000809181008160809381008091800081607E
:100A0000809380008091B10084608093B1008091D8
:100A1000B00081608093B00080917A008460809300
:100A20007A0080917A00826080937A0080917A00C7
:100A3000816080937A0080917A00806880937A0048
:100A40001092C100E0917601F091770182E08083FD
:100A5000E0917201F09173011082E0917401F091C4
:100A600075018FEC808310927E01E0917A01F09104
:100A70007B0186E08083E0917801F09179018081AB
:100A800080618083E0917801F091790180818860B4
:100A90008083E0917801F091790180818068808382
:100AA000E0917801F091790180818F7D808362E00F
:100AB00082E00E94E500809105029091060220915B
:100AC0000702309108028217930719F061E00E9433
:100AD000E500809107029091080220910502309173
:100AE00006022817390719F061E00E94E5001FB7D8
:100AF000F89480914C01811127C0E0E9F0E08491E5
:100B0000E4EAF0E09491E82FF0E0EE0FFF1FEE58DA
:100B1000FF4FA591B491EC91E92321F461E08AE0C3
:100B20000E94B50061E08AE00E94E5008CB580611A
:100B30008CBD8CB580648CBD61E08DE00E94E500C9
:100B400061E08BE00E94E50080914C018F5F809313
:100B50004C011FBF8091050290910602209107026F
:100B6000309108028217930719F060E00E94B500E7
:100B700081E00E941D0365E070E080E090E00E944B
:100B80005D016CE080E00E9440036FE584E00E941C
:100B9000400382E090E00E948D03882319F081E0F9
:100BA00080930B0286E00E94730380E090E00E9435
:100BB0008D0380E00E941D0380E50E948E0283E782
:100BC0000E948E020E943D0360E08DE10E9440037E
:100BD00060E08CE10E94400310920D0260E787E024
:100BE0000E9440036CE485E00E94400382EE0E9474
:100BF0005D0381EE0E945D0380E00E94730381FD2E
:100C00000BC0682F626080E00E94400365E070E0E6
:100C100080E090E00E945D0180E00E947303682FF5
:100C20006E7F80E00E9440036CE685E00E944003F6
:100C300080E090E00E948D0386E00E947303887F2D
:100C4000682F656086E00E94400381EE898380EF13
:100C50008A838B8388EE8C838D831E821F82188605
:100C6000D090130280E00E941D038AE20E948E024F
:100C70008E010F5F1F4F7801C02ED00EDE1431F0B1
:100C8000F70181917F010E948E02F8CF0E943D03FF
:100C9000F090130280E00E941D0380E30E948E0208
:100CA000FC0CF01631F0F80181918F010E948E0248
:100CB000F8CF0E943D0360910C0281E10E94400345
:100CC00083E191E00E94A70268EE73E080E090E08B
:100CD0000E945D0120E9422E55245394612C712C11
:100CE00080E10E9421011C019093520180935101E7
:100CF0008FE00E9421018C019093500180934F015D
:100D00008EE00E94210190934E0180934D01C0908E
:100D10000302D09004020D2C000CEE08FF085301D2
:100D200042018C189D08AE08BF08C101330CAA0B04
:100D3000BB0B9C01AD012C193D094E095F09A0EACE
:100D4000B0E00E94AA07A50194010E948B07DA0176
:100D5000C90180559109A109B10990935C01809363
:100D60005B01C801110FAA0BBB0B9C01AD012C1933
:100D70003D094E095F09A0E6BFEF0E94B807A50133
:100D800094010E948B07DA01C901805B9F4FAF4F2E
:100D9000BF4F9093540180935301E0EBF0E08491B6
:100DA000ECE9F0E00491E8E8F0E01491112309F493
:100DB0008CC081110E948C00E12FF0E0EE0FFF1F2C
:100DC000E859FF4FA591B4918C91082309F47DC097
:100DD00080915B0190915C010E94DB0389E191E0CD
:100DE0000E94950280915301909154010E94C30387
:100DF00080915B0190915C01909356018093550125
:100E00008091530190915401909358018093570120
:100E100010925A011092590110910C02012F1730B3
:100E200008F006E080910D02811102C0101B01C084
:100E300010E080E00E941D0380EA0E948E0285E59A
:100E4000E82E81E0F82E015030F0F70181917F010A
:100E50000E948E02F8CF112329F080E00E948E02BA
:100E60001150F9CF0E943D03809105029091060236
:100E700020910702309108028217930719F061E070
:100E80000E94B5008FEF0E945D038073D9F38091BB
:100E90000502909106022091070230910802821704
:100EA000930719F060E00E94B50060E787E00E94B8
:100EB000400384FF2DC081EE0E945D038BE191E031
:100EC0000E94A7020E9484020BCF81E291E00E945F
:100ED000950280915B0190915C010E94DB038AE2A4
:100EE00091E00E94950280915301909154010E94DB
:100EF000DB0385E391E00E94950280E090E00E9490
:100F0000C30368EE73E080E090E00E945D0160CF73
:100F100080E491E0D5CF052E97FB1EF400940E944B
:100F2000A20757FD07D00E94BD0707FC03D04EF46F
:100F30000C94A20750954095309521953F4F4F4F07
:100F40005F4F089590958095709561957F4F8F4F75
:100F50009F4F08950E94DF07A59F900DB49F900DAD
:100F6000A49F800D911D11240895B7FF0C94AA072A
:100F70000E94AA07821B930B0895A1E21A2EAA1BB6
:100F8000BB1BFD010DC0AA1FBB1FEE1FFF1FA21739
:100F9000B307E407F50720F0A21BB30BE40BF50B36
:100FA000661F771F881F991F1A9469F760957095BF
:100FB000809590959B01AC01BD01CF010895A29F42
:100FC000B001B39FC001A39F700D811D1124911D1D
:100FD000B29F700D811D1124911D0895EE0FFF1F0A
:100FE0000590F491E02D099481E090E0F8940C9440
:060FF000F907F894FFCFA1
:100FF600000000001B029701E401C201D601620253
:101006000D0A005374617274002C004661696C21EC
:10101600005261775F58203D20005F5F5261775F25
:1010260059203D20005F5F5261775F5A203D2000C6
:0C103600446174612073656E7421000039
:00000001FF
