:100000000C945D000C9485000C9485000C94850084
:100010000C9485000C9485000C9485000C9485004C
:100020000C9485000C9485000C9485000C9485003C
:100030000C9485000C9485000C9485000C9485002C
:100040000C9480030C9485000C94F0030C94CA0368
:100050000C9485000C9485000C9485000C9485000C
:100060000C9485000C94850000000008000201003B
:100070000003040700000000000000000000000072
:10008000250028002B0000000000240027002A0083
:10009000040404040404040402020202020203032E
:1000A0000303030301020408102040800102040836
:1000B0001020010204081020220411241FBECFEFDB
:1000C000D8E0DEBFCDBF11E0A0E0B1E0E6E0FFE0A8
:1000D00002C005900D92AC31B107D9F721E0ACE137
:1000E000B1E001C01D92A43FB207E1F710E0CDE5F9
:1000F000D0E004C02197FE010E947607CC35D107DD
:10010000C9F70E946E040C9481070C94000090E0E3
:10011000FC01EC55FF4F2491FC01E057FF4F849107
:10012000882399F090E0880F991FFC01EA57FF4F50
:10013000A591B491FC01E458FF4F859194918FB73C
:10014000F894EC91E22BEC938FBF089590E0FC01C2
:10015000E859FF4F3491FC01EC55FF4F2491FC010D
:10016000E057FF4FE491EE2309F43BC0332339F10C
:10017000333091F038F43130A9F0323001F584B5E4
:100180008F7D12C0373091F03830A1F03430B9F49F
:10019000809180008F7D03C0809180008F77809355
:1001A00080000DC084B58F7784BD09C08091B000F8
:1001B0008F7703C08091B0008F7D8093B000F0E016
:1001C000EE0FFF1FE458FF4FA591B4918FB7F8943D
:1001D000EC91611103C020952E2301C02E2B2C938E
:1001E0008FBF08958E3008F08E50877080648093A2
:1001F0007C0080917A00806480937A0080917A00FC
:1002000086FDFCCF809178002091790090E0922BC0
:1002100008953FB7F8948091390190913A01A091E7
:100220003B01B0913C0126B5A89B05C02F3F19F0BA
:100230000196A11DB11D3FBFBA2FA92F982F882766
:10024000820F911DA11DB11DBC01CD0142E0660FC1
:10025000771F881F991F4A95D1F708958F929F9213
:10026000AF92BF92CF92DF92EF92FF926B017C012F
:100270000E9409014B015C01C114D104E104F104A5
:10028000F1F00E940901DC01CB0188199909AA0942
:10029000BB09883E9340A105B10570F321E0C21A65
:1002A000D108E108F10888EE880E83E0981EA11CB1
:1002B000B11CC114D104E104F10419F7DDCFFF90A2
:1002C000EF90DF90CF90BF90AF909F908F90089568
:1002D000CF92DF92EF92FF920F931F93CF93DF9312
:1002E0006C017A018B01C0E0D0E0CE15DF0589F00A
:1002F000D8016D918D01D601ED91FC910190F081B5
:10030000E02DC6010995892B11F47E0102C02196CA
:10031000ECCFC701DF91CF911F910F91FF90EF902C
:10032000DF90CF900895FC01918D828D981761F038
:10033000828DDF01A80FB11D5D968C91928D9F5F1C
:100340009F73928F90E008958FEF9FEF0895FC01C7
:10035000918D828D981731F0828DE80FF11D858D7A
:1003600090E008958FEF9FEF0895FC01918D228D0D
:10037000892F90E0805C9F4F821B91098F73992792
:1003800008958DE391E00E94B50121E0892B09F4E5
:1003900020E0822F0895FC01848DDF01A80FB11D9C
:1003A000A35ABF4F2C91848D90E001968F739927AB
:1003B000848FA689B7892C93A089B1898C91806498
:1003C0008C93938D848D981306C00288F389E02D59
:1003D00080818F7D80830895EF92FF920F931F930A
:1003E000CF93DF93EC0181E0888F9B8D8C8D9813E8
:1003F00005C0E889F989808185FD24C0F62E0B8D22
:1004000010E00F5F1F4F0F731127E02E8C8DE81245
:100410000CC00FB607FCFACFE889F989808185FF07
:10042000F5CFCE010E94CB01F1CF8B8DFE01E80FFD
:10043000F11DE35AFF4FF0820B8FEA89FB8980811F
:10044000806207C0EE89FF896083E889F98980812D
:100450008064808381E090E0DF91CF911F910F91C4
:10046000FF90EF900895CF93DF93EC01888D882360
:10047000C9F0EA89FB89808185FD05C0A889B98911
:100480008C9186FD0FC00FB607FCF5CF808185FFEC
:10049000F2CFA889B9898C9185FFEDCFCE010E945A
:1004A000CB01E7CFDF91CF91089580E090E0892BD9
:1004B00029F00E94C10181110C94000008958EBDA5
:1004C00000000DB407FEFDCF8EB50895009769F0CA
:1004D000FC0101900020E9F73197AF01481B590B4F
:1004E000BC018DE391E00C94680180E090E00895F8
:1004F0008F929F92AF92BF920F931F93CF93DF93F0
:10050000CDB7DEB7A1970FB6F894DEBF0FBECDBF53
:1005100019A2423008F44AE08E010F5D1F4F842E6D
:10052000912CA12CB12CA50194010E944507E62F26
:10053000B901CA0101501109EA3014F4E05D01C0AB
:10054000E95CD801EC93232B242B252B61F7C80100
:100550000E946602A1960FB6F894DEBF0FBECDBF13
:10056000DF91CF911F910F91BF90AF909F908F908F
:100570000895CF92DF92EF92FF92CF93DF936B01BA
:100580007C01E0913D01F0913E010190F081E02D70
:100590006DE28DE391E00995EC0166277727CB01A9
:1005A0006C197D098E099F094AE00E9478028C0F20
:1005B0009D1FDF91CF91FF90EF90DF90CF90089536
:1005C0009CB59F7D9CBD9CB5937F9CBD9CB59C7F3D
:1005D0009CBD9DB591609DBD682F8091DE010E94FC
:1005E000A6008091F0019091F1018230910538F0E0
:1005F000880F991F880F991F05970197F1F70895A4
:1006000080E00C94E0021F93CF93DF931F92CDB74D
:10061000DEB789830E94000389818F710E945F0287
:100620008FEF0E945F02182F81E00E94E002812F6D
:100630000F90DF91CF911F9108951F93CF93DF9378
:1006400000D0CDB7DEB76A8389830E940003898119
:100650008F7180620E945F02182F6A81862F0E942C
:100660005F0281E00E94E002812F0F900F90DF91E6
:10067000CF911F9108950F931F93CF938C0186E024
:100680000E940303C82FC77D0230110531F4C062F8
:100690008BE990E0A0E0B0E00DC00130110529F039
:1006A00085E590E0A0E0B0E005C0C86081E490E09E
:1006B000A0E0B0E08093EC019093ED01A093EE01F7
:1006C000B093EF016C2F86E00E941D0386E00E942C
:1006D000030391E08C1390E0892FCF911F910F912C
:1006E0000895CF930E94000381EE0E945F02C82FFD
:1006F00081E00E94E0028C2FCF9108950E947C0738
:100700001F920F920FB60F9211242F933F938F9346
:100710009F93AF93BF938091350190913601A09143
:100720003701B09138013091340123E0230F2D3788
:1007300020F40196A11DB11D05C026E8230F0296E5
:10074000A11DB11D20933401809335019093360192
:10075000A0933701B09338018091390190913A010B
:10076000A0913B01B0913C010196A11DB11D809368
:10077000390190933A01A0933B01B0933C01BF91A2
:10078000AF919F918F913F912F910F900FBE0F903E
:100790001F9018951F920F920FB60F9211242F934E
:1007A0003F934F935F936F937F938F939F93AF93F9
:1007B000BF93EF93FF938DE391E00E94CB01FF91F4
:1007C000EF91BF91AF919F918F917F916F915F91C9
:1007D0004F913F912F910F900FBE0F901F90189542
:1007E0001F920F920FB60F9211242F938F939F9306
:1007F000EF93FF93E0914D01F0914E018081E091E4
:100800005301F091540182FD12C0908180915601F4
:100810008F5F8F7320915701821751F0E09156013D
:10082000F0E0E35CFE4F958F8093560101C080811C
:10083000FF91EF919F918F912F910F900FBE0F908D
:100840001F901895EDE3F1E01382128288EE93E099
:10085000A0E0B0E084839583A683B78384E091E031
:100860009183808385EC90E09587848784EC90E089
:100870009787868780EC90E0918B808B81EC90E06D
:10088000938B828B82EC90E0958B848B86EC90E04E
:10089000978B868B118E128E138E148EECEDF1E0F9
:1008A00087E090E09183808388E090E09383828367
:1008B000168280E28783108685E0868785E090E057
:1008C000A0E0B0E0848B958BA68BB78B118684E07B
:1008D00091E09093DB018093DA010895CF93DF9349
:1008E000CDB7DEB728970FB6F894DEBF0FBECDBFE9
:1008F000789484B5826084BD84B5816084BD85B5FB
:10090000826085BD85B5816085BD80916E00816006
:1009100080936E00109281008091810082608093AC
:1009200081008091810081608093810080918000AE
:100930008160809380008091B10084608093B100D9
:100940008091B00081608093B00080917A008460D3
:1009500080937A0080917A00826080937A008091FF
:100960007A00816080937A0080917A008068809319
:100970007A001092C100E0914D01F0914E0182E0A9
:100980008083E0914901F0914A011082E0914B018E
:10099000F0914C018FEC808310925501E091510150
:1009A000F091520186E08083E0914F01F091500177
:1009B000808180618083E0914F01F09150018081BE
:1009C00088608083E0914F01F091500180818068C0
:1009D0008083E0914F01F091500180818F7D808371
:1009E0008091DC019091DD012091DE013091DF01E9
:1009F0008217930711F00E9487008091DE01909189
:100A0000DF012091DC013091DD012817390711F059
:100A10000E9487001FB7F89480911C01811124C0A7
:100A2000EAE9F0E08491EEEAF0E09491E82FF0E05A
:100A3000EE0FFF1FEA57FF4FA591B491EC91E92308
:100A400021F461E08AE00E94A6008AE00E9487000B
:100A50008CB580618CBD8CB580648CBD8DE00E94AE
:100A600087008BE00E94870080911C018F5F80933C
:100A70001C011FBF8091DC019091DD012091DE01FE
:100A80003091DF018217930719F060E00E94A60001
:100A900081E00E94E00265E070E080E090E00E946A
:100AA0002E016CE080E00E941D036FE584E00E944F
:100AB0001D0382E090E00E943B03882319F081E04F
:100AC0008093E20186E00E94030380E090E00E94B0
:100AD0003B030E94000380E50E945F0283E70E94BF
:100AE0005F0281E00E94E00260E08DE10E941D0350
:100AF00060E08CE10E941D031092E40160E787E052
:100B00000E941D036CE485E00E941D030E94000307
:100B100082EE0E945F0281E00E94E0020E94710367
:100B200080E00E94030381FD0BC0682F626080E0BB
:100B30000E941D0365E070E080E090E00E942E01BD
:100B400080E00E940303682F6E7F80E00E941D03F7
:100B50006CE685E00E941D0380E090E00E943B036C
:100B600086E00E940303887F682F656086E00E940C
:100B70001D0381EE898380EF8A838B8388EE8C83CB
:100B80008D831E821F821886D090EA010E94000386
:100B90008AE20E945F028E010F5F1F4F7801C02E14
:100BA000D00EDE1431F0F70181917F010E945F02C7
:100BB000F8CF81E00E94E002F090EA010E94000379
:100BC00080E30E945F02FC0CF01631F0F801819185
:100BD0008F010E945F02F8CF81E00E94E0026091E5
:100BE000E30181E10E941D0380E191E00E94660221
:100BF00086E191E00E94660268EE73E080E090E09A
:100C00000E942E013324339480E10E94F2007C0183
:100C100090932201809321018FE00E94F2008C01C9
:100C20009093200180931F018EE00E94F200909328
:100C30001E0180931D018090DA019090DB01092C48
:100C4000000CAA08BB0890E9492E55245394612C46
:100C5000712C481859086A087B08C701FF0CAA0BB9
:100C6000BB0B9C01AD01281939094A095B09A0EAAF
:100C7000B0E00E943A07A30192010E941B0769019C
:100C80007A01F0E5CF1AD108E108F108D0923301DA
:100C9000C0923201C801110FAA0BBB0B9C01AD0120
:100CA000281939094A095B09A0EAB0E00E943A070D
:100CB000A30192010E941B07DA01C9018055910925
:100CC000A109B10990932B0180932A01B601DD0C93
:100CD000880B990B97FF03C00E94B90203C04AE03A
:100CE0000E94780289E191E00E94660260912A01E7
:100CF00070912B01072E000C880B990B97FF03C0F6
:100D00000E94B90203C04AE00E94780286E191E0A5
:100D10000E946602209132013091330130932D01FF
:100D200020932C0180912A0190912B0190932F0107
:100D300080932E01109231011092300140912401D4
:100D4000509125012417350769F4409126015091EF
:100D500027018417950731F440912801509129010A
:100D6000452B71F03092230130932501209324010B
:100D70009093270180932601109229011092280157
:100D80001091E301012F173008F006E08091E40193
:100D9000811102C0101B01C010E00E94000380EA14
:100DA0000E945F028CE2E82E81E0F82E015030F0C4
:100DB000F70181917F010E945F02F8CF112329F092
:100DC00080E00E945F021150F9CF81E00E94E002B2
:100DD0008091DC019091DD012091DE013091DF01F5
:100DE0008217930719F061E00E94A6000E94000399
:100DF0008FEF0E945F02182F81E00E94E0021073C3
:100E0000A9F38091DC019091DD012091DE01309108
:100E1000DF018217930719F060E00E94A60060E7E7
:100E200087E00E941D0384FD0E947103109223013C
:100E30000E945502E9CE052E97FB1EF400940E94F5
:100E4000320757FD07D00E94450707FC03D04EF438
:100E50000C94320750954095309521953F4F4F4F58
:100E60005F4F089590958095709561957F4F8F4F56
:100E70009F4F08950E946707A59F900DB49F900D06
:100E8000A49F800D911D11240895A1E21A2EAA1B82
:100E9000BB1BFD010DC0AA1FBB1FEE1FFF1FA2172A
:100EA000B307E407F50720F0A21BB30BE40BF50B27
:100EB000661F771F881F991F1A9469F760957095B0
:100EC000809590959B01AC01BD01CF010895A29F33
:100ED000B001B39FC001A39F700D811D1124911D0E
:100EE000B29F700D811D1124911D0895EE0FFF1FFB
:100EF0000590F491E02D099481E090E0F8940C9431
:060F00008107F894FFCF09
:100F060000000000EC016801B5019301A70133025E
:0C0F16005374617274000D0A002C00007E
:00000001FF
