:100000000C945E000C9486000C9486000C94860080
:100010000C9486000C9486000C9486000C94860048
:100020000C9486000C9486000C9486000C94860038
:100030000C9486000C9486000C9486000C94860028
:100040000C94FB020C9486000C946B030C944503F7
:100050000C9486000C9486000C9486000C94860008
:100060000C9486000C9486000000000024002700F9
:100070002A0000000000250028002B0004040404CE
:100080000404040402020202020203030303030342
:10009000010204081020408001020408102001021F
:1000A00004081020000000080002010000030407FB
:1000B00000000000000000009D03490611241FBE3F
:1000C000CFEFD8E0DEBFCDBF11E0A0E0B1E0ECE8BB
:1000D000F1E102C005900D92A833B107D9F722E0F3
:1000E000A8E3B1E001C01D92A434B207E1F710E02B
:1000F000CDE5D0E004C02197FE010E947706CC3503
:10010000D107C9F70E9427040C94B9080C94000089
:1001100090E0FC01EC55FF4F3491FC01E057FF4F9C
:100120002491FC01E458FF4FE491EE2309F43BC015
:10013000332339F1333091F038F43130A9F03230D3
:1001400001F584B58F7D12C0373091F03830A1F0C1
:100150003430B9F4809180008F7D03C0809180009D
:100160008F77809380000DC084B58F7784BD09C0E0
:100170008091B0008F7703C08091B0008F7D809315
:10018000B000F0E0EE0FFF1FEE58FF4FA591B491C5
:100190008FB7F894EC91611103C020952E2301C014
:1001A0002E2B2C938FBF0895CF93DF9390E0FC010B
:1001B000E057FF4F2491FC01E458FF4F84918823BE
:1001C00061F190E0880F991FFC01E859FF4FC5913C
:1001D000D491FC01EE58FF4FA591B491611109C073
:1001E0009FB7F8948881209582238883EC912E23F1
:1001F0000BC0623061F49FB7F8943881822F8095EC
:1002000083238883EC912E2B2C939FBF06C08FB73E
:10021000F894E8812E2B28838FBFDF91CF9108952A
:100220001F93CF93DF93182FEB0161E00E94D4005E
:10023000209711F460E004C0CF3FD10539F461E0AC
:10024000812FDF91CF911F910C948800E12FF0E076
:10025000EC55FF4FE491E330F9F048F4E130B9F0A8
:10026000E230A1F584B5806284BDC8BD34C0E730FA
:10027000E9F0E83019F1E43049F5809180008062BE
:1002800080938000D0938B00C0938A0024C084B5F3
:10029000806884BDC7BD1FC0809180008068809346
:1002A0008000D0938900C093880015C08091B00071
:1002B00080688093B000C093B3000DC08091B000FF
:1002C00080628093B000C093B40005C0C038D105EF
:1002D0000CF0B5CFAFCFDF91CF911F910895CF92A2
:1002E000DF92EF92FF920F931F93CF93DF936C01F6
:1002F0007A018B01C0E0D0E0CE15DF0589F0D8018E
:100300006D918D01D601ED91FC910190F081E02D70
:10031000C6010995892B11F47E0102C02196ECCF0C
:10032000C701DF91CF911F910F91FF90EF90DF9068
:10033000CF900895FC01918D828D981761F0828D88
:10034000DF01A80FB11D5D968C91928D9F5F9F7309
:10035000928F90E008958FEF9FEF0895FC01918DAB
:10036000828D981731F0828DE80FF11D858D90E018
:1003700008958FEF9FEF0895FC01918D228D892FB5
:1003800090E0805C9F4F821B91098F73992708959D
:1003900084E491E00E94BC0121E0892B09F420E073
:1003A000822F0895FC01848DDF01A80FB11DA35A8F
:1003B000BF4F2C91848D90E001968F739927848F85
:1003C000A689B7892C93A089B1898C9180648C937C
:1003D000938D848D981306C00288F389E02D808167
:1003E0008F7D80830895EF92FF920F931F93CF9399
:1003F000DF93EC0181E0888F9B8D8C8D981305C075
:10040000E889F989808185FD24C0F62E0B8D10E0E6
:100410000F5F1F4F0F731127E02E8C8DE8120CC059
:100420000FB607FCFACFE889F989808185FFF5CFFF
:10043000CE010E94D201F1CF8B8DFE01E80FF11D9C
:10044000E35AFF4FF0820B8FEA89FB89808180623B
:1004500007C0EE89FF896083E889F989808180641B
:10046000808381E090E0DF91CF911F910F91FF9009
:10047000EF900895CF93DF93EC01888D8823C9F026
:10048000EA89FB89808185FD05C0A889B9898C919D
:1004900086FD0FC00FB607FCF5CF808185FFF2CF38
:1004A000A889B9898C9185FFEDCFCE010E94D20138
:1004B000E7CFDF91CF91089580E090E0892B29F07C
:1004C0000E94C80181110C94000008950F931F939E
:1004D000CF93DF938C016F3F710519F014F06FEF2C
:1004E00070E0EB0161307F4F14F4C1E0DFEF60E0BA
:1004F00070E0F801D7FD07C082810E941001BE01A3
:10050000F801808109C080810E9410016627772749
:100510006C1B7D0BF8018281DF91CF911F910F91B0
:100520000C9410018EBD00000DB407FEFDCF8EB5FA
:1005300008951F93CF93DF93809116028823A9F02B
:10054000E091180291E09E0F90931802F0E0EE0FF8
:10055000FF1FEF51FE4F3589268981508093160287
:100560009031C9F41092180216C09091F3019923AA
:1005700019F1E091F50181E08E0F8093F501F0E033
:10058000EF51FE4F128191509093F301803131F47D
:100590001092F50103C0832F922F15C08BE50E94A6
:1005A0009202282F30E0D22FCC27812F0E94920276
:1005B0009E01282BC90107C08AE50E949202282FBC
:1005C00030E010E0F0CFDF91CF911F9108950097B8
:1005D00069F0FC0101900020E9F73197AF01481B59
:1005E000590BBC0184E491E00C946F0180E090E031
:1005F00008950E9474081F920F920FB60F92112453
:100600002F933F938F939F93AF93BF93809140011C
:1006100090914101A0914201B091430130913F017D
:1006200023E0230F2D3720F40196A11DB11D05C035
:1006300026E8230F0296A11DB11D20933F01809350
:10064000400190934101A0934201B09343018091F6
:100650003B0190913C01A0913D01B0913E0101967A
:10066000A11DB11D80933B0190933C01A0933D01DE
:10067000B0933E01BF91AF919F918F913F912F9188
:100680000F900FBE0F901F9018951F920F920FB6EC
:100690000F9211242F933F934F935F936F937F9308
:1006A0008F939F93AF93BF93EF93FF9384E491E075
:1006B0000E94D201FF91EF91BF91AF919F918F91D5
:1006C0007F916F915F914F913F912F910F900FBE4E
:1006D0000F901F9018951F920F920FB60F92112432
:1006E0002F938F939F93EF93FF93E0915401F09199
:1006F00055018081E0915A01F0915B0182FD12C0A9
:10070000908180915D018F5F8F7320915E018217D0
:1007100051F0E0915D01F0E0EC5BFE4F958F80932E
:100720005D0101C08081FF91EF919F918F912F9189
:100730000F900FBE0F901F901895CF93DF93E4E4B6
:10074000F1E01382128288EE93E0A0E0B0E08483AF
:100750009583A683B7838AE091E09183808385ECBB
:1007600090E09587848784EC90E09787868780EC7B
:1007700090E0918B808B81EC90E0938B828B82EC6C
:1007800090E0958B848B86EC90E0978B868B118E16
:10079000128E138E148EC0E2D2E089E090E099832D
:1007A00088838AE090E09B838A8361E089E00E94ED
:1007B000D40061E08A810E94D40085E090E09D83AE
:1007C0008C8386E090E09F838E8361E085E00E94C9
:1007D000D40061E08E810E94D40061E084E00E9438
:1007E000D40060E083E00E94D40084E090E0998728
:1007F000888783E090E09B878A8788EB9BE0A0E076
:10080000B0E08C879D87AE87BF8781E090E09D8FA9
:100810008C8F80E991E09F8F8E8FC1EED1E01A8A94
:100820001B8A1C8A1DAA1EAA1FAA18AE1CAE1BAECC
:100830008EE190E090931F0280931E0288E691E083
:100840000E947D0699838883DF91CF910895CF938D
:10085000DF9300D01F92CDB7DEB7789484B5826065
:1008600084BD84B5816084BD85B5826085BD85B554
:10087000816085BD80916E00816080936E001092D2
:10088000810080918100826080938100809181004D
:1008900081608093810080918000816080938000DE
:1008A0008091B10084608093B1008091B00081603C
:1008B0008093B00080917A00846080937A00809168
:1008C0007A00826080937A0080917A0081608093C0
:1008D0007A0080917A00806880937A001092C1003B
:1008E000E0915401F091550182E08083E091500144
:1008F000F09151011082E0915201F09153018FEC7F
:10090000808310925C01E0915801F091590186E0DA
:100910008083E0915601F09157018081806180834E
:10092000E0915601F0915701808188608083E091C9
:100930005601F0915701808180688083E0915601D3
:10094000F091570180818F7D808386E191E00E9444
:10095000E7021FB7F89480913801811127C0E6E8BB
:10096000F0E08491EAE9F0E09491E82FF0E0EE0FF6
:10097000FF1FE859FF4FA591B491EC91E92321F4B1
:1009800061E08AE00E94880061E08AE00E94D40071
:100990008CB580618CBD8CB580648CBD61E08DE0D0
:1009A0000E94D40061E08BE00E94D4008091380165
:1009B0008F5F809338011FBF8CB58C7F81608CBDA9
:1009C0008DB58E7F8DBD9CE0392E2AE0A22EB12CF4
:1009D000CC24C394D12C2224239443E2842E912C42
:1009E0008091190281113DC0EE24EA94FE2C0E94F0
:1009F00099028C01009751F4EF2811F07801F7CF9C
:100A0000C4010197F1F71B821A8240C185359A4AC9
:100A100051F485E5E8168AEAF80681F710921B0280
:100A200010921A0220C006359AEA190751F4E5E53A
:100A3000EE16EAEAFE0611F7D0921B02C0921A02E5
:100A400012C00A3AF5E51F07C9F683E291E00E9459
:100A5000E7028BE291E00E94E70280E00E949202AE
:100A6000CDCF1092190210921D0210921C0280919B
:100A70001C0290911D028238910508F098C00E94D6
:100A800099028C0120911C0230911D0205358AEAE1
:100A9000180739F42092190210921B0210921A02C0
:100AA0000EC006359AEA190739F420921902D0923D
:100AB0001B02C0921A0203C00115110519F43B83F1
:100AC0002A8375C080911E0290911F02821793079E
:100AD000A0F44E9690931F0280931E02389EB001A0
:100AE000399E700D11248091E1019091E2010E94E4
:100AF000AA079093E2018093E10120911C023091BA
:100B00001D02329EC001339E900D1124E090E10140
:100B1000F090E201E80EF91E3701412C512C20E043
:100B200080911A0290911B02892B31F4253021F417
:100B3000F701138612860DC029830E949902480E80
:100B4000591EF301819391933F0129812F5F263034
:100B500039F70415150551F480911C0290911D027E
:100B6000019690931D0280931C0208C08EE291E0D2
:100B70000E94E7028BE291E00E94E7020E94990244
:100B80008535FAEA9F0729F410921B0210921A0287
:100B90006ECF86359A4A29F4D0921B02C0921A026F
:100BA00066CF80911C0290911D029B838A83EA810B
:100BB000FB81EF2B09F46AC08091390190913A01D1
:100BC000019690933A0180933901B5010E944F0636
:100BD000892B09F05BC0E091E101F091E201848191
:100BE00095818639910518F5828193819C01215563
:100BF00031092534310518F46CE470E011C08035FA
:100C0000910548F46CE470E084E292E00E94660290
:100C100066E670E01EC08739910500F166E670E077
:100C200084E292E00E9466026CE470E012C08639B1
:100C30009105A1F0828193818155910985349105B7
:100C400068F464EB7FEF84E292E00E94660264EB5A
:100C50007FEF80E292E00E94660218C060E070E0E0
:100C6000809126020E94100160E070E080912402D1
:100C70000E94100160E070E0809122020E94100149
:100C800060E070E0809120020E9410010E945C02EE
:100C9000A7CE8091E1019091E2010C94120797FB9D
:100CA000072E16F4009407D077FD09D00E94630642
:100CB00007FC05D03EF4909581959F4F089570955F
:100CC00061957F4F0895AA1BBB1B51E107C0AA1F66
:100CD000BB1FA617B70710F0A61BB70B881F991FDD
:100CE0005A95A9F780959095BC01CD010895EE0F16
:100CF000FF1F0590F491E02D0994CF93DF9382308C
:100D0000910510F482E090E0E0914202F0914302FC
:100D100020E030E0C0E0D0E0309711F14081518117
:100D200048175907C0F04817590761F48281938129
:100D3000209719F09B838A832BC090934302809362
:100D4000420226C02115310519F04217530718F445
:100D50009A01BE01DF01EF010280F381E02DDCCFBB
:100D60002115310509F1281B390B2430310590F488
:100D700012968D919C9113976115710521F0FB01DD
:100D80009383828304C09093430280934202FD01C7
:100D9000329644C0FD01E20FF31F819391932250DC
:100DA00031092D933C933AC0209140023091410289
:100DB000232B41F420910201309103013093410231
:100DC000209340022091000130910101211531054D
:100DD00041F42DB73EB74091040150910501241B09
:100DE000350BE0914002F0914102E217F307A0F4C5
:100DF0002E1B3F0B2817390778F0AC014E5F5F4F71
:100E00002417350748F04E0F5F1F5093410240935F
:100E100040028193919302C0E0E0F0E0CF01DF91C6
:100E2000CF9108950F931F93CF93DF93009709F409
:100E30008CC0FC0132971382128200914202109101
:100E400043020115110581F420813181820F931F26
:100E500020914002309141022817390779F5F0932B
:100E60004102E093400271C0D80140E050E0AE176B
:100E7000BF0750F412962D913C911397AD012115A7
:100E8000310509F1D901F3CF9D01DA0133832283C2
:100E900060817181860F971F8217930769F4EC01B7
:100EA00028813981260F371F2E5F3F4F31832083E2
:100EB0008A819B8193838283452B29F4F09343029B
:100EC000E093420242C01396FC93EE931297ED0119
:100ED000499159919E01240F351FE217F30771F4D0
:100EE00080819181840F951F029611969C938E9319
:100EF0008281938113969C938E931297E0E0F0E0A9
:100F0000D80112968D919C911397009719F0F801D2
:100F10008C01F6CF8D919C9198012E5F3F4F820FEF
:100F2000931F20914002309141022817390769F43C
:100F3000309729F4109243021092420202C01382A9
:100F400012821093410200934002DF91CF911F91D2
:100F50000F910895A0E0B0E0E0EBF7E00C94860874
:100F6000EC01009721F4CB010E947D06B8C0FC0182
:100F7000E60FF71F9C0122503109E217F30708F42E
:100F8000ACC0D9010D911C91119706171707B0F04D
:100F90000530110508F49FC0C8010497861797070C
:100FA00008F499C002501109061B170B0193119305
:100FB0006D937C93CF010E9412078DC05B01A01A34
:100FC000B10A4C01800E911EA0914202B0914302E1
:100FD00040E050E0E12CF12C109709F44AC0A8152C
:100FE000B905D1F56D907C901197630182E0C80E30
:100FF000D11CCA14DB0480F1A3014A195B096A0100
:1010000082E0C80ED11C1296BC9012971396AC9138
:10101000B5E0CB16D10440F0B282A3835183408364
:10102000D9016D937C930AC00E5F1F4FC301800FDF
:10103000911FF90191838083EB2DFA2FE114F104C4
:1010400031F0D7011396FC93EE93129744C0F093BE
:101050004302E09342023FC08D919C911197481743
:10106000590708F4AC017D0112960D90BC91A02D9A
:10107000B3CF809140029091410288159905E1F427
:1010800046175707C8F4809100019091010100971D
:1010900041F48DB79EB74091040150910501841B26
:1010A000950BE817F907C8F4F0934102E09340026A
:1010B000F901718360830FC0CB010E947D067C0122
:1010C000009759F0A801BE010E947908CE010E9444
:1010D0001207C70104C0CE0102C080E090E0CDB786
:1010E000DEB7EEE00C94A20881E090E0F8940C9456
:1010F000B908FB01DC0102C001900D924150504043
:10110000D8F708952F923F924F925F926F927F92FD
:101110008F929F92AF92BF92CF92DF92EF92FF9207
:101120000F931F93CF93DF93CDB7DEB7CA1BDB0BB3
:101130000FB6F894DEBF0FBECDBF09942A88398858
:1011400048885F846E847D848C849B84AA84B9845F
:10115000C884DF80EE80FD800C811B81AA81B9816B
:10116000CE0FD11D0FB6F894DEBF0FBECDBFED017F
:10117000089510E0CDE5D0E004C0FE010E9477069E
:0C1180002196CE35D107C9F7F894FFCFB7
:10118C0000004402800000000000F3016F01BC016C
:10119C009A01AE013A025374617274696E672E2E15
:1011AC002E0A0072656F72646572000D0A0063731B
:0811BC00206572726F720000E1
:00000001FF
