:100000000C9462000C948A000C948A000C948A0070
:100010000C948A000C948A000C948A000C948A0038
:100020000C948A000C948A000C948A000C948A0028
:100030000C948A000C948A000C948A000C948A0018
:100040000C9498020C948A000C9408030C94E2021D
:100050000C948A000C948A000C948A000C948A00F8
:100060000C948A000C948A000000000023002600F3
:10007000290000000000240027002A0000000000E2
:10008000250028002B0004040404040404040202D4
:100090000202020203030303030301020408102007
:1000A0004080010204081020010204081020000012
:1000B0000008000201000003040700000000000027
:1000C00000007F0311241FBECFEFD8E0DEBFCDBFFD
:1000D00011E0A0E0B1E0E0E8F0E102C005900D928F
:1000E000A232B107D9F721E0A2E2B1E001C01D922E
:1000F000AC3EB207E1F710E0C2E6D0E004C02197C1
:10010000FE010E943308C136D107C9F70E94F203ED
:100110000C943E080C94000090E0FC01E255FF4F67
:100120003491FC01E656FF4F2491FC01EA57FF4F42
:10013000E491EE2309F43BC0332339F1333091F0DD
:1001400038F43130A9F0323001F584B58F7D12C01A
:10015000373091F03830A1F03430B9F4809180001C
:100160008F7D03C0809180008F77809380000DC0C9
:1001700084B58F7784BD09C08091B0008F7703C0AC
:100180008091B0008F7D8093B000F0E0EE0FFF1FF4
:10019000E458FF4FA591B4918FB7F894EC91611199
:1001A00003C020952E2301C02E2B2C938FBF0895C2
:1001B000CF93DF9390E0FC01E656FF4F2491FC01C2
:1001C000EA57FF4F8491882361F190E0880F991FCF
:1001D000FC01EE58FF4FC591D491FC01E458FF4F4C
:1001E000A591B491611109C09FB7F89488812095B9
:1001F00082238883EC912E230BC0623061F49FB779
:10020000F8943881822F809583238883EC912E2B5C
:100210002C939FBF06C08FB7F894E8812E2B2883BC
:100220008FBFDF91CF9108953FB7F89480912B0154
:1002300090912C01A0912D01B0912E0126B5A89B83
:1002400005C02F3F19F00196A11DB11D3FBFBA2F68
:10025000A92F982F8827820F911DA11DB11DBC01C8
:10026000CD0142E0660F771F881F991F4A95D1F78D
:100270000895CF92DF92EF92FF920F931F93CF9347
:10028000DF936C017A018B01C0E0D0E0CE15DF0571
:1002900089F0D8016D918D01D601ED91FC9101900D
:1002A000F081E02DC6010995892B11F47E0102C071
:1002B0002196ECCFC701DF91CF911F910F91FF9055
:1002C000EF90DF90CF900895089580E090E008953A
:1002D000FC01538D448D252F30E0842F90E0821B4C
:1002E000930B541710F0CF96089501970895FC01D1
:1002F000918D828D981761F0828DDF01A80FB11D5D
:100300005D968C91928D9F5F9F73928F90E0089580
:100310008FEF9FEF0895FC01918D828D981731F03A
:10032000828DE80FF11D858D90E008958FEF9FEF8E
:100330000895FC01918D228D892F90E0805C9F4F64
:10034000821B91098F73992708958FE291E00E9493
:10035000990121E0892B09F420E0822F0895FC0106
:10036000848DDF01A80FB11DA35ABF4F2C91848D3E
:1003700090E001968F739927848FA689B7892C9373
:10038000A089B1898C9180648C93938D848D98130E
:1003900006C00288F389E02D80818F7D80830895D7
:1003A000EF92FF920F931F93CF93DF93EC0181E0C5
:1003B000888F9B8D8C8D981305C0E889F989808181
:1003C00085FD24C0F62E0B8D10E00F5F1F4F0F73BD
:1003D0001127E02E8C8DE8120CC00FB607FCFACF67
:1003E000E889F989808185FFF5CFCE010E94AF01B0
:1003F000F1CF8B8DFE01E80FF11DE35AFF4FF08224
:100400000B8FEA89FB898081806207C0EE89FF89B2
:100410006083E889F98980818064808381E090E04D
:10042000DF91CF911F910F91FF90EF900895CF939F
:10043000DF93EC01888D8823C9F0EA89FB898081EC
:1004400085FD05C0A889B9898C9186FD0FC00FB6BE
:1004500007FCF5CF808185FFF2CFA889B9898C91FF
:1004600085FFEDCFCE010E94AF01E7CFDF91CF91A5
:10047000089580E090E0892B29F00E94A501811168
:100480000C9400000895009769F0FC010190002091
:10049000E9F73197AF01481B590BBC018FE291E09E
:1004A0000C94390180E090E008958F929F92AF9272
:1004B000BF920F931F93CF93DF93CDB7DEB7A19772
:1004C0000FB6F894DEBF0FBECDBF19A2423008F4BC
:1004D0004AE08E010F5D1F4F842E912CA12CB12C70
:1004E000A50194010E941108E62FB901CA0101502B
:1004F0001109EA3014F4E05D01C0E95CD801EC9325
:10050000232B242B252B61F7C8010E944302A196BF
:100510000FB6F894DEBF0FBECDBFDF91CF911F9114
:100520000F91BF90AF909F908F9008950E943908CF
:100530001F920F920FB60F9211242F933F938F9318
:100540009F93AF93BF938091270190912801A09131
:100550002901B0912A013091260123E0230F2D3784
:1005600020F40196A11DB11D05C026E8230F0296B7
:10057000A11DB11D2093260180932701909328018E
:10058000A0932901B0932A0180912B0190912C0115
:10059000A0912D01B0912E010196A11DB11D809356
:1005A0002B0190932C01A0932D01B0932E01BF91AC
:1005B000AF919F918F913F912F910F900FBE0F9010
:1005C0001F9018951F920F920FB60F9211242F9320
:1005D0003F934F935F936F937F938F939F93AF93CB
:1005E000BF93EF93FF938FE291E00E94AF01FF91E1
:1005F000EF91BF91AF919F918F917F916F915F919B
:100600004F913F912F910F900FBE0F901F90189513
:100610001F920F920FB60F9211242F938F939F93D7
:10062000EF93FF93E0913F01F09140018081E091D1
:100630004501F091460182FD12C0908180914801F0
:100640008F5F8F7320914901821751F0E09148012B
:10065000F0E0E15DFE4F958F8093480101C08081FD
:10066000FF91EF919F918F912F910F900FBE0F905F
:100670001F901895CF92DF92EF92FF920F931F93E6
:10068000E82FF92F05C0015011092109310961F145
:10069000908196239417B9F305C0015011092109DF
:1006A000310911F1908196239413F7CFC12CD12CED
:1006B000E12CF12C0AC08FEFC81AD80AE80AF80A10
:1006C0000C151D052E053F0579F0808186238417C2
:1006D00091F36C2D7D2D8E2D9F2D1F910F91FF90ED
:1006E000EF90DF90CF90089560E070E080E090E0C0
:1006F0001F910F91FF90EF90DF90CF900895CF93CF
:10070000DF93EFE2F1E01382128288EE93E0A0E043
:10071000B0E084839583A683B78384E091E09183DE
:10072000808385EC90E09587848784EC90E09787C0
:10073000868780EC90E0918B808B81EC90E0938BAE
:10074000828B82EC90E0958B848B86EC90E0978B8B
:10075000868B118E128E138E148ECCECD1E089E034
:1007600090E0998388838AE090E09B838A8361E0AC
:1007700089E00E94D80061E08A810E94D80085E06B
:1007800090E09D838C8386E090E09F838E8361E080
:1007900085E00E94D80061E08E810E94D80061E06F
:1007A00084E00E94D80060E083E00E94D80084E0EA
:1007B00090E09987888783E090E09B878A8788EB21
:1007C0009BE0A0E0B0E08C879D87AE87BF8781E08B
:1007D00090E09D8F8C8F80E991E09F8F8E8FDF91CD
:1007E000CF910895789484B5826084BD84B581608A
:1007F00084BD85B5826085BD85B5816085BD8091EC
:100800006E00816080936E00109281008091810063
:10081000826080938100809181008160809381005B
:10082000809180008160809380008091B10084601D
:100830008093B1008091B00081608093B00080917E
:100840007A00846080937A0080917A00826080933D
:100850007A0080917A00816080937A0080917A009A
:10086000806880937A001092C100E0913F01F0917E
:10087000400182E08083E0913B01F0913C011082D5
:10088000E0913D01F0913E018FEC80831092470191
:10089000E0914301F091440186E08083E0914101C1
:1008A000F0914201808180618083E0914101F0916B
:1008B0004201808188608083E0914101F091420192
:1008C000808180688083E0914101F09142018081C4
:1008D0008F7D8083C3E0D0E023E2222E312C60E0C4
:1008E0008091D4010E948C00CE010197F1F761E064
:1008F0008091D4010E948C00C1010197F1F760E062
:100900008091D4010E948C008091D6019091D701F2
:100910009927FC01E656FF4F6491FC01EA57FF4F0F
:10092000E491F0E0EE0FFF1FE859FF4F859194919D
:100930000091D8011091D9012091DA013091DB01A9
:100940003F70462F0E943A0361157105810591059C
:1009500049F0DC01CB010196A11DB11DBC01CD0107
:100960009F7003C060E070E0CB010E94E8066093D6
:10097000DC017093DD018093DE019093DF0120E0C4
:1009800030E0A9010E944206811112C06091D80195
:100990007091D9018091DA019091DB010E94EA0601
:1009A0006093DC017093DD018093DE019093DF01A1
:1009B0002EEA37E44BEE51E46091DC017091DD01E9
:1009C0008091DE019091DF010E94470620E030E037
:1009D00040E05FE30E949F074B015C016093E001F0
:1009E0007093E1018093E2019093E3010E9414016E
:1009F0006B017C0184E6482E512C612C712C0E94E5
:100A00001401DC01CB018C199D09AE09BF09883E98
:100A10009340A105B10558F021E0421A5108610840
:100A2000710888EEC80E83E0D81EE11CF11C411449
:100A300051046104710419F78092220190922301FC
:100A4000A0922401B0922501A5019401C501B40131
:100A50000E940C08882319F082E191E01AC0240159
:100A60003501E89477F82FEF3FEF4FE75FE7C301D9
:100A7000B2010E940C0881110FC02FEF3FEF4FE72A
:100A80005FE7C301B2010E94420618162CF486E10A
:100A900091E00E94430282C02FEF3FEF4FE75FE4F7
:100AA000C501B4010E949A0718161CF48AE191E06E
:100AB000F0CF2FEF3FEF4FE75FECC501B4010E948D
:100AC000420687FDF3CF20E030E0A901C501B40163
:100AD0000E94420687FF0FC0E0912F01F091300184
:100AE0000190F081E02D6DE28FE291E00995B7FA77
:100AF000B094B7F8B0942AE037ED43EA5BE3C50160
:100B0000B4010E94D6052B013C010E94B9064B019D
:100B10005C010E94E8069B01AC01C301B2010E9486
:100B2000D5052B013C014AE0C501B4010E945502E4
:100B3000E0912F01F09130010190F081E02D6EE203
:100B40008FE291E0099520E030E040E251E4C301FA
:100B5000B2010E949F072B013C010E94B9064B0184
:100B6000A12CB12C4AE0C501B4010E945502C50177
:100B7000B4010E94E8069B01AC01C301B2010E94CE
:100B8000D50520E030E040E251E40E949F070E943A
:100B9000B90680E090E04AE00E9455028EE191E0C3
:100BA0000E9443020E9439029ACE5058BB27AA27BE
:100BB0000E94ED050C9460070E94520738F00E94D5
:100BC000590720F039F49F3F19F426F40C944F078D
:100BD0000EF4E095E7FB0C944907E92F0E9471079A
:100BE00058F3BA17620773078407950720F079F462
:100BF000A6F50C9493070EF4E0950B2EBA2FA02DBA
:100C00000B01B90190010C01CA01A0011124FF27B9
:100C1000591B99F0593F50F4503E68F11A16F040B4
:100C2000A22F232F342F4427585FF3CF46953795B3
:100C30002795A795F0405395C9F77EF41F16BA0B78
:100C4000620B730B840BBAF09150A1F0FF0FBB1F26
:100C5000661F771F881FC2F70EC0BA0F621F731F6F
:100C6000841F48F4879577956795B795F7959E3FCC
:100C700008F0B0CF9395880F08F09927EE0F97955D
:100C8000879508950E94250708F481E008950E9441
:100C90005B060C9460070E94590758F00E945207A7
:100CA00040F029F45F3F29F00C94490751110C944E
:100CB00094070C944F070E94710768F39923B1F3CE
:100CC000552391F3951B550BBB27AA276217730772
:100CD000840738F09F5F5F4F220F331F441FAA1F06
:100CE000A9F335D00E2E3AF0E0E832D091505040C2
:100CF000E695001CCAF72BD0FE2F29D0660F771F70
:100D0000881FBB1F261737074807AB07B0E809F055
:100D1000BB0B802DBF01FF2793585F4F3AF09E3FDA
:100D2000510578F00C9449070C9494075F3FE4F365
:100D3000983ED4F3869577956795B795F7959F5F1D
:100D4000C9F7880F911D9695879597F90895E1E069
:100D5000660F771F881FBB1F621773078407BA07C8
:100D600020F0621B730B840BBA0BEE1F88F7E09523
:100D700008950E94790788F09F5798F0B92F992716
:100D8000B751B0F0E1F0660F771F881F991F1AF076
:100D9000BA95C9F714C0B13091F00E949307B1E041
:100DA00008950C949307672F782F8827B85F39F040
:100DB000B93FCCF3869577956795B395D9F73EF40F
:100DC00090958095709561957F4F8F4F9F4F0895B7
:100DD000E89409C097FB3EF49095809570956195D5
:100DE0007F4F8F4F9F4F9923A9F0F92F96E9BB278B
:100DF0009395F695879577956795B795F111F8CF07
:100E0000FAF4BB0F11F460FF1BC06F5F7F4F8F4F71
:100E10009F4F16C0882311F096E911C0772321F067
:100E20009EE8872F762F05C0662371F096E8862FFF
:100E300070E060E02AF09A95660F771F881FDAF756
:100E4000880F9695879597F90895990F0008550F83
:100E5000AA0BE0E8FEEF16161706E807F907C0F040
:100E600012161306E407F50798F0621B730B840B48
:100E7000950B39F40A2661F0232B242B252B21F422
:100E800008950A2609F4A140A6958FEF811D811DC2
:100E9000089597F99F6780E870E060E008959FEFFC
:100EA00080EC089500240A94161617061806090601
:100EB000089500240A9412161306140605060895D0
:100EC000092E0394000C11F4882352F0BB0F40F458
:100ED000BF2B11F460FF04C06F5F7F4F8F4F9F4F98
:100EE000089557FD9058440F551F59F05F3F71F01A
:100EF0004795880F97FB991F61F09F3F79F0879581
:100F00000895121613061406551FF2CF4695F1DF09
:100F100008C0161617061806991FF1CF8695710599
:100F2000610508940895E894BB2766277727CB01CD
:100F300097F908950E94250708F48FEF08950E94FD
:100F4000B2070C9460070E94520738F00E945907BC
:100F500020F0952311F00C9449070C944F071124AD
:100F60000C9494070E94710770F3959FC1F3950F3D
:100F700050E0551F629FF001729FBB27F00DB11D1D
:100F8000639FAA27F00DB11DAA1F649F6627B00DAD
:100F9000A11D661F829F2227B00DA11D621F739F96
:100FA000B00DA11D621F839FA00D611D221F749FA4
:100FB0003327A00D611D231F849F600D211D822FEB
:100FC000762F6A2F11249F5750409AF0F1F0882312
:100FD0004AF0EE0FFF1FBB1F661F771F881F91503F
:100FE0005040A9F79E3F510580F00C9449070C949E
:100FF00094075F3FE4F3983ED4F386957795679521
:10100000B795F795E7959F5FC1F7FE2B880F911D68
:101010009695879597F908950E942507880B990B57
:101020000895A1E21A2EAA1BBB1BFD010DC0AA1F29
:10103000BB1FEE1FFF1FA217B307E407F50720F041
:10104000A21BB30BE40BF50B661F771F881F991FBC
:101050001A9469F760957095809590959B01AC0105
:10106000BD01CF010895EE0FFF1F0590F491E02D13
:10107000099481E090E0F8940C943E08F894FFCF36
:1010800000000000D00139016801170299017701C1
:101090008B016E616E00696E66006F7666000D0AE8
:0210A00000004E
:00000001FF
