:100000000C9466000C948E000C948E000C948E0060
:100010000C948E000C948E000C948E000C948E0028
:100020000C948E000C948E000C948E000C948E0018
:100030000C948E000C948E000C948E000C948E0008
:100040000C94DB030C948E000C944B040C9425044C
:100050000C948E000C948E000C948E000C948E00E8
:100060000C948E000C948E001112131415160A0BAA
:100070000C0D0E0F00010203040500000000240017
:1000800027002A0000000000250028002B0004049F
:100090000404040404040202020202020303030330
:1000A000030301020408102040800102040810200C
:1000B00001020408102000000008000201000003F3
:1000C000040700000000000000007D0411241FBE92
:1000D000CFEFD8E0DEBFCDBF22E0A2E5B1E001C0A6
:1000E0001D92A234B207E1F711E0A0E0B1E0E4E92B
:1000F000FFE002C005900D92A235B107D9F710E0DC
:10010000C6E6D0E004C02197FE010E94BD07C536B7
:10011000D107C9F70E9409050C94C8070C94000088
:1001200090E0FC01EA54FF4F3491FC01EE55FF4F83
:100130002491FC01E257FF4FE491EE2309F43BC008
:10014000332339F1333091F038F43130A9F03230C3
:1001500001F584B58F7D12C0373091F03830A1F0B1
:100160003430B9F4809180008F7D03C0809180008D
:100170008F77809380000DC084B58F7784BD09C0D0
:100180008091B0008F7703C08091B0008F7D809305
:10019000B000F0E0EE0FFF1FEC57FF4FA591B491B8
:1001A0008FB7F894EC91611103C020952E2301C004
:1001B0002E2B2C938FBF0895CF93DF9390E0FC01FB
:1001C000EE55FF4F2491FC01E257FF4F84918823A5
:1001D00061F190E0880F991FFC01E658FF4FC5912F
:1001E000D491FC01EC57FF4FA591B491611109C066
:1001F0009FB7F8948881209582238883EC912E23E1
:100200000BC0623061F49FB7F8943881822F8095DB
:1002100083238883EC912E2B2C939FBF06C08FB72E
:10022000F894E8812E2B28838FBFDF91CF9108951A
:100230003FB7F8948091690190916A01A0916B0198
:10024000B0916C0126B5A89B05C02F3F19F001960F
:10025000A11DB11D3FBFBA2FA92F982F8827820F4C
:10026000911DA11DB11DBC01CD0142E0660F771F9C
:10027000881F991F4A95D1F708958F929F92AF9248
:10028000BF92CF92DF92EF92FF926B017C010E94AE
:1002900018014B015C01C114D104E104F104F1F037
:1002A0000E941801DC01CB0188199909AA09BB0930
:1002B000883E9340A105B10570F321E0C21AD10830
:1002C000E108F10888EE880E83E0981EA11CB11C9D
:1002D000C114D104E104F10419F7DDCFFF90EF90D0
:1002E000DF90CF90BF90AF909F908F900895CF9266
:1002F000DF92EF92FF920F931F93CF93DF936C01E6
:100300007A018B01C0E0D0E0CE15DF0589F0D8017D
:100310006D918D01D601ED91FC910190F081E02D60
:10032000C6010995892B11F47E0102C02196ECCFFC
:10033000C701DF91CF911F910F91FF90EF90DF9058
:10034000CF900895FC01918D828D981761F0828D78
:10035000DF01A80FB11D5D968C91928D9F5F9F73F9
:10036000928F90E008958FEF9FEF0895FC01918D9B
:10037000828D981731F0828DE80FF11D858D90E008
:1003800008958FEF9FEF0895FC01918D228D892FA5
:1003900090E0805C9F4F821B91098F73992708958D
:1003A0008DE691E00E94C40121E0892B09F420E050
:1003B000822F0895FC01848DDF01A80FB11DA35A7F
:1003C000BF4F2C91848D90E001968F739927848F75
:1003D000A689B7892C93A089B1898C9180648C936C
:1003E000938D848D981306C00288F389E02D808157
:1003F0008F7D80830895EF92FF920F931F93CF9389
:10040000DF93EC0181E0888F9B8D8C8D981305C064
:10041000E889F989808185FD24C0F62E0B8D10E0D6
:100420000F5F1F4F0F731127E02E8C8DE8120CC049
:100430000FB607FCFACFE889F989808185FFF5CFEF
:10044000CE010E94DA01F1CF8B8DFE01E80FF11D84
:10045000E35AFF4FF0820B8FEA89FB89808180622B
:1004600007C0EE89FF896083E889F989808180640B
:10047000808381E090E0DF91CF911F910F91FF90F9
:10048000EF900895CF93DF93EC01888D8823C9F016
:10049000EA89FB89808185FD05C0A889B9898C918D
:1004A00086FD0FC00FB607FCF5CF808185FFF2CF28
:1004B000A889B9898C9185FFEDCFCE010E94DA0120
:1004C000E7CFDF91CF91089580E090E0892B29F06C
:1004D0000E94D00181110C94000008958EBD00008F
:1004E0000DB407FEFDCF8EB508959CB59F7D9CBDD4
:1004F0009CB5937F9CBD9CB59C7F9CBD9DB5916038
:100500009DBD682F80910C020E94900080911E0278
:1005100090911F028230910538F0880F991F880F43
:10052000991F05970197F1F7089580E00C947502E3
:100530001F93CF93DF931F92CDB7DEB789830E94BD
:10054000950289818F710E946E028FEF0E946E0268
:10055000182F81E00E947502812F0F90DF91CF91BB
:100560001F910895CF930E94950281EE0E946E0222
:10057000C82F81E00E9475028C2FCF9108951F93A0
:10058000CF93DF9300D0CDB7DEB76A8389830E9413
:10059000950289818F7180620E946E02182F6A8194
:1005A000862F0E946E0281E00E947502812F0F90BB
:1005B0000F90DF91CF911F91089580E00E949802E3
:1005C00081FD0BC0682F626080E00E94BF0265E081
:1005D00070E080E090E00C943D0108950F931F932C
:1005E000CF938C0186E00E949802C82FC77D02300D
:1005F000110531F4C0628BE990E0A0E0B0E00DC0DD
:100600000130110529F085E590E0A0E0B0E005C0DB
:10061000C86081E490E0A0E0B0E080931A0290937B
:100620001B02A0931C02B0931D026C2F86E00E9457
:10063000BF0286E00E94980291E08C1390E0892F1F
:10064000CF911F910F910895EF92FF920F931F93F7
:10065000CF93DF9300D01F92CDB7DEB7162F4A831A
:100660007B8389830E94950289818F7180620E94B9
:100670006E02082FE12E7B81F72E4A81140F1E1582
:1006800031F0F70181917F010E946E02F8CF81E085
:100690000E947502802F0F900F900F90DF91CF91E5
:1006A0001F910F91FF90EF900895009769F0FC0162
:1006B00001900020E9F73197AF01481B590BBC01AD
:1006C0008DE691E00C94770180E090E008958F92A0
:1006D0009F92AF92BF920F931F93CF93DF93CDB7AB
:1006E000DEB7A1970FB6F894DEBF0FBECDBF19A23B
:1006F000423008F44AE08E010F5D1F4F842E912C8A
:10070000A12CB12CA50194010E949B07E62FB901F1
:10071000CA0101501109EA3014F4E05D01C0E95C3E
:10072000D801EC93232B242B252B61F7C8010E94C1
:100730005503A1960FB6F894DEBF0FBECDBFDF9173
:10074000CF911F910F91BF90AF909F908F90089580
:10075000CF92DF92EF92FF92CF93DF936B017C01F8
:10076000E0916D01F0916E010190F081E02D6DE25C
:100770008DE691E00995EC0166277727CB016C198E
:100780007D098E099F094AE00E9467038C0F9D1F17
:10079000DF91CF91FF90EF90DF90CF900895BC0153
:1007A000990F880B990B97FD0C94A8034AE00C94C1
:1007B00067030E94C3071F920F920FB60F92112476
:1007C0002F933F938F939F93AF93BF938091650136
:1007D00090916601A0916701B09168013091640128
:1007E00023E0230F2D3720F40196A11DB11D05C074
:1007F00026E8230F0296A11DB11D2093640180936A
:10080000650190936601A0936701B09368018091A0
:10081000690190916A01A0916B01B0916C01019600
:10082000A11DB11D8093690190936A01A0936B0192
:10083000B0936C01BF91AF919F918F913F912F9198
:100840000F900FBE0F901F9018951F920F920FB62A
:100850000F9211242F933F934F935F936F937F9346
:100860008F939F93AF93BF93EF93FF938DE691E0A8
:100870000E94DA01FF91EF91BF91AF919F918F910B
:100880007F916F915F914F913F912F910F900FBE8C
:100890000F901F9018951F920F920FB60F92112470
:1008A0002F938F939F93EF93FF93E0917D01F091AE
:1008B0007E018081E0918301F091840182FD12C06C
:1008C0009081809186018F5F8F73209187018217BD
:1008D00051F0E0918601F0E0E359FE4F958F80934F
:1008E000860101C08081FF91EF919F918F912F919F
:1008F0000F900FBE0F901F901895CF93DF93EDE6EA
:10090000F1E01382128288EE93E0A0E0B0E08483ED
:100910009583A683B78384E091E09183808385ECFF
:1009200090E09587848784EC90E09787868780ECB9
:1009300090E0918B808B81EC90E0938B828B82ECAA
:1009400090E0958B848B86EC90E0978B868B118E54
:10095000128E138E148EC2E2D2E089E090E0998369
:1009600088838AE090E09B838A8361E089E00E942B
:10097000DC0061E08A810E94DC0085E090E09D83DC
:100980008C8386E090E09F838E8361E085E00E9407
:10099000DC0061E08E810E94DC0061E084E00E9466
:1009A000DC0060E083E00E94DC0084E090E0998756
:1009B000888783E090E09B878A8788EB9BE0A0E0B4
:1009C000B0E08C879D87AE87BF8781E090E09D8FE8
:1009D0008C8F80E991E09F8F8E8FEAE0F2E087E0D4
:1009E00090E09183808388E090E0938382831682F5
:1009F00080E28783108685E0868785E090E0A0E02E
:100A0000B0E0848B958BA68BB78B1186DF91CF914D
:100A10000895CF93DF93CDB7DEB728970FB6F8943C
:100A2000DEBF0FBECDBF789484B5826084BD84B52F
:100A3000816084BD85B5826085BD85B5816085BDD9
:100A400080916E00816080936E0010928100809191
:100A50008100826080938100809181008160809319
:100A60008100809180008160809380008091B1003E
:100A700084608093B1008091B00081608093B00069
:100A800080917A00846080937A0080917A008260FD
:100A900080937A0080917A00816080937A008091BF
:100AA0007A00806880937A001092C100E0917D0105
:100AB000F0917E0182E08083E0917901F0917A01EA
:100AC0001082E0917B01F0917C018FEC8083109289
:100AD0008501E0918101F091820186E08083E091BF
:100AE0007F01F0918001808180618083E0917F01AE
:100AF000F0918001808188608083E0917F01F09196
:100B00008001808180688083E0917F01F091800185
:100B100080818F7D808380E191E00E9455038BE28C
:100B200091E00E94550380910A0290910B0220915E
:100B30000C0230910D028217930719F061E00E94B8
:100B4000DC0080910C0290910D0220910A023091FC
:100B50000B022817390719F061E00E94DC001FB76B
:100B6000F89480915201811127C0E8E9F0E0849166
:100B7000ECEAF0E09491E82FF0E0EE0FFF1FE6586A
:100B8000FF4FA591B491EC91E92321F461E08AE053
:100B90000E94900061E08AE00E94DC008CB58061D8
:100BA0008CBD8CB580648CBD61E08DE00E94DC0062
:100BB00061E08BE00E94DC00809152018F5F8093A6
:100BC00052011FBF80910A0290910B0220910C02EA
:100BD00030910D028217930719F060E00E94900097
:100BE00081E00E94750265E070E080E090E00E9484
:100BF0003D016CE080E00E94BF026FE584E00E944E
:100C0000BF0282E090E00E94EE02882319F081E0AA
:100C10008093100286E00E94980280E090E00E949B
:100C2000EE020E94950280E50E946E0283E70E9418
:100C30006E0281E00E94750260E08DE10E94BF02B9
:100C400060E08CE10E94BF021092120260E787E030
:100C50000E94BF026CE485E00E94BF020E949502E0
:100C600082EE0E946E0281E00E9475020E94B20232
:100C70000E94DD0280E00E949802682F6E7F80E073
:100C80000E94BF026CE685E00E94BF0280E090E017
:100C90000E94EE0286E00E949802887F682F6560BD
:100CA00086E00E94BF0281EE898380EF8A838B8376
:100CB00088EE8C838D831E821F821886EFE6F0E01B
:100CC000849140911802BE016F5F7F4F0E94240300
:100CD000E9E6F0E08491609111020E94BF0282E097
:100CE0000E949802E5E7F0E0E49161E070E001C065
:100CF000660FEA95EAF7682B82E00E94BF020E9425
:100D0000DD0280E00E949802682F616080E00E940E
:100D1000BF0260E787E00E94BF0280910A029091C3
:100D20000B0220910C0230910D028217930719F0EB
:100D300061E00E94900080911302882341F040916D
:100D4000180263E172E08AE00E94240312C082E08C
:100D50000E949802E4E7F0E0E49121E030E001C075
:100D6000220FEA95EAF72095622F682382E00E941D
:100D7000BF028DE10E94980281FD0E94B202109292
:100D8000560110925501109254011092530168EED1
:100D900073E080E090E00E943D019CE9E92EFF2491
:100DA000FA9424E6C22ED12C87E10E94980280FD9D
:100DB0000DC087E10E94980280FF8BC089E491E01A
:100DC0000E9455038BE291E00E94550380915D01E2
:100DD000882309F479C080915E0190915F0190931E
:100DE0005C0180935B0140916001509161015093DF
:100DF0005A0140935901209162013091630130936F
:100E00005801209357019A01280F391F309356013A
:100E100020935501841B950B9093540180935301AB
:100E2000253631052CF0D0925601C092550107C0ED
:100E30002C393F4F24F4F0925601E092550185364B
:100E400091052CF0D0925401C092530107C08C3907
:100E50009F4F24F4F0925401E09253018EE291E00E
:100E60000E94550380915B0190915C010E94CF0329
:100E700083E391E00E9455038091590190915A01BA
:100E80000E94CF0389E391E00E94550380915501B0
:100E9000909156010E94CF0383E491E00E94550394
:100EA0006091530170915401072E000C880B990B2F
:100EB00097FF03C00E94A80303C04AE00E94670393
:100EC0008BE291E00E94550310925D010E94640242
:100ED0006BCF10911102163060F106E08091120282
:100EE000811102C0101B01C010E00E94950281E632
:100EF0000E946E028EE5A82E81E0B82E015038F0D7
:100F00008FEF0E946E02F50181935F01F7CF1123ED
:100F100029F08FEF0E946E021150F9CF81E00E94FC
:100F2000750260E787E00E94BF0281E080935D0167
:100F300040CF012FD3CFA1E21A2EAA1BBB1BFD016C
:100F40000DC0AA1FBB1FEE1FFF1FA217B307E407A8
:100F5000F50720F0A21BB30BE40BF50B661F771F00
:100F6000881F991F1A9469F76095709580959095E0
:100F70009B01AC01BD01CF010895EE0FFF1F05904D
:100F8000F491E02D099481E090E0F8940C94C80766
:040F9000F894FFCF03
:100F940000000000FB017701C401A201B601420276
:100FA4004E726632344C3031205265636569766521
:100FB40072205374617274696E67000D0A005820C0
:100FC4003D20002059203D200020202020204C20BE
:100FD4003D20002052203D200075706461746564DA
:020FE40000000B
:00000001FF
