:100000000C945D000C9485000C9485000C94850084
:100010000C9485000C9485000C9485000C9485004C
:100020000C9485000C9485000C9485000C9485003C
:100030000C9485000C9485000C9485000C9485002C
:100040000C94DA020C9485000C944A030C9424035B
:100050000C9485000C9485000C9485000C9485000C
:100060000C9485000C9485000000000024002700FB
:100070002A0000000000250028002B0004040404CE
:100080000404040402020202020203030303030342
:10009000010204081020408001020408102001021F
:1000A00004081020000000080002010000030407FB
:1000B00000000000000000007C0311241FBECFEFF1
:1000C000D8E0DEBFCDBF11E0A0E0B1E0E8E2FAE0A9
:1000D00002C005900D92A633B107D9F721E0A6E33F
:1000E000B1E001C01D92AE3FB207E1F710E0CDE5EF
:1000F000D0E004C02197FE010E940705CC35D1074E
:10010000C9F70E94EF030C9412050C940000E5EB74
:10011000F0E02491E1EAF0E09491EDE8F0E0E49180
:10012000EE2309F43BC0222339F1233091F038F457
:100130002130A9F0223001F524B52F7D12C02730DF
:1001400091F02830A1F02430B9F4209180002F7D67
:1001500003C0209180002F77209380000DC024B52C
:100160002F7724BD09C02091B0002F7703C02091C4
:10017000B0002F7D2093B000F0E0EE0FFF1FEE588F
:10018000FF4FA591B4912FB7F894EC91811103C062
:1001900090959E2301C09E2B9C932FBF0895CF93D3
:1001A000DF93C82F81E00E9487008C2FCE3008F0AB
:1001B0008E508770806480937C0080917A00806488
:1001C00080937A0080917A0086FDFCCFC091780000
:1001D00080917900D0E0D82B80E00E948700CE018A
:1001E000DF91CF910895CF93DF9390E0FC01E0572A
:1001F000FF4F2491FC01E458FF4F8491882361F163
:1002000090E0880F991FFC01E859FF4FC591D491E8
:10021000FC01EE58FF4FA591B491611109C09FB741
:10022000F8948881209582238883EC912E230BC03B
:10023000623061F49FB7F8943881822F80958323D0
:100240008883EC912E2B2C939FBF06C08FB7F89418
:10025000E8812E2B28838FBFDF91CF9108953FB780
:10026000F89480913D0190913E01A0913F01B091A1
:10027000400126B5A89B05C02F3F19F00196A11D8E
:10028000B11D3FBFBA2FA92F982F8827820F911D2C
:10029000A11DB11DBC01CD0142E0660F771F881F73
:1002A000991F4A95D1F70895CF92DF92EF92FF926E
:1002B0000F931F93CF93DF936C017A018B01C0E002
:1002C000D0E0CE15DF0589F0D8016D918D01D60102
:1002D000ED91FC910190F081E02DC6010995892BEB
:1002E00011F47E0102C02196ECCFC701DF91CF91BE
:1002F0001F910F91FF90EF90DF90CF900895089598
:1003000080E090E00895FC01538D448D252F30E06E
:10031000842F90E0821B930B541710F0CF96089512
:1003200001970895FC01918D828D981761F0828D5F
:10033000DF01A80FB11D5D968C91928D9F5F9F7319
:10034000928F90E008958FEF9FEF0895FC01918DBB
:10035000828D981731F0828DE80FF11D858D90E028
:1003600008958FEF9FEF0895FC01918D228D892FC5
:1003700090E0805C9F4F821B91098F7399270895AD
:1003800081E491E00E94B40121E0892B09F420E08E
:10039000822F0895FC01848DDF01A80FB11DA35A9F
:1003A000BF4F2C91848D90E001968F739927848F95
:1003B000A689B7892C93A089B1898C9180648C938C
:1003C000938D848D981306C00288F389E02D808177
:1003D0008F7D80830895EF92FF920F931F93CF93A9
:1003E000DF93EC0181E0888F9B8D8C8D981305C085
:1003F000E889F989808185FD24C0F62E0B8D10E0F7
:100400000F5F1F4F0F731127E02E8C8DE8120CC069
:100410000FB607FCFACFE889F989808185FFF5CF0F
:10042000CE010E94CA01F1CF8B8DFE01E80FF11DB4
:10043000E35AFF4FF0820B8FEA89FB89808180624B
:1004400007C0EE89FF896083E889F989808180642B
:10045000808381E090E0DF91CF911F910F91FF9019
:10046000EF900895CF93DF93EC01888D8823C9F036
:10047000EA89FB89808185FD05C0A889B9898C91AD
:1004800086FD0FC00FB607FCF5CF808185FFF2CF48
:10049000A889B9898C9185FFEDCFCE010E94CA0150
:1004A000E7CFDF91CF91089580E090E0892B29F08C
:1004B0000E94C00181110C9400000895009769F01A
:1004C000FC0101900020E9F73197AF01481B590B5F
:1004D000BC0181E491E00C94540180E090E0089527
:1004E0008F929F92AF92BF920F931F93CF93DF9300
:1004F000CDB7DEB7A1970FB6F894DEBF0FBECDBF64
:1005000019A2423008F44AE08E010F5D1F4F842E7D
:10051000912CA12CB12CA50194010E94E504E62F99
:10052000B901CA0101501109EA3014F4E05D01C0BB
:10053000E95CD801EC93232B242B252B61F7C80110
:100540000E945E02A1960FB6F894DEBF0FBECDBF2B
:10055000DF91CF911F910F91BF90AF909F908F909F
:100560000895CF92DF92EF92FF92CF93DF936B01CA
:100570007C01E0914101F09142010190F081E02D78
:100580006DE281E491E00995EC0166277727CB01C4
:100590006C197D098E099F094AE00E9470028C0F38
:1005A0009D1FDF91CF91FF90EF90DF90CF90089546
:1005B0000E940D051F920F920FB60F9211242F93D8
:1005C0003F938F939F93AF93BF9380913901909105
:1005D0003A01A0913B01B0913C013091380123E0F8
:1005E000230F2D3720F40196A11DB11D05C026E86B
:1005F000230F0296A11DB11D20933801809339016C
:1006000090933A01A0933B01B0933C0180913D014E
:1006100090913E01A0913F01B09140010196A11D32
:10062000B11D80933D0190933E01A0933F01B09393
:100630004001BF91AF919F918F913F912F910F906A
:100640000FBE0F901F9018951F920F920FB60F922A
:1006500011242F933F934F935F936F937F938F93C7
:100660009F93AF93BF93EF93FF9381E491E00E9438
:10067000CA01FF91EF91BF91AF919F918F917F91AF
:100680006F915F914F913F912F910F900FBE0F90FF
:100690001F9018951F920F920FB60F9211242F934F
:1006A0008F939F93EF93FF93E0915101F09152014B
:1006B0008081E0915701F091580182FD12C0908134
:1006C00080915A018F5F8F7320915B01821751F0E7
:1006D000E0915A01F0E0EF5BFE4F958F80935A0155
:1006E00001C08081FF91EF919F918F912F910F9089
:1006F0000FBE0F901F901895CF93DF93E1E4F1E0C8
:100700001382128288EE93E0A0E0B0E084839583A8
:10071000A683B78384E091E09183808385EC90E0A9
:100720009587848784EC90E09787868780EC90E0BB
:10073000918B808B81EC90E0938B828B82EC90E0AC
:10074000958B848B86EC90E0978B868B118E128E26
:10075000138E148ECEEDD1E089E090E099838883EA
:100760008AE090E09B838A8361E089E00E94F30045
:1007700061E08A810E94F30085E090E09D838C8394
:1007800086E090E09F838E8361E085E00E94F30025
:1007900061E08E810E94F30061E084E00E94F3003A
:1007A00060E083E00E94F30084E090E0998788870E
:1007B00083E090E09B878A8788EB9BE0A0E0B0E035
:1007C0008C879D87AE87BF8781E090E09D8F8C8F5F
:1007D00080E991E09F8F8E8FDF91CF91089578947B
:1007E00084B5826084BD84B5816084BD85B5826036
:1007F00085BD85B5816085BD80916E0081608093E7
:100800006E0010928100809181008260809381004F
:10081000809181008160809381008091800081605F
:10082000809380008091B10084608093B1008091BA
:10083000B00081608093B00080917A0084608093E2
:100840007A0080917A00826080937A0080917A00A9
:10085000816080937A0080917A00806880937A002A
:100860001092C100E0915101F091520182E0808329
:10087000E0914D01F0914E011082E0914F01F09115
:1008800050018FEC808310925901E0915501F09155
:10089000560186E08083E0915301F09154018081FC
:1008A00080618083E0915301F091540180818860E0
:1008B0008083E0915301F0915401808180688083AE
:1008C000E0915301F091540180818F7D808382E11A
:1008D00091E00E945E0280E090E00E94CF00909341
:1008E000370180933601BC01990F880B990B97FF54
:1008F00003C00E94B10203C04AE00E9470028AE174
:1009000091E00E945E028FE191E00E945E0281E030
:1009100090E00E94CF009093370180933601BC0194
:10092000990F880B990B97FF03C00E94B10203C077
:100930004AE00E9470028AE191E00E945E0289E230
:1009400091E00E945E0282E090E00E94CF009093CE
:10095000370180933601BC01990F880B990B97FFE3
:1009600003C00E94B10203C04AE00E94700282E309
:1009700091E00E945E020E942F014B015C0188EE13
:10098000C82E83E0D82EE12CF12C0E942F01DC012F
:10099000CB0188199909AA09BB09883E9340A10592
:1009A000B10558F021E0C21AD108E108F10888EE3B
:1009B000880E83E0981EA11CB11CC114D104E1046F
:1009C000F10419F70E94540282CFA1E21A2EAA1B49
:1009D000BB1BFD010DC0AA1FBB1FEE1FFF1FA217EF
:1009E000B307E407F50720F0A21BB30BE40BF50BEC
:1009F000661F771F881F991F1A9469F76095709575
:100A0000809590959B01AC01BD01CF010895EE0F3B
:100A1000FF1F0590F491E02D099481E090E0F89497
:080A20000C941205F894FFCFBD
:100A280000000000EB01540183013202B40192017D
:100A3800A6014C656674203A2000202D2D2D004318
:100A4800656E746572203A20005269676874203AAE
:060A580020000D0A000061
:00000001FF
