:100000000C9475000C949D000C949D000C94650557
:100010000C9465050C9465050C949D000C949D0052
:100020000C949D000C949D000C949D000C949D00DC
:100030000C949D000C949D000C949D000C949D00CC
:100040000C94C3040C949D000C9433050C940D0582
:100050000C949D000C949D000C949D000C949D00AC
:100060000C949D000C949D0007091F091F091F098E
:100070009A08A108B608AB08C5081F09D9081F09C6
:100080001F091F091F091F09EC085409000000007F
:10009000240027002A0000000008000201000003DD
:1000A0000407000000000000000000000000250020
:1000B00028002B0000000000230026002900040473
:1000C0000404040404040202020202020303030300
:1000D00003030102040810204080010204081020DC
:1000E0000102040810202406270B11241FBECFEFA5
:1000F000D8E0DEBFCDBF11E0A0E0B1E0EEEBFAE169
:1001000002C005900D92A834B107D9F722E0A8E407
:10011000B1E001C01D92A437B207E1F710E0C4E7D7
:10012000D0E004C02197FE010E94330DC337D107F0
:10013000C9F70E942F070C94520D0C94000090E018
:10014000FC01EA56FF4F3491FC01EE52FF4F24911F
:10015000FC01E254FF4FE491EE2309F43BC033234A
:1001600039F1333091F038F43130A9F0323001F503
:1001700084B58F7D12C0373091F03830A1F0343023
:10018000B9F4809180008F7D03C0809180008F77CB
:10019000809380000DC084B58F7784BD09C08091A5
:1001A000B0008F7703C08091B0008F7D8093B00046
:1001B000F0E0EE0FFF1FE655FF4FA591B4918FB70A
:1001C000F894EC91611103C020952E2301C02E2BD1
:1001D0002C938FBF0895CF93DF9390E0FC01EE52F4
:1001E000FF4F2491FC01E254FF4F8491882361F179
:1001F00090E0880F991FFC01E457FF4FC591D491FF
:10020000FC01E655FF4FA591B491611109C09FB75C
:10021000F8948881209582238883EC912E230BC04B
:10022000623061F49FB7F8943881822F80958323E0
:100230008883EC912E2B2C939FBF06C08FB7F89428
:10024000E8812E2B28838FBFDF91CF9108951F93D4
:10025000CF93DF93182FEB0161E00E94EB00209712
:1002600011F460E004C0CF3FD10539F461E0812F83
:10027000DF91CF911F910C949F00E12FF0E0EA569F
:10028000FF4FE491E330F9F048F4E130B9F0E230A7
:10029000A1F584B5806284BDC8BD34C0E730E9F003
:1002A000E83019F1E43049F5809180008062809354
:1002B0008000D0938B00C0938A0024C084B58068EE
:1002C00084BDC7BD1FC0809180008068809380007E
:1002D000D0938900C093880015C08091B0008068D9
:1002E0008093B000C093B3000DC08091B0008062D5
:1002F0008093B000C093B40005C0C038D1050CF0A5
:10030000B5CFAFCFDF91CF911F910895CF93DF93FA
:10031000C4E5D2E060E070E08E810E94270160E0D9
:1003200070E08C810E94270160E070E08A810E9469
:10033000270160E070E08881DF91CF910C94270164
:100340008E3008F08E508770806480937C0080919E
:100350007A00806480937A0080917A0086FDFCCFD9
:10036000809178002091790090E0922B08953FB71A
:10037000F8948091940190919501A0919601B0918B
:10038000970126B5A89B05C02F3F19F00196A11D26
:10039000B11D3FBFBA2FA92F982F8827820F911D1B
:1003A000A11DB11DBC01CD0142E0660F771F881F62
:1003B000991F4A95D1F708958F929F92AF92BF925D
:1003C000CF92DF92EF92FF926B017C010E94B70106
:1003D0004B015C01C114D104E104F104F1F00E946D
:1003E000B701DC01CB0188199909AA09BB09883E2C
:1003F0009340A105B10570F321E0C21AD108E108CC
:10040000F10888EE880E83E0981EA11CB11CC1146F
:10041000D104E104F10419F7DDCFFF90EF90DF90F4
:10042000CF90BF90AF909F908F900895CF92DF9222
:10043000EF92FF920F931F93CF93DF936C017A019A
:100440008B01C0E0D0E0CE15DF0589F0D8016D91B9
:100450008D01D601ED91FC910190F081E02DC60156
:100460000995892B11F47E0102C02196ECCFC701BA
:10047000DF91CF911F910F91FF90EF90DF90CF9080
:100480000895FC01918D828D981761F0828DDF01B6
:10049000A80FB11D5D968C91928D9F5F9F73928F77
:1004A00090E008958FEF9FEF0895FC01918D828D6C
:1004B000981731F0828DE80FF11D858D90E0089539
:1004C0008FEF9FEF0895FC01918D228D892F90E091
:1004D000805C9F4F821B91098F739927089588E94B
:1004E00091E00E94630221E0892B09F420E0822F31
:1004F0000895FC01848DDF01A80FB11DA35ABF4FE1
:100500002C91848D90E001968F739927848FA68912
:10051000B7892C93A089B1898C9180648C93938D39
:10052000848D981306C00288F389E02D80818F7D29
:1005300080830895EF92FF920F931F93CF93DF93E1
:10054000EC0181E0888F9B8D8C8D981305C0E88924
:10055000F989808185FD24C0F62E0B8D10E00F5F98
:100560001F4F0F731127E02E8C8DE8120CC00FB6B1
:1005700007FCFACFE889F989808185FFF5CFCE01A4
:100580000E947902F1CF8B8DFE01E80FF11DE35A35
:10059000FF4FF0820B8FEA89FB898081806207C060
:1005A000EE89FF896083E889F9898081806480838E
:1005B00081E090E0DF91CF911F910F91FF90EF903C
:1005C0000895CF93DF93EC01888D8823C9F0EA89E1
:1005D000FB89808185FD05C0A889B9898C9186FD3C
:1005E0000FC00FB607FCF5CF808185FFF2CFA88939
:1005F000B9898C9185FFEDCFCE010E947902E7CFBA
:10060000DF91CF91089580E090E0892B29F00E943E
:100610006F0281110C940000089520918A0130919D
:100620008B012817390771F4909188018091890115
:10063000981741F0E0918801F0E0E85BFE4F80817F
:1006400090E008958FEF9FEF089508951F93CF9343
:10065000DF93DC015C962D913C915D97211531056E
:1006600039F481E090E013969C938E9312973DC0ED
:100670005196ED91FC91529750969C915097892FED
:1006800080951FB75E964C915E9741FB772770F976
:1006900041FD6095F8944081772311F0492B01C00A
:1006A00048234083E9012197F1F748E0508160FF3A
:1006B00002C0592B01C058235083E9012197F1F75B
:1006C0006695415099F7772321F0908189238083A3
:1006D00003C08081982B90831FBF5C968D919C9165
:1006E0005D970197F1F721E030E0C901DF91CF91EB
:1006F0001F91089520918A0130918B0128173907A5
:1007000071F4809189012091880190E0805C9F4F75
:10071000821B910960E470E00E94FD0C089580E066
:1007200090E0089520918A0130918B0128173907B4
:10073000B9F49091880180918901981789F0E0912E
:100740008801F0E0E85BFE4F80812091880130E075
:100750002F5F3F4F2F7333272093880190E0089538
:100760008FEF9FEF0895E0918A01F0918B01E817D8
:10077000F90769F4A389B4899C91858980958923B7
:100780008C9310928B0110928A0181E0089580E091
:1007900008950F931F93CF93DF938C016F3F7105E3
:1007A00019F014F06FEF70E0EB0161307F4F14F43B
:1007B000C1E0DFEF60E070E0F801D7FD07C08281A3
:1007C0000E942701BE01F801808109C080810E943A
:1007D0002701662777276C1B7D0BF8018281DF914B
:1007E000CF911F910F910C942701CF93DF932FEF9F
:1007F000AC01249FC001259F900D112464E670E098
:100800000E94FD0CEB0188E592E00E94C903BE0145
:1008100084E592E0DF91CF910C94C903EF92FF92AF
:100820001F93CF93DF937B011FEF9C01129FC001A9
:10083000139F900D1124C4E6D0E0BE010E94FD0C70
:1008400088E592E00E94C9031E9DC0011F9D900D86
:100850001124BE010E94FD0C84E592E0DF91CF914E
:100860001F91FF90EF900C94C9030F931F9360E0CA
:1008700080915C020E949F0083E090E00197F1F775
:1008800061E080915C020E949F0083E290E001970A
:10089000F1F760E080915C020E949F0080915E020F
:1008A00090915F029927FC01EE52FF4F6491FC0189
:1008B000E254FF4FE491F0E0EE0FFF1FEC54FF4FC6
:1008C00085919491009160021091610220916202E1
:1008D000309163023F70462F0E94DF05611571055C
:1008E0008105910549F0DC01CB010196A11DB11DE7
:1008F000BC01CD019F7003C060E070E0CB010E949D
:10090000DE0B60936402709365028093660290939D
:10091000670220E030E0A9010E94310B811112C072
:100920006091600270916102809162029091630215
:100930000E94E00B609364027093650280936602EC
:1009400090936702609164027091650280916602E3
:10095000909167020E94A80B1F910F910895009734
:1009600069F0FC0101900020E9F73197AF01481BC5
:10097000590BBC0188E991E00C94160280E090E0EC
:1009800008950E944D0D1F920F920FB60F921124E1
:100990002F933F938F939F93AF93BF938091900139
:1009A00090919101A0919201B091930130918F01AA
:1009B00023E0230F2D3720F40196A11DB11D05C0A2
:1009C00026E8230F0296A11DB11D20938F0180936D
:1009D000900190939101A0939201B0939301809123
:1009E000940190919501A0919601B0919701019683
:1009F000A11DB11D8093940190939501A093960140
:100A0000B0939701BF91AF919F918F913F912F919B
:100A10000F900FBE0F901F9018951F920F920FB658
:100A20000F9211242F933F934F935F936F937F9374
:100A30008F939F93AF93BF93EF93FF9388E991E0D8
:100A40000E947902FF91EF91BF91AF919F918F9199
:100A50007F916F915F914F913F912F910F900FBEBA
:100A60000F901F9018951F920F920FB60F9211249E
:100A70002F938F939F93EF93FF93E091A801F091B1
:100A8000A9018081E091AE01F091AF0182FD12C019
:100A900090818091B1018F5F8F732091B201821795
:100AA00051F0E091B101F0E0E856FE4F958F809350
:100AB000B10101C08081FF91EF919F918F912F91A2
:100AC0000F900FBE0F901F9018951F920F920FB6A8
:100AD0000F9211242F933F934F935F936F937F93C4
:100AE0008F939F93AF93BF93EF93FF93E0918A010E
:100AF000F0918B01309709F451C0968DA685B7858A
:100B0000858591FF04C09C91892329F447C09C915D
:100B1000892309F043C0A389B4899C918589809574
:100B200089238C93868997890197F1F7608D718D60
:100B3000A685B785558538E020E0CB010197F1F710
:100B4000822F90E095958795282F4C91452309F0A9
:100B50002068315091F7868D81FD20958091890123
:100B600090E001968F73992730918801381749F0EA
:100B7000A0918901B0E0A85BBE4F2C9380938901BE
:100B800003C0868D8160868F828D938D0197F1F7EA
:100B9000A389B4899C918589892B8C93FF91EF91CE
:100BA000BF91AF919F918F917F916F915F914F9185
:100BB0003F912F910F900FBE0F901F901895CF92DD
:100BC000DF92EF92FF920F931F93E82FF92F05C04A
:100BD000015011092109310961F19081962394177F
:100BE000B9F305C0015011092109310911F19081B2
:100BF00096239413F7CFC12CD12CE12CF12C0AC0F1
:100C00008FEFC81AD80AE80AF80A0C151D052E0538
:100C10003F0579F080818623841791F36C2D7D2D1B
:100C20008E2D9F2D1F910F91FF90EF90DF90CF9011
:100C3000089560E070E080E090E01F910F91FF90D8
:100C4000EF90DF90CF900895CF92DF92EF92FF92D6
:100C500010929B0110929A0198EEC92E93E0D92E22
:100C6000E12CF12CC0929C01D0929D01E0929E015A
:100C7000F0929F0186E091E0909399018093980112
:100C800085EC90E09093A5018093A40184EC90E022
:100C90009093A7018093A60180EC90E09093A90126
:100CA0008093A80181EC90E09093AB018093AA011E
:100CB00082EC90E09093AD018093AC0186EC90E0E3
:100CC0009093AF018093AE011092B1011092B201E6
:100CD0001092B3011092B40189E090E09093550214
:100CE000809354028AE090E09093570280935602DA
:100CF00061E089E00E94EB0061E0809156020E9471
:100D0000EB0085E090E0909359028093580286E0D2
:100D100090E090935B0280935A0261E085E00E942C
:100D2000EB0061E080915A020E94EB0061E084E0F8
:100D30000E94EB0060E083E00E94EB0084E090E022
:100D400090935D0280935C0283E090E090935F0259
:100D500080935E0288EB9BE0A0E0B0E080936002AD
:100D600090936102A0936202B093630281E090E0ED
:100D7000909371028093700280E991E090937302E6
:100D8000809372021092380210923702C092390298
:100D9000D0923A02E0923B02F0923C0286E191E06E
:100DA000909336028093350210924C0210924B02BF
:100DB00010924E0210924D021092500210924F0269
:100DC0001092520210925102609153026E7F6D7F19
:100DD000609353026695617081E0682787E00E9406
:100DE0009F0061E087E00E94EB00E9EDF0E0E49114
:100DF000E0934502E5ECF0E0E491F0E0EE0FFF1F38
:100E0000E655FF4F85919491909347028093460257
:100E100060E088E00E94EB008091530281FD04C0F5
:100E200061E088E00E949F0088E080934102EAED43
:100E3000F0E0E491E0934202E6ECF0E0E491F0E0CF
:100E4000EE0FFF1FEC54FF4F859194919093440255
:100E500080934302FF90EF90DF90CF900895CF935F
:100E6000DF93CDB7DEB7A1970FB6F894DEBF0FBE04
:100E7000CDBF789484B5826084BD84B5816084BD23
:100E800085B5826085BD85B5816085BD80916E0028
:100E9000816080936E001092810080918100826059
:100EA0008093810080918100816080938100809196
:100EB00080008160809380008091B1008460809385
:100EC000B1008091B00081608093B00080917A0081
:100ED000846080937A0080917A00826080937A00A7
:100EE00080917A00816080937A0080917A00806896
:100EF00080937A001092C1001092500210924F021B
:100F000010924E0210924D0210924C0210924B021F
:100F10008DE991E0909352028093510290914102A9
:100F2000963108F057C02DEB30E030934C022093FF
:100F30004B022BE931E030934E0220934D022CE21C
:100F400031E03093500220934F0220916800983096
:100F500050F031E09E3008F430E081E001C0880FAD
:100F60003A95EAF701C084E0822B809368009830BC
:100F700038F09E3040F0963148F020E030E008C074
:100F80002DE630E005C02BE630E002C02CE630E074
:100F90003093490220934802983030F481E001C038
:100FA000880F9A95EAF70EC0292F30E09E3018F48A
:100FB0002850310902C02E50310981E001C0880F4C
:100FC0002A95EAF780934A02809151029091520249
:100FD0000197F1F780914F0290915002892B21F1F6
:100FE00080918A0190918B0122E085339207E1F094
:100FF000009711F00E94B303809153028E7F80937B
:101000005302109289011092880185E392E0909337
:101010008B0180938A01E0914802F091490290810E
:1010200080914A02892B8083E091A801F091A90167
:1010300082E08083E091A401F091A5011082E0910B
:10104000A601F091A7018FEC80831092B001E0918E
:10105000AC01F091AD0186E08083E091AA01F091AE
:10106000AB01808180618083E091AA01F091AB01A6
:10107000808188608083E091AA01F091AB0180813A
:1010800080688083E091AA01F091AB0180818F7D1F
:10109000808382E291E00E94AF0485E491E00E94A7
:1010A000AF0460ED77E080E090E00E94DC0181E039
:1010B00090E0909371028093700280E991E09093A8
:1010C00073028093720261E081E10E94EB0004E60A
:1010D00010E05EE1252E312C62E3862E912C7AE021
:1010E000472E512C612C712C85E392E00E947A03EB
:1010F000181619060CF002C185E392E00E949203D3
:1011000080938E0120918C0130918D01232B09F069
:1011100096C0482F082E000C550B660B770BFA0172
:10112000E254F109E231F10508F089C0EC5CFF4FAF
:101130000C94330D80910001909101010E94F50300
:10114000DDC06091000170910101CB0177FD019636
:10115000959587952BC02091000130910101C9011F
:1011600063E070E00E94FD0CC90120C08091000185
:101170009091010122273327281B390B6DEF7FEF58
:101180000E94FD0CCB01B90111C08091000190912A
:101190000101BC0197FF02C06F5F7F4F7595679596
:1011A0007195619571099195819591090E940E043F
:1011B000A5C020910001309101014FEF429FC00175
:1011C000439F900D1124B8010E94FD0C7B016627FE
:1011D00077276E197F092DC0209100013091010100
:1011E0004FEF429FC001439F900D1124B8010E9410
:1011F000FD0C7B0188E592E00E94C90366277727F2
:101200006E197F0984E592E00E94C90377C020919E
:101210000001309101014FEF429FC001439F900DAB
:101220001124B8010E94FD0CEE24FF24E61AF70AEF
:10123000B70188E592E00E94C903B701E3CF873385
:1012400009F450C094F4833309F442C044F4813368
:10125000A9F1823309F052C084E190E034C08533B3
:10126000E1F17CF588E290E02EC0883501F16CF464
:101270008933F1F1D4F1863509F040C081E090E086
:1012800090938D0180938C0139C0863749F088375F
:1012900039F0813799F510930101009300012EC0B8
:1012A00010928D0110928C010E94860127C0E2E00D
:1012B000F0E0F0938D01E0938C0120C08AE090E093
:1012C00002C08CE390E0909301018093000116C06E
:1012D000309201012092000111C090920101809290
:1012E00000010CC0E6E4F0E005C080E590E0EBCF43
:1012F000EAE5F0E0F0930101E093000180918C01B8
:1013000090918D018130910509F000C10E94350452
:101310002EEA37E44BEE51E460916402709165026D
:1013200080916602909167020E94360B20E030E0C7
:1013300040E05FE30E94900C6B017C0160936802C7
:101340007093690280936A0290936B0264E670E086
:1013500080E090E00E94DC01C701B6010E94A80B6A
:101360005B016B01770FEE08FF08F7FE26C0E091E6
:101370009801F09199010190F081E02D6DE288E9EA
:1013800091E0099522273327A9012C193D094E091F
:101390005F0919A2CE0181967C01CA01B901A3019E
:1013A00092010E94110D605DF70162937F0121158A
:1013B00031054105510589F715C0A701960119A20C
:1013C000CE0181967C01CA01B901A30192010E945C
:1013D000110D605DF70162937F0121153105410513
:1013E000510589F7C7010E94AF0485E491E00E948E
:1013F000AF04FFE0AF16B1040CF0DDC00E9486011F
:1014000064E670E080E090E00E94DC018AEB9FEFF0
:101410000E94F5036CE271E080E090E00E94DC0144
:1014200062EB70E088E592E00E94C9036EE47FEF12
:1014300084E592E00E94C90364E670E080E090E0F9
:101440000E94DC0164E670E080E090E00E94DC0134
:1014500064E670E080E090E00E94DC010E9486017A
:1014600068EC70E080E090E00E94DC010E943504AE
:101470002EEA37E44BEE51E460916402709165020C
:1014800080916602909167020E94360B20E030E066
:1014900040E05FE30E94900C6B017C016093680266
:1014A0007093690280936A0290936B0264E670E025
:1014B00080E090E00E94DC01C701B6010E94A80B09
:1014C0006F3071050CF074C06EE47FEF88E592E038
:1014D0000E94C90362EB70E084E592E00E94C903B8
:1014E00028E0E22EF12C64E670E080E090E00E94BB
:1014F000DC0121E0E21AF108B1F70E94860168ECF4
:1015000070E080E090E00E94DC0152C0029709F098
:101510004FC061E081E10E949F0081E00E94A00134
:101520007C0160E081E10E949F0020917002309177
:1015300071028091720290917302232B21F08E151B
:101540009F05CCF103C0E816F906ACF161E081E13A
:101550000E949F0080E00E94A0017C0160E081E188
:101560000E949F002091700230917102809172025E
:1015700090917302232B31F18E159F0534F161E0B8
:1015800081E10E949F0082E00E94A0017C0160E056
:1015900081E10E949F002091700230917102809140
:1015A000720290917302232B71F18E159F0574F1D5
:1015B0000E94030399CD80910001909101010E9446
:1015C000F503F6CFE816F906D4F620910001309124
:1015D000010137FF02C02F5F3F4F359527954FEF31
:1015E000429FC001439F900D1124B8010E94FD0C41
:1015F0007B01662777276E197F0988E592E00E94B4
:10160000C903B7011FC0E816F90694F6209100013E
:101610003091010137FF02C02F5F3F4F359527956D
:101620004FEF429FC001439F900D1124B8010E94CB
:10163000FD0C7B0188E592E00E94C90366277727AD
:101640006E197F0984E592E00E94C903B1CF86E15B
:1016500091E0909336028093350285E392E00C94FA
:10166000B3030E941B0C08F481E008950E944A0B0A
:101670000C94560C0E944F0C58F00E94480C40F0FD
:1016800029F45F3F29F00C943F0C51110C948A0C03
:101690000C94450C0E94670C68F39923B1F3552311
:1016A00091F3951B550BBB27AA2762177307840775
:1016B00038F09F5F5F4F220F331F441FAA1FA9F30B
:1016C00035D00E2E3AF0E0E832D091505040E695F9
:1016D000001CCAF72BD0FE2F29D0660F771F881F5A
:1016E000BB1F261737074807AB07B0E809F0BB0B4D
:1016F000802DBF01FF2793585F4F3AF09E3F510561
:1017000078F00C943F0C0C948A0C5F3FE4F3983E05
:10171000D4F3869577956795B795F7959F5FC9F749
:10172000880F911D9695879597F90895E1E0660FCA
:10173000771F881FBB1F621773078407BA0720F043
:10174000621B730B840BBA0BEE1F88F7E0950895AC
:101750000E94AF0B6894B1110C948A0C08950E94FA
:101760006F0C88F09F5798F0B92F9927B751B0F0B8
:10177000E1F0660F771F881F991F1AF0BA95C9F715
:1017800014C0B13091F00E94890CB1E008950C941E
:10179000890C672F782F8827B85F39F0B93FCCF3D1
:1017A000869577956795B395D9F73EF49095809592
:1017B000709561957F4F8F4F9F4F0895E89409C0B2
:1017C00097FB3EF490958095709561957F4F8F4F74
:1017D0009F4F9923A9F0F92F96E9BB279395F6958A
:1017E000879577956795B795F111F8CFFAF4BB0F08
:1017F00011F460FF1BC06F5F7F4F8F4F9F4F16C06C
:10180000882311F096E911C0772321F09EE8872FF5
:10181000762F05C0662371F096E8862F70E060E0B1
:101820002AF09A95660F771F881FDAF7880F96952A
:10183000879597F90895990F0008550FAA0BE0E8CE
:10184000FEEF16161706E807F907C0F01216130682
:10185000E407F50798F0621B730B840B950B39F4C2
:101860000A2661F0232B242B252B21F408950A2628
:1018700009F4A140A6958FEF811D811D089597F968
:101880009F6780E870E060E008959FEF80EC089526
:1018900000240A941616170618060906089500244F
:1018A0000A9412161306140605060895092E0394C9
:1018B000000C11F4882352F0BB0F40F4BF2B11F43D
:1018C00060FF04C06F5F7F4F8F4F9F4F089557FD9C
:1018D0009058440F551F59F05F3F71F04795880F9E
:1018E00097FB991F61F09F3F79F087950895121635
:1018F00013061406551FF2CF4695F1DF08C01616E1
:1019000017061806991FF1CF869571056105089491
:101910000895E894BB2766277727CB0197F90895A8
:101920000E94A30C0C94560C0E94480C38F00E94A4
:101930004F0C20F0952311F00C943F0C0C94450CA7
:1019400011240C948A0C0E94670C70F3959FC1F3CC
:10195000950F50E0551F629FF001729FBB27F00D5D
:10196000B11D639FAA27F00DB11DAA1F649F6627B2
:10197000B00DA11D661F829F2227B00DA11D621F01
:10198000739FB00DA11D621F839FA00D611D221FBB
:10199000749F3327A00D611D231F849F600D211D9F
:1019A000822F762F6A2F11249F5750409AF0F1F022
:1019B00088234AF0EE0FFF1FBB1F661F771F881F8B
:1019C00091505040A9F79E3F510580F00C943F0C78
:1019D0000C948A0C5F3FE4F3983ED4F38695779598
:1019E0006795B795F795E7959F5FC1F7FE2B880F31
:1019F000911D9695879597F9089597FB072E16F4F4
:101A0000009407D077FD09D00E94390D07FC05D05E
:101A10003EF4909581959F4F0895709561957F4F05
:101A20000895A1E21A2EAA1BBB1BFD010DC0AA1F1F
:101A3000BB1FEE1FFF1FA217B307E407F50720F037
:101A4000A21BB30BE40BF50B661F771F881F991FB2
:101A50001A9469F760957095809590959B01AC01FB
:101A6000BD01CF010895EE0FFF1F0590F491E02D09
:101A70000994AA1BBB1B51E107C0AA1FBB1FA617D5
:101A8000B70710F0A61BB70B881F991F5A95A9F727
:101A900080959095BC01CD01089581E090E0F89487
:101AA0000C94520D10E0C4E7D0E004C0FE010E9487
:0E1AB000330D2196C537D107C9F7F894FFCF43
:101ABE006400000000009A02160263024102550201
:101ACE00E10200000000260316027A0392030D03C2
:101ADE002503204578616D706C6520666F7220421B
:101AEE006C7565746F6F7468204578706572696582
:081AFE006E636520000D0A0073
:00000001FF
