:100000000C9463000C948B000C948B000C942305CF
:100010000C9423050C9423050C948B000C948B00FA
:100020000C948B000C948B000C948B000C948B0024
:100030000C948B000C948B000C948B000C948B0014
:100040000C9481040C948B000C94F1040C94CB045C
:100050000C948B000C948B000C948B000C948B00F4
:100060000C948B000C948B000000000024002700EF
:100070002A0000000008000201000003040700003D
:1000800000000000000000000000250028002B00F8
:1000900000000000230026002900040404040404D6
:1000A0000404020202020202030303030303010227
:1000B00004081020408001020408102001020408F6
:1000C0001020E205980911241FBECFEFD8E0DEBF53
:1000D000CDBF11E0A0E0B1E0E0EAF7E102C0059099
:1000E0000D92AE34B107D9F722E0AEE4B1E001C021
:1000F0001D92AA37B207E1F710E0C2E6D0E004C0D3
:100100002197FE010E94B80BC136D107C9F70E94A2
:10011000ED060C94C30B0C94000090E0FC01EE582B
:10012000FF4F3491FC01E255FF4F2491FC01E6564C
:10013000FF4FE491EE2309F43BC0332339F1333010
:1001400091F038F43130A9F0323001F584B58F7D6B
:1001500012C0373091F03830A1F03430B9F48091CA
:1001600080008F7D03C0809180008F778093800016
:100170000DC084B58F7784BD09C08091B0008F77A2
:1001800003C08091B0008F7D8093B000F0E0EE0F4F
:10019000FF1FEA57FF4FA591B4918FB7F894EC91E8
:1001A000611103C020952E2301C02E2B2C938FBFED
:1001B0000895CF93DF9390E0FC01E255FF4F249127
:1001C000FC01E656FF4F8491882361F190E0880F8F
:1001D000991FFC01E859FF4FC591D491FC01EA57E2
:1001E000FF4FA591B491611109C09FB7F894888120
:1001F000209582238883EC912E230BC0623061F41A
:100200009FB7F8943881822F809583238883EC915F
:100210002E2B2C939FBF06C08FB7F894E8812E2B0E
:1002200028838FBFDF91CF9108951F93CF93DF93E2
:10023000182FEB0161E00E94D900209711F460E0D3
:1002400004C0CF3FD10539F461E0812FDF91CF9118
:100250001F910C948D00E12FF0E0EE58FF4FE491D8
:10026000E330F9F048F4E130B9F0E230A1F584B5BB
:10027000806284BDC8BD34C0E730E9F0E83019F1D0
:10028000E43049F580918000806280938000D093B3
:100290008B00C0938A0024C084B5806884BDC7BD2C
:1002A0001FC080918000806880938000D093890077
:1002B000C093880015C08091B00080688093B00022
:1002C000C093B3000DC08091B00080628093B000F5
:1002D000C093B40005C0C038D1050CF0B5CFAFCF86
:1002E000DF91CF911F910895CF93DF93CAE5D2E0BC
:1002F00060E070E08E810E94150160E070E08C810A
:100300000E94150160E070E08A810E94150160E0A2
:1003100070E08881DF91CF910C9415013FB7F8947C
:1003200080919A0190919B01A0919C01B0919D01B7
:1003300026B5A89B05C02F3F19F00196A11DB11D40
:100340003FBFBA2FA92F982F8827820F911DA11D7B
:10035000B11DBC01CD0142E0660F771F881F991FB8
:100360004A95D1F708958F929F92AF92BF92CF9204
:10037000DF92EF92FF926B017C010E948E014B0194
:100380005C01C114D104E104F104F1F00E948E017A
:10039000DC01CB0188199909AA09BB09883E934061
:1003A000A105B10570F321E0C21AD108E108F108F6
:1003B00088EE880E83E0981EA11CB11CC114D104E4
:1003C000E104F10419F7DDCFFF90EF90DF90CF90BB
:1003D000BF90AF909F908F900895CF92DF92EF9251
:1003E000FF920F931F93CF93DF936C017A018B01E0
:1003F000C0E0D0E0CE15DF0589F0D8016D918D0108
:10040000D601ED91FC910190F081E02DC601099596
:10041000892B11F47E0102C02196ECCFC701DF9138
:10042000CF911F910F91FF90EF90DF90CF900895A3
:10043000FC01918D828D981761F0828DDF01A80FEC
:10044000B11D5D968C91928D9F5F9F73928F90E00E
:1004500008958FEF9FEF0895FC01918D828D98177D
:1004600031F0828DE80FF11D858D90E008958FEFBA
:100470009FEF0895FC01918D228D892F90E0805C83
:100480009F4F821B91098F73992708958EE991E000
:100490000E943A0221E0892B09F420E0822F08957E
:1004A000FC01848DDF01A80FB11DA35ABF4F2C9111
:1004B000848D90E001968F739927848FA689B789E0
:1004C0002C93A089B1898C9180648C93938D848DB9
:1004D000981306C00288F389E02D80818F7D808388
:1004E0000895EF92FF920F931F93CF93DF93EC0148
:1004F00081E0888F9B8D8C8D981305C0E889F989E0
:10050000808185FD24C0F62E0B8D10E00F5F1F4FFC
:100510000F731127E02E8C8DE8120CC00FB607FC6C
:10052000FACFE889F989808185FFF5CFCE010E9455
:100530005002F1CF8B8DFE01E80FF11DE35AFF4F02
:10054000F0820B8FEA89FB898081806207C0EE8987
:10055000FF896083E889F98980818064808381E0F4
:1005600090E0DF91CF911F910F91FF90EF90089550
:10057000CF93DF93EC01888D8823C9F0EA89FB894A
:10058000808185FD05C0A889B9898C9186FD0FC041
:100590000FB607FCF5CF808185FFF2CFA889B98916
:1005A0008C9185FFEDCFCE010E945002E7CFDF9105
:1005B000CF91089580E090E0892B29F00E944602B7
:1005C00081110C94000008952091900130919101C7
:1005D0002817390771F490918E0180918F01981737
:1005E00041F0E0918E01F0E0E25BFE4F808190E00F
:1005F00008958FEF9FEF089508951F93CF93DF9392
:10060000DC015C962D913C915D972115310539F403
:1006100081E090E013969C938E9312973DC0519683
:10062000ED91FC91529750969C915097892F80950F
:100630001FB75E964C915E9741FB772770F941FD9D
:100640006095F8944081772311F0492B01C048232D
:100650004083E9012197F1F748E0508160FF02C033
:10066000592B01C058235083E9012197F1F7669572
:10067000415099F7772321F090818923808303C02B
:100680008081982B90831FBF5C968D919C915D9784
:100690000197F1F721E030E0C901DF91CF911F917F
:1006A000089520919001309191012817390771F434
:1006B00080918F0120918E0190E0805C9F4F821B82
:1006C000910960E470E00E946E0B089580E090E074
:1006D0000895209190013091910128173907B9F4BC
:1006E00090918E0180918F01981789F0E0918E0191
:1006F000F0E0E25BFE4F808120918E0130E02F5FC1
:100700003F4F2F73332720938E0190E008958FEF92
:100710009FEF0895E0919001F0919101E817F9079A
:1007200069F4A389B4899C918589809589238C93E8
:10073000109291011092900181E0089580E0089557
:100740000F931F93CF93DF938C016F3F710519F0C7
:1007500014F06FEF70E0EB0161307F4F14F4C1E0F3
:10076000DFEF60E070E0F801D7FD07C082810E94F2
:100770001501BE01F801808109C080810E94150128
:10078000662777276C1B7D0BF8018281DF91CF9163
:100790001F910F910C941501EF92FF921F93CF932D
:1007A000DF937B011FEF9C01129FC001139F900DEF
:1007B0001124C4E6D0E0BE010E946E0B8EE592E0EB
:1007C0000E94A0031E9DC0011F9D900D1124BE011B
:1007D0000E946E0B8AE592E0DF91CF911F91FF900E
:1007E000EF900C94A0030F931F9360E0809162023E
:1007F0000E948D0083E090E00197F1F761E0809125
:1008000062020E948D0083E290E00197F1F760E0C0
:10081000809162020E948D00809164029091650235
:100820009927FC01E255FF4F6491FC01E656FF4F0A
:10083000E491F0E0EE0FFF1FE057FF4F8591949198
:10084000009166021091670220916802309169025E
:100850003F70462F0E949D05611571058105910528
:1008600049F0DC01CB010196A11DB11DBC01CD01F8
:100870009F7003C060E070E0CB010E944F0A60935C
:100880006A0270936B0280936C0290936D0220E079
:1008900030E0A9010E94A209811112C06091660294
:1008A0007091670280916802909169020E94510ADA
:1008B00060936A0270936B0280936C0290936D0256
:1008C00060916A0270916B0280916C0290916D024E
:1008D0000E94190A1F910F910895009769F0FC0179
:1008E00001900020E9F73197AF01481B590BBC017B
:1008F0008EE991E00C94ED0180E090E008950E9473
:10090000BE0B1F920F920FB60F9211242F933F939D
:100910008F939F93AF93BF9380919601909197018E
:10092000A0919801B09199013091950123E0230F96
:100930002D3720F40196A11DB11D05C026E8230F17
:100940000296A11DB11D209395018093960190936D
:100950009701A0939801B093990180919A01909189
:100960009B01A0919C01B0919D010196A11DB11D1B
:1009700080939A0190939B01A0939C01B0939D0159
:10098000BF91AF919F918F913F912F910F900FBE8B
:100990000F901F9018951F920F920FB60F9211246F
:1009A0002F933F934F935F936F937F938F939F9377
:1009B000AF93BF93EF93FF938EE991E00E945002B3
:1009C000FF91EF91BF91AF919F918F917F916F9127
:1009D0005F914F913F912F910F900FBE0F901F90FD
:1009E00018951F920F920FB60F9211242F938F9389
:1009F0009F93EF93FF93E091AE01F091AF0180815F
:100A0000E091B401F091B50182FD12C09081809116
:100A1000B7018F5F8F732091B801821751F0E09179
:100A2000B701F0E0E256FE4F958F8093B70101C009
:100A30008081FF91EF919F918F912F910F900FBE29
:100A40000F901F9018951F920F920FB60F921124BE
:100A50002F933F934F935F936F937F938F939F93C6
:100A6000AF93BF93EF93FF93E0919001F0919101C9
:100A7000309709F451C0968DA685B785858591FF7D
:100A800004C09C91892329F447C09C91892309F0D3
:100A900043C0A389B4899C918589809589238C93CF
:100AA000868997890197F1F7608D718DA685B78545
:100AB000558538E020E0CB010197F1F7822F90E0D7
:100AC00095958795282F4C91452309F02068315042
:100AD00091F7868D81FD209580918F0190E00196A0
:100AE0008F73992730918E01381749F0A0918F01AB
:100AF000B0E0A25BBE4F2C9380938F0103C0868D24
:100B00008160868F828D938D0197F1F7A389B489D7
:100B10009C918589892B8C93FF91EF91BF91AF9127
:100B20009F918F917F916F915F914F913F912F9105
:100B30000F900FBE0F901F901895CF92DF92EF92FB
:100B4000FF920F931F93E82FF92F05C00150110951
:100B50002109310961F1908196239417B9F305C0F9
:100B6000015011092109310911F190819623941343
:100B7000F7CFC12CD12CE12CF12C0AC08FEFC81A71
:100B8000D80AE80AF80A0C151D052E053F0579F06C
:100B900080818623841791F36C2D7D2D8E2D9F2DC2
:100BA0001F910F91FF90EF90DF90CF90089560E03C
:100BB00070E080E090E01F910F91FF90EF90DF9048
:100BC000CF900895CF92DF92EF92FF921092A10101
:100BD0001092A00198EEC92E93E0D92EE12CF12CB1
:100BE000C092A201D092A301E092A401F092A501CB
:100BF00084E091E090939F0180939E0185EC90E0CA
:100C00009093AB018093AA0184EC90E09093AD01A6
:100C10008093AC0180EC90E09093AF018093AE01A3
:100C200081EC90E09093B1018093B00182EC90E070
:100C30009093B3018093B20186EC90E09093B5015C
:100C40008093B4011092B7011092B8011092B901CB
:100C50001092BA0189E090E090935B0280935A026F
:100C60008AE090E090935D0280935C0261E089E00D
:100C70000E94D90061E080915C020E94D90085E069
:100C800090E090935F0280935E0286E090E0909304
:100C900061028093600261E085E00E94D90061E01A
:100CA000809160020E94D90061E084E00E94D90036
:100CB00060E083E00E94D90084E090E090936302BA
:100CC0008093620283E090E09093650280936402D7
:100CD00088EB9BE0A0E0B0E080936602909367020F
:100CE000A0936802B093690281E090E0909377024C
:100CF0008093760280E991E0909379028093780264
:100D000010923E0210923D02C0923F02D0924002E9
:100D1000E0924102F092420284E191E090933C0221
:100D200080933B0210925202109251021092540290
:100D300010925302109256021092550210925802CD
:100D400010925702609159026E7F6D7F6093590235
:100D50006695617081E0682787E00E948D0061E000
:100D600087E00E94D900E5EBF0E0E491E0934B02CC
:100D7000E1EAF0E0E491F0E0EE0FFF1FEA57FF4FE9
:100D80008591949190934D0280934C0260E088E0AD
:100D90000E94D9008091590281FD04C061E088E081
:100DA0000E948D0088E080934702E6EBF0E0E4913A
:100DB000E0934802E2EAF0E0E491F0E0EE0FFF1F7A
:100DC000E057FF4F8591949190934A028093490296
:100DD000FF90EF90DF90CF900895CF93DF93CDB742
:100DE000DEB7A1970FB6F894DEBF0FBECDBF7894E3
:100DF00084B5826084BD84B5816084BD85B5826020
:100E000085BD85B5816085BD80916E0081608093D0
:100E10006E00109281008091810082608093810039
:100E20008091810081608093810080918000816049
:100E3000809380008091B10084608093B1008091A4
:100E4000B00081608093B00080917A0084608093CC
:100E50007A0080917A00826080937A0080917A0093
:100E6000816080937A0080917A00806880937A0014
:100E70001092C10010925602109255021092540224
:100E80001092530210925202109251028DE991E099
:100E9000909358028093570290914702963108F040
:100EA00057C02DEB30E030935202209351022BE9D2
:100EB00031E030935402209353022CE231E030931E
:100EC00056022093550220916800983050F031E08E
:100ED0009E3008F430E081E001C0880F3A95EAF7CF
:100EE00001C084E0822B80936800983038F09E30F7
:100EF00040F0963148F020E030E008C02DE630E0C8
:100F000005C02BE630E002C02CE630E030934F0203
:100F100020934E02983030F481E001C0880F9A95FA
:100F2000EAF70EC0292F30E09E3018F4285031091E
:100F300002C02E50310981E001C0880F2A95EAF7DE
:100F40008093500280915702909158020197F1F7D7
:100F50008091550290915602892B21F18091900148
:100F60009091910122E08B339207E1F0009711F00C
:100F70000E948A03809159028E7F809359021092B9
:100F80008F0110928E018BE392E0909391018093F8
:100F90009001E0914E02F0914F02908180915002B9
:100FA000892B8083E091AE01F091AF0182E08083D4
:100FB000E091AA01F091AB011082E091AC01F091B7
:100FC000AD018FEC80831092B601E091B201F091F7
:100FD000B30186E08083E091B001F091B10180819E
:100FE00080618083E091B001F091B10180818860DF
:100FF0008083E091B001F091B101808180688083AD
:10100000E091B001F091B10180818F7D808380E219
:1010100091E00E946D048AE491E00E946D0460ED0D
:1010200077E080E090E00E94B30182E0E82EF12CAE
:10103000CC24C394D12C2AE0422E512C612C712C4B
:101040008BE392E00E945103181619060CF055C06C
:101050008BE392E00E9469038093940120919201B6
:1010600030919301232B81F5883411F14CF48634AF
:1010700069F0873449F564E670E082E390E021C0CE
:101080008A34D9F084F0833589F11EC06FEF70E0A7
:101090008EE592E00E94A0036FEF70E08AE592E097
:1010A0000E94A0032AC062E370E084E690E009C0D9
:1010B0006CE97FEF8EEC9FEF04C06EEC7FEF8CE964
:1010C0009FEF0E94CC0319C0883599F03CF4863517
:1010D000A1F4D0929301C09292010FC0863711F013
:1010E000883759F410929301109292010E94740172
:1010F00004C0F0929301E09292018091920190914C
:101100009301019709F011C10E94F3032EEA37E41D
:101110004BEE51E460916A0270916B0280916C0217
:1011200090916D020E94A70920E030E040E05FE36B
:101130000E94010B4B015C0160936E0270936F0281
:10114000809370029093710264E670E080E090E01A
:101150000E94B301C501B4010E94190A1B014B0191
:10116000770FAA08BB08B7FE26C0E0919E01F09158
:101170009F010190F081E02D6DE28EE991E00995EB
:1011800022273327A901281939094A095B0919A21D
:101190008E010F5D1F4FCA01B901A30192010E9488
:1011A000820B605DF80162938F01211531054105C5
:1011B000510589F715C0A501940119A28E010F5D93
:1011C0001F4FCA01B901A30192010E94820B605D09
:1011D000F80162938F01211531054105510589F709
:1011E000C8010E946D048AE491E00E946D04FFE052
:1011F0002F1631040CF08DC00E94740164E670E07B
:1012000080E090E00E94B30164E37FEF8EE592E01E
:101210000E94A00364E37FEF8AE592E00E94A003AE
:101220006CE271E080E090E00E94B30162EB70E05C
:101230008EE592E00E94A0036EE47FEF8AE592E0E3
:101240000E94A00364E670E080E090E00E94B30199
:1012500064E670E080E090E00E94B30164E670E034
:1012600080E090E00E94B3010E94740168EC70E09D
:1012700080E090E00E94B3010E94F3032EEA37E47D
:101280004BEE51E460916A0270916B0280916C02A6
:1012900090916D020E94A70920E030E040E05FE3FA
:1012A0000E94010B4B015C0160936E0270936F0210
:1012B000809370029093710264E670E080E090E0A9
:1012C0000E94B301C501B4010E94190A6F30710573
:1012D00064F56EE47FEF8EE592E00E94A00362EB7E
:1012E00070E08AE592E00E94A00308E010E064E666
:1012F00070E080E090E00E94B30101501109B9F75D
:101300000E94740168EC70E080E090E00E94B301FC
:101310000CC06CEC70E08EE592E00E94A0036CECD7
:1013200070E08AE592E00E94A0030E94DA0288CE73
:1013300084E191E090933C0280933B028BE392E046
:101340000C948A030E948C0A08F481E008950E949C
:10135000BB090C94C70A0E94C00A58F00E94B90A3F
:1013600040F029F45F3F29F00C94B00A51110C941D
:10137000FB0A0C94B60A0E94D80A68F39923B1F3C9
:10138000552391F3951B550BBB27AA2762177307AB
:10139000840738F09F5F5F4F220F331F441FAA1F3F
:1013A000A9F335D00E2E3AF0E0E832D091505040FB
:1013B000E695001CCAF72BD0FE2F29D0660F771FA9
:1013C000881FBB1F261737074807AB07B0E809F08F
:1013D000BB0B802DBF01FF2793585F4F3AF09E3F14
:1013E000510578F00C94B00A0C94FB0A5F3FE4F3CB
:1013F000983ED4F3869577956795B795F7959F5F57
:10140000C9F7880F911D9695879597F90895E1E0A2
:10141000660F771F881FBB1F621773078407BA0701
:1014200020F0621B730B840BBA0BEE1F88F7E0955C
:1014300008950E94200A6894B1110C94FB0A089543
:101440000E94E00A88F09F5798F0B92F9927B7516A
:10145000B0F0E1F0660F771F881F991F1AF0BA9558
:10146000C9F714C0B13091F00E94FA0AB1E00895B2
:101470000C94FA0A672F782F8827B85F39F0B93FA4
:10148000CCF3869577956795B395D9F73EF490950B
:101490008095709561957F4F8F4F9F4F0895E89489
:1014A00009C097FB3EF490958095709561957F4FAC
:1014B0008F4F9F4F9923A9F0F92F96E9BB2793955A
:1014C000F695879577956795B795F111F8CFFAF46A
:1014D000BB0F11F460FF1BC06F5F7F4F8F4F9F4F9B
:1014E00016C0882311F096E911C0772321F09EE8F9
:1014F000872F762F05C0662371F096E8862F70E05F
:1015000060E02AF09A95660F771F881FDAF7880F38
:101510009695879597F90895990F0008550FAA0B8E
:10152000E0E8FEEF16161706E807F907C0F01216F6
:101530001306E407F50798F0621B730B840B950BF9
:1015400039F40A2661F0232B242B252B21F408954E
:101550000A2609F4A140A6958FEF811D811D0895EB
:1015600097F99F6780E870E060E008959FEF80EC56
:10157000089500240A9416161706180609060895F9
:1015800000240A9412161306140605060895092E5F
:101590000394000C11F4882352F0BB0F40F4BF2BCE
:1015A00011F460FF04C06F5F7F4F8F4F9F4F08950E
:1015B00057FD9058440F551F59F05F3F71F0479504
:1015C000880F97FB991F61F09F3F79F087950895E9
:1015D000121613061406551FF2CF4695F1DF08C008
:1015E000161617061806991FF1CF86957105610525
:1015F00008940895E894BB2766277727CB0197F9CD
:1016000008950E94140B0C94C70A0E94B90A38F07E
:101610000E94C00A20F0952311F00C94B00A0C949B
:10162000B60A11240C94FB0A0E94D80A70F3959F05
:10163000C1F3950F50E0551F629FF001729FBB27C9
:10164000F00DB11D639FAA27F00DB11DAA1F649F65
:101650006627B00DA11D661F829F2227B00DA11D18
:10166000621F739FB00DA11D621F839FA00D611D9E
:10167000221F749F3327A00D611D231F849F600DBF
:10168000211D822F762F6A2F11249F5750409AF0E8
:10169000F1F088234AF0EE0FFF1FBB1F661F771F74
:1016A000881F91505040A9F79E3F510580F00C943F
:1016B000B00A0C94FB0A5F3FE4F3983ED4F386959E
:1016C00077956795B795F795E7959F5FC1F7FE2BDF
:1016D000880F911D9695879597F9089597FB072E8A
:1016E00016F4009407D077FD09D00E94A40B07FCE4
:1016F00005D03EF4909581959F4F08957095619522
:101700007F4F0895A1E21A2EAA1BBB1BFD010DC03D
:10171000AA1FBB1FEE1FFF1FA217B307E407F507A1
:1017200020F0A21BB30BE40BF50B661F771F881F7D
:10173000991F1A9469F760957095809590959B0113
:10174000AC01BD01CF010895AA1BBB1B51E107C02D
:10175000AA1FBB1FA617B70710F0A61BB70B881F41
:10176000991F5A95A9F780959095BC01CD010895D0
:10177000EE0FFF1F0590F491E02D099481E090E0B9
:10178000F8940C94C30B10E0C2E6D0E004C0FE0154
:101790000E94B80B2196C336D107C9F7F894FFCF42
:1017A000000000007102ED013A0218022C02B8029A
:1017B00000000000FD02ED0151036903E402FC0298
:1017C000204578616D706C6520666F72205465737A
:1017D00074696E67204843303520426C7565746FBC
:0E17E0006F7468204461746120000D0A0000DF
:00000001FF
