:100000000C9462000C948A000C948A000C948A0070
:100010000C948A000C948A000C948A000C948A0038
:100020000C948A000C948A000C948A000C948A0028
:100030000C948A000C948A000C948A000C948A0018
:100040000C94BD020C948A000C942D030C940703AD
:100050000C948A000C948A000C948A000C948A00F8
:100060000C948A000C948A000000000023002600F3
:10007000290000000000240027002A0000000000E2
:10008000250028002B0004040404040404040202D4
:100090000202020203030303030301020408102007
:1000A0004080010204081020010204081020000012
:1000B0000008000201000003040700000000000027
:1000C0000000A40311241FBECFEFD8E0DEBFCDBFD8
:1000D00011E0A0E0B1E0EAEBFDE002C005900D9276
:1000E000AA31B107D9F721E0AAE1B1E001C01D9220
:1000F000A03EB207E1F710E0C2E6D0E004C02197CD
:10010000FE010E94D006C136D107C9F70E9417042C
:100110000C94DB060C940000FC01918D828D9817E5
:1001200061F0828DDF01A80FB11D5D968C91928DDB
:100130009F5F9F73928F90E008958FEF9FEF0895D8
:10014000FC01918D828D981731F0828DE80FF11DA1
:10015000858D90E008958FEF9FEF0895FC01918DBC
:10016000228D892F90E0805C9F4F821B91098F73B5
:1001700099270895FC01848DDF01A80FB11DA35AB2
:10018000BF4F2C91848D90E001968F739927848FB7
:10019000A689B7892C93A089B1898C9180648C93AE
:1001A000938D848D981306C00288F389E02D808199
:1001B0008F7D80830895EF92FF920F931F93CF93CB
:1001C000DF93EC0181E0888F9B8D8C8D981305C0A7
:1001D000E889F989808185FD24C0F62E0B8D10E019
:1001E0000F5F1F4F0F731127E02E8C8DE8120CC08C
:1001F0000FB607FCFACFE889F989808185FFF5CF32
:10020000CE010E94BA00F1CF8B8DFE01E80FF11DE7
:10021000E35AFF4FF0820B8FEA89FB89808180626D
:1002200007C0EE89FF896083E889F989808180644D
:10023000808381E090E0DF91CF911F910F91FF903B
:10024000EF900895CF93DF93EC01888D8823C9F058
:10025000EA89FB89808185FD05C0A889B9898C91CF
:1002600086FD0FC00FB607FCF5CF808185FFF2CF6A
:10027000A889B9898C9185FFEDCFCE010E94BA0083
:10028000E7CFDF91CF91089583E291E00E94AE0025
:1002900021E0892B09F420E0822F089580E090E08E
:1002A000892B29F00E94440181110C9400000895CB
:1002B00090E0FC01E255FF4F3491FC01E656FF4F00
:1002C0002491FC01EA57FF4FE491EE2309F43BC06F
:1002D000332339F1333091F038F43130A9F0323032
:1002E00001F584B58F7D12C0373091F03830A1F020
:1002F0003430B9F4809180008F7D03C080918000FC
:100300008F77809380000DC084B58F7784BD09C03E
:100310008091B0008F7703C08091B0008F7D809373
:10032000B000F0E0EE0FFF1FE458FF4FA591B4912D
:100330008FB7F894EC91611103C020952E2301C072
:100340002E2B2C938FBF0895CF93DF9390E0FC0169
:10035000E656FF4F2491FC01EA57FF4F8491882312
:1003600061F190E0880F991FFC01EE58FF4FC59195
:10037000D491FC01E458FF4FA591B491611109C0DB
:100380009FB7F8948881209582238883EC912E234F
:100390000BC0623061F49FB7F8943881822F80954A
:1003A00083238883EC912E2B2C939FBF06C08FB79D
:1003B000F894E8812E2B28838FBFDF91CF91089589
:1003C0001F93CF93DF93182FEB0161E00E94A401EC
:1003D000209711F460E004C0CF3FD10539F461E00B
:1003E000812FDF91CF911F910C945801E12FF0E004
:1003F000E255FF4FE491E330F9F048F4E130B9F011
:10040000E230A1F584B5806284BDC8BD34C0E73058
:10041000E9F0E83019F1E43049F58091800080621C
:1004200080938000D0938B00C0938A0024C084B551
:10043000806884BDC7BD1FC08091800080688093A4
:100440008000D0938900C093880015C08091B000CF
:1004500080688093B000C093B3000DC08091B0005D
:1004600080628093B000C093B40005C0C038D1054D
:100470000CF0B5CFAFCFDF91CF911F9108953FB76B
:10048000F89480911F0190912001A0912101B091D9
:10049000220126B5A89B05C02F3F19F00196A11D8A
:1004A000B11D3FBFBA2FA92F982F8827820F911D0A
:1004B000A11DB11DBC01CD0142E0660F771F881F51
:1004C000991F4A95D1F70895CF92DF92EF92FF924C
:1004D0000F931F93CF93DF936C017A018B01C0E0E0
:1004E000D0E0CE15DF0589F0D8016D918D01D601E0
:1004F000ED91FC910190F081E02DC6010995892BC9
:1005000011F47E0102C02196ECCFC701DF91CF919B
:100510001F910F91FF90EF90DF90CF9008950F9370
:100520001F93CF93DF938C016F3F710519F014F087
:100530006FEF70E0EB0161307F4F14F4C1E0DFEF4B
:1005400060E070E0F801D7FD07C082810E94E00101
:10055000BE01F801808109C080810E94E001662708
:1005600077276C1B7D0BF8018281DF91CF911F9162
:100570000F910C94E0010E94D6061F920F920FB6C5
:100580000F9211242F933F938F939F93AF93BF9319
:1005900080911B0190911C01A0911D01B0911E0141
:1005A00030911A0123E0230F2D3720F40196A11D6D
:1005B000B11D05C026E8230F0296A11DB11D209391
:1005C0001A0180931B0190931C01A0931D01B0930D
:1005D0001E0180911F0190912001A0912101B091F5
:1005E00022010196A11DB11D80931F01909320014E
:1005F000A0932101B0932201BF91AF919F918F9160
:100600003F912F910F900FBE0F901F9018951F9242
:100610000F920FB60F9211242F933F934F935F9336
:100620006F937F938F939F93AF93BF93EF93FF93BA
:1006300083E291E00E94BA00FF91EF91BF91AF91E8
:100640009F918F917F916F915F914F913F912F91EA
:100650000F900FBE0F901F9018951F920F920FB61C
:100660000F9211242F938F939F93EF93FF93E09119
:100670003301F09134018081E0913901F0913A0128
:1006800082FD12C0908180913C018F5F8F73209119
:100690003D01821751F0E0913C01F0E0ED5DFE4F2D
:1006A000958F80933C0101C08081FF91EF919F91D4
:1006B0008F912F910F900FBE0F901F901895CF9292
:1006C000DF92EF92FF920F931F93E82FF92F05C04F
:1006D000015011092109310961F190819623941784
:1006E000B9F305C0015011092109310911F19081B7
:1006F00096239413F7CFC12CD12CE12CF12C0AC0F6
:100700008FEFC81AD80AE80AF80A0C151D052E053D
:100710003F0579F080818623841791F36C2D7D2D20
:100720008E2D9F2D1F910F91FF90EF90DF90CF9016
:10073000089560E070E080E090E01F910F91FF90DD
:10074000EF90DF90CF900895CF93DF93E3E2F1E055
:100750001382128288EE93E0A0E0B0E08483958358
:10076000A683B78384E091E09183808385EC90E059
:100770009587848784EC90E09787868780EC90E06B
:10078000918B808B81EC90E0938B828B82EC90E05C
:10079000958B848B86EC90E0978B868B118E128ED6
:1007A000138E148EC0ECD1E089E090E099838883A9
:1007B0008AE090E09B838A8361E089E00E94A40143
:1007C00061E08A810E94A40185E090E09D838C8392
:1007D00086E090E09F838E8361E085E00E94A40123
:1007E00061E08E810E94A40161E084E00E94A40186
:1007F00060E083E00E94A40184E090E0998788870C
:1008000083E090E09B878A8788EB9BE0A0E0B0E0E4
:100810008C879D87AE87BF8781E090E09D8F8C8F0E
:1008200080E991E09F8F8E8FDF91CF91089578942A
:1008300084B5826084BD84B5816084BD85B58260E5
:1008400085BD85B5816085BD80916E008160809396
:100850006E001092810080918100826080938100FF
:10086000809181008160809381008091800081600F
:10087000809380008091B10084608093B10080916A
:10088000B00081608093B00080917A008460809392
:100890007A0080917A00826080937A0080917A0059
:1008A000816080937A0080917A00806880937A00DA
:1008B0001092C100C3E0D0E023E2222E312C60E090
:1008C0008091C8010E945801CE010197F1F761E0C3
:1008D0008091C8010E945801C1010197F1F760E0C1
:1008E0008091C8010E9458018091CA019091CB016A
:1008F0009927FC01E656FF4F6491FC01EA57FF4F30
:10090000E491F0E0EE0FFF1FE859FF4F85919491BD
:100910000091CC011091CD012091CE013091CF01F9
:100920003F70462F0E945F03611571058105910597
:1009300049F0DC01CB010196A11DB11DBC01CD0127
:100940009F7003C060E070E0CB010E94AC05609333
:10095000D0017093D1018093D2019093D30120E014
:1009600030E0A9010E943505811112C06091CC01CF
:100970007091CD018091CE019091CF010E94AE0582
:100980006093D0017093D1018093D2019093D301F1
:100990002EEA37E44BEE51E46091D0017091D10121
:1009A0008091D2019091D3010E943A0520E030E07D
:1009B00040E05FE30E9463062B013C016093D40199
:1009C0007093D5018093D6019093D7010E943F0286
:1009D0006B017C0184E6882E912CA12CB12C0E9405
:1009E0003F02DC01CB018C199D09AE09BF09883E8D
:1009F0009340A105B10558F021E0821A9108A108A1
:100A0000B10888EEC80E83E0D81EE11CF11C8114E9
:100A10009104A104B10419F720E030E040EA50E469
:100A2000C301B2010E945E0687FF49CF46E050E055
:100A300060E171E083E291E00E94640242E050E0F4
:100A400067E171E083E291E00E9464026FEF70E081
:100A500084EC91E00E948F026FEF70E080EC91E0F7
:100A60000E948F020E944E01FDCF0E94E90508F40A
:100A700081E008950E944E050C9424060E941D06F4
:100A800058F00E94160640F029F45F3F29F00C94BC
:100A90000D0651110C9458060C9413060E9435064D
:100AA00068F39923B1F3552391F3951B550BBB279D
:100AB000AA2762177307840738F09F5F5F4F220FE2
:100AC000331F441FAA1FA9F335D00E2E3AF0E0E8D9
:100AD00032D091505040E695001CCAF72BD0FE2F23
:100AE00029D0660F771F881FBB1F261737074807B7
:100AF000AB07B0E809F0BB0B802DBF01FF2793586F
:100B00005F4F3AF09E3F510578F00C940D060C941F
:100B100058065F3FE4F3983ED4F386957795679542
:100B2000B795F7959F5FC9F7880F911D96958795A3
:100B300097F90895E1E0660F771F881FBB1F6217C2
:100B400073078407BA0720F0621B730B840BBA0B80
:100B5000EE1F88F7E0950895E89409C097FB3EF4EE
:100B600090958095709561957F4F8F4F9F4F9923FA
:100B7000A9F0F92F96E9BB279395F6958795779578
:100B80006795B795F111F8CFFAF4BB0F11F460FF38
:100B90001BC06F5F7F4F8F4F9F4F16C0882311F090
:100BA00096E911C0772321F09EE8872F762F05C0A4
:100BB000662371F096E8862F70E060E02AF09A953F
:100BC000660F771F881FDAF7880F9695879597F934
:100BD0000895990F0008550FAA0BE0E8FEEF1616CE
:100BE0001706E807F907C0F012161306E407F50721
:100BF00098F0621B730B840B950B39F40A2661F095
:100C0000232B242B252B21F408950A2609F4A14037
:100C1000A6958FEF811D811D089597F99F6780E844
:100C200070E060E008959FEF80EC089500240A943E
:100C30001616170618060906089500240A941216B7
:100C40001306140605060895092E0394000C11F4EA
:100C5000882352F0BB0F40F4BF2B11F460FF04C097
:100C60006F5F7F4F8F4F9F4F089557FD9058440FF0
:100C7000551F59F05F3F71F04795880F97FB991FFB
:100C800061F09F3F79F087950895121613061406B8
:100C9000551FF2CF4695F1DF08C016161706180645
:100CA000991FF1CF86957105610508940895E89420
:100CB000BB2766277727CB0197F908950E94E9059E
:100CC00008F48FEF08950E9476060C9424060E9483
:100CD000160638F00E941D0620F0952311F00C94A2
:100CE0000D060C94130611240C9458060E94350628
:100CF00070F3959FC1F3950F50E0551F629FF0016F
:100D0000729FBB27F00DB11D639FAA27F00DB11D87
:100D1000AA1F649F6627B00DA11D661F829F222710
:100D2000B00DA11D621F739FB00DA11D621F839F97
:100D3000A00D611D221F749F3327A00D611D231F6D
:100D4000849F600D211D822F762F6A2F11249F57BB
:100D500050409AF0F1F088234AF0EE0FFF1FBB1FBE
:100D6000661F771F881F91505040A9F79E3F51057D
:100D700080F00C940D060C9458065F3FE4F3983E07
:100D8000D4F3869577956795B795F795E7959F5F27
:100D9000C1F7FE2B880F911D9695879597F90895B9
:100DA000EE0FFF1F0590F491E02D099481E090E093
:0A0DB000F8940C94DB06F894FFCFD2
:100DBA0000000000DB006402AE008C00A0002201EB
:0A0DCA00535441525421000D0A0059
:00000001FF
