:100000000C9463000C948B000C948B000C9474047F
:100010000C9474040C9474040C948B000C948B005A
:100020000C948B000C948B000C948B000C948B0024
:100030000C948B000C948B000C948B000C948B0014
:100040000C94D2030C948B000C9442040C941C046A
:100050000C948B000C948B000C948B000C948B00F4
:100060000C948B000C948B000000000024002700EF
:100070002A0000000008000201000003040700003D
:1000800000000000000000000000250028002B00F8
:1000900000000000230026002900040404040404D6
:1000A0000404020202020202030303030303010227
:1000B00004081020408001020408102001020408F6
:1000C0001020EE04920711241FBECFEFD8E0DEBF50
:1000D000CDBF11E0A0E0B1E0E8EBFFE002C0059089
:1000E0000D92A235B107D9F722E0A2E5B1E001C037
:1000F0001D92AC37B207E1F710E0C2E6D0E004C0D1
:100100002197FE010E94C407C136D107C9F70E949A
:10011000F9050C94CF070C940000E091A001F09138
:10012000A1010190F081E02D682F80EA91E009940F
:1001300090E0FC01EE58FF4F3491FC01E255FF4F77
:100140002491FC01E656FF4FE491EE2309F43BC0F5
:10015000332339F1333091F038F43130A9F03230B3
:1001600001F584B58F7D12C0373091F03830A1F0A1
:100170003430B9F4809180008F7D03C0809180007D
:100180008F77809380000DC084B58F7784BD09C0C0
:100190008091B0008F7703C08091B0008F7D8093F5
:1001A000B000F0E0EE0FFF1FEA57FF4FA591B491AA
:1001B0008FB7F894EC91611103C020952E2301C0F4
:1001C0002E2B2C938FBF0895CF93DF9390E0FC01EB
:1001D000E255FF4F2491FC01E656FF4F849188239E
:1001E00061F190E0880F991FFC01E859FF4FC5911C
:1001F000D491FC01EA57FF4FA591B491611109C058
:100200009FB7F8948881209582238883EC912E23D0
:100210000BC0623061F49FB7F8943881822F8095CB
:1002200083238883EC912E2B2C939FBF06C08FB71E
:10023000F894E8812E2B28838FBFDF91CF9108950A
:100240001F93CF93DF93182FEB0161E00E94E4002E
:10025000209711F460E004C0CF3FD10539F461E08C
:10026000812FDF91CF911F910C949800E12FF0E046
:10027000EE58FF4FE491E330F9F048F4E130B9F083
:10028000E230A1F584B5806284BDC8BD34C0E730DA
:10029000E9F0E83019F1E43049F58091800080629E
:1002A00080938000D0938B00C0938A0024C084B5D3
:1002B000806884BDC7BD1FC0809180008068809326
:1002C0008000D0938900C093880015C08091B00051
:1002D00080688093B000C093B3000DC08091B000DF
:1002E00080628093B000C093B40005C0C038D105CF
:1002F0000CF0B5CFAFCFDF91CF911F9108953FB7ED
:10030000F89480919C0190919D01A0919E01B091E3
:100310009F0126B5A89B05C02F3F19F00196A11D8E
:10032000B11D3FBFBA2FA92F982F8827820F911D8B
:10033000A11DB11DBC01CD0142E0660F771F881FD2
:10034000991F4A95D1F708958F929F92AF92BF92CD
:10035000CF92DF92EF92FF926B017C010E947F01AE
:100360004B015C01C114D104E104F104F1F00E94DD
:100370007F01DC01CB0188199909AA09BB09883ED4
:100380009340A105B10570F321E0C21AD108E1083C
:10039000F10888EE880E83E0981EA11CB11CC114E0
:1003A000D104E104F10419F7DDCFFF90EF90DF9065
:1003B000CF90BF90AF909F908F900895CF92DF9293
:1003C000EF92FF920F931F93CF93DF936C017A010B
:1003D0008B01C0E0D0E0CE15DF0589F0D8016D912A
:1003E0008D01D601ED91FC910190F081E02DC601C7
:1003F0000995892B11F47E0102C02196ECCFC7012B
:10040000DF91CF911F910F91FF90EF90DF90CF90F0
:100410000895FC01538D448D252F30E0842F90E00A
:10042000821B930B541710F0CF96089501970895EF
:10043000FC01918D828D981761F0828DDF01A80FEC
:10044000B11D5D968C91928D9F5F9F73928F90E00E
:1004500008958FEF9FEF0895FC01918D828D98177D
:1004600031F0828DE80FF11D858D90E008958FEFBA
:100470009FEF0895FC01918D228D892F90E0805C83
:100480009F4F821B91098F739927089580EA91E00D
:100490000E943A0221E0892B09F420E0822F08957E
:1004A000FC01848DDF01A80FB11DA35ABF4F2C9111
:1004B000848D90E001968F739927848FA689B789E0
:1004C0002C93A089B1898C9180648C93938D848DB9
:1004D000981306C00288F389E02D80818F7D808388
:1004E0000895EF92FF920F931F93CF93DF93EC0148
:1004F00081E0888F9B8D8C8D981305C0E889F989E0
:10050000808185FD24C0F62E0B8D10E00F5F1F4FFC
:100510000F731127E02E8C8DE8120CC00FB607FC6C
:10052000FACFE889F989808185FFF5CFCE010E9455
:100530005002F1CF8B8DFE01E80FF11DE35AFF4F02
:10054000F0820B8FEA89FB898081806207C0EE8987
:10055000FF896083E889F98980818064808381E0F4
:1005600090E0DF91CF911F910F91FF90EF90089550
:10057000CF93DF93EC01888D8823C9F0EA89FB894A
:10058000808185FD05C0A889B9898C9186FD0FC041
:100590000FB607FCF5CF808185FFF2CFA889B98916
:1005A0008C9185FFEDCFCE010E945002E7CFDF9105
:1005B000CF91089580E090E0892B29F00E944602B7
:1005C00081110C94000008952091940130919501BF
:1005D0002817390771F4909192018091930198172F
:1005E00041F0E0919201F0E0EE5AFE4F808190E000
:1005F00008958FEF9FEF089508951F93CF93DF9392
:10060000DC015C962D913C915D972115310539F403
:1006100081E090E013969C938E9312973DC0519683
:10062000ED91FC91529750969C915097892F80950F
:100630001FB75E964C915E9741FB772770F941FD9D
:100640006095F8944081772311F0492B01C048232D
:100650004083E9012197F1F748E0508160FF02C033
:10066000592B01C058235083E9012197F1F7669572
:10067000415099F7772321F090818923808303C02B
:100680008081982B90831FBF5C968D919C915D9784
:100690000197F1F721E030E0C901DF91CF911F917F
:1006A000089520919401309195012817390771F42C
:1006B000809193012091920190E0805C9F4F821B7A
:1006C000910960E470E00E949C07089580E090E04A
:1006D0000895209194013091950128173907B9F4B4
:1006E0009091920180919301981789F0E091920185
:1006F000F0E0EE5AFE4F80812091920130E02F5FB2
:100700003F4F2F7333272093920190E008958FEF8E
:100710009FEF0895E0919401F0919501E817F90792
:1007200069F4A389B4899C918589809589238C93E8
:10073000109295011092940181E0089580E008954F
:10074000089580E090E008950F931F93CF93DF9377
:100750008C016F3F710519F014F06FEF70E0EB0141
:1007600061307F4F14F4C1E0DFEF60E070E0F8012A
:10077000D7FD07C082810E942001BE01F80180815F
:1007800009C080810E942001662777276C1B7D0BA2
:10079000F8018281DF91CF911F910F910C9420017C
:1007A0000E94CA071F920F920FB60F9211242F9327
:1007B0003F938F939F93AF93BF93809198019091B4
:1007C0009901A0919A01B0919B013091970123E08A
:1007D000230F2D3720F40196A11DB11D05C026E879
:1007E000230F0296A11DB11D2093970180939801BC
:1007F00090939901A0939A01B0939B0180919C01E1
:1008000090919D01A0919E01B0919F010196A11D23
:10081000B11D80939C0190939D01A0939E01B09384
:100820009F01BF91AF919F918F913F912F910F9019
:100830000FBE0F901F9018951F920F920FB60F9238
:1008400011242F933F934F935F936F937F938F93D5
:100850009F93AF93BF93EF93FF9380EA91E00E9441
:100860005002FF91EF91BF91AF919F918F917F9136
:100870006F915F914F913F912F910F900FBE0F900D
:100880001F9018951F920F920FB60F9211242F935D
:100890008F939F93EF93FF93E091B001F091B1019B
:1008A0008081E091B601F091B70182FD12C0908184
:1008B0008091B9018F5F8F732091BA01821751F037
:1008C000E091B901F0E0E056FE4F958F8093B901B9
:1008D00001C08081FF91EF919F918F912F910F9097
:1008E0000FBE0F901F9018951F920F920FB60F9288
:1008F00011242F933F934F935F936F937F938F9325
:100900009F93AF93BF93EF93FF93E0919401F09186
:100910009501309709F451C0968DA685B7858585D8
:1009200091FF04C09C91892329F447C09C9189239D
:1009300009F043C0A389B4899C9185898095892356
:100940008C93868997890197F1F7608D718DA685C3
:10095000B785558538E020E0CB010197F1F7822F6C
:1009600090E095958795282F4C91452309F02068B4
:10097000315091F7868D81FD20958091930190E013
:1009800001968F73992730919201381749F0A09101
:100990009301B0E0AE5ABE4F2C938093930103C0F5
:1009A000868D8160868F828D938D0197F1F7A38963
:1009B000B4899C918589892B8C93FF91EF91BF918C
:1009C000AF919F918F917F916F915F914F913F91E7
:1009D0002F910F900FBE0F901F901895CF92DF921E
:1009E000EF92FF921092A3011092A20198EEC92EED
:1009F00093E0D92EE12CF12CC092A401D092A50154
:100A0000E092A601F092A70184E091E09093A10109
:100A10008093A00185EC90E09093AD018093AC01B0
:100A200084EC90E09093AF018093AE0180EC90E075
:100A30009093B1018093B00181EC90E09093B30169
:100A40008093B20182EC90E09093B5018093B40161
:100A500086EC90E09093B7018093B6011092B901B3
:100A60001092BA011092BB011092BC0189E090E093
:100A700090935D0280935C028AE090E090935F0225
:100A800080935E0261E089E00E94E40061E0809171
:100A90005E020E94E40085E090E090936102809302
:100AA000600286E090E0909363028093620261E0CE
:100AB00085E00E94E40061E0809162020E94E4000F
:100AC00061E084E00E94E40060E083E00E94E400D2
:100AD00084E090E0909365028093640283E090E06C
:100AE000909367028093660288EB9BE0A0E0B0E001
:100AF0008093680290936902A0936A02B0936B029C
:100B000081E090E0909379028093780280E991E00F
:100B100090937B0280937A021092400210923F02DF
:100B2000C0924102D0924202E0924302F09244020B
:100B300086E191E090933E0280933D021092540230
:100B400010925302109256021092550210925802BF
:100B50001092570210925A021092590260915B0251
:100B60006E7F6D7F60935B026695617081E06827A0
:100B700087E00E94980061E087E00E94E400E5EBD6
:100B8000F0E0E491E0934D02E1EAF0E0E491F0E07E
:100B9000EE0FFF1FEA57FF4F8591949190934F02FC
:100BA00080934E0260E088E00E94E40080915B0246
:100BB00081FD04C061E088E00E94980088E0809395
:100BC0004902E6EBF0E0E491E0934A02E2EAF0E069
:100BD000E491F0E0EE0FFF1FE057FF4F85919491F5
:100BE00090934C0280934B02FF90EF90DF90CF9058
:100BF0000895789484B5826084BD84B5816084BD95
:100C000085B5826085BD85B5816085BD80916E00AA
:100C1000816080936E0010928100809181008260DB
:100C20008093810080918100816080938100809118
:100C300080008160809380008091B1008460809307
:100C4000B1008091B00081608093B00080917A0003
:100C5000846080937A0080917A00826080937A0029
:100C600080917A00816080937A0080917A00806818
:100C700080937A001092C10010925802109257028D
:100C80001092560210925502109254021092530282
:100C90008DE991E090935A02809359029091490214
:100CA000963108F057C02DEB30E03093540220937A
:100CB00053022BE931E030935602209355022CE287
:100CC00031E0309358022093570220916800983009
:100CD00050F031E09E3008F430E081E001C0880F30
:100CE0003A95EAF701C084E0822B8093680098303F
:100CF00038F09E3040F0963148F020E030E008C0F7
:100D00002DE630E005C02BE630E002C02CE630E0F6
:100D10003093510220935002983030F481E001C0AA
:100D2000880F9A95EAF70EC0292F30E09E3018F40C
:100D30002850310902C02E50310981E001C0880FCE
:100D40002A95EAF7809352028091590290915A02B3
:100D50000197F1F78091570290915802892B21F168
:100D6000809194019091950122E08D339207E1F0FA
:100D7000009711F00E948A0380915B028E7F80931E
:100D80005B0210929301109292018DE392E0909396
:100D9000950180939401E0915002F091510290816D
:100DA00080915202892B8083E091B001F091B101D2
:100DB00082E08083E091AC01F091AD011082E0917E
:100DC000AE01F091AF018FEC80831092B801E091F9
:100DD000B401F091B50186E08083E091B201F09119
:100DE000B301808180618083E091B201F091B30111
:100DF000808188608083E091B201F091B3018081AD
:100E000080688083E091B201F091B30180818F7D91
:100E1000808349E250E064E271E080EA91E00E9460
:100E2000DE0142E050E06EE471E080EA91E00E9471
:100E3000DE0160ED77E080E090E00E94A4018DE3A8
:100E400092E00E945103181619060CF068C08DE359
:100E500092E00E946903809396018335F9F460E083
:100E600070E0809162020E94200160E070E0809159
:100E700060020E94200160E070E080915E020E94AA
:100E8000200160E070E080915C020E94200161E03E
:100E900070E080E090E00E94A40141C0863471F4CB
:100EA0006FEF70E080E692E00E94A4036FEF70E0C5
:100EB0008CE592E00E94A40386E42FC0823471F492
:100EC00061E07FEF80E692E00E94A40361E07FEFA3
:100ED0008CE592E00E94A40382E41FC08C3471F47C
:100EE00061E07FEF80E692E00E94A4036FEF70E084
:100EF0008CE592E00E94A4038CE40FC0823579F463
:100F00006FEF70E080E692E00E94A40361E07FEF63
:100F10008CE592E00E94A40382E50E948D000E946D
:100F2000DA028DCF86E191E090933E0280933D02FC
:100F30008DE392E00C948A0397FB072E16F400943D
:100F400007D077FD09D00E94B00707FC05D03EF41A
:100F5000909581959F4F0895709561957F4F089565
:100F6000AA1BBB1B51E107C0AA1FBB1FA617B707CF
:100F700010F0A61BB70B881F991F5A95A9F78095EB
:100F80009095BC01CD010895EE0FFF1F0590F491DF
:100F9000E02D099481E090E0F8940C94CF0710E0E4
:100FA000C2E6D0E004C0FE010E94C4072196C33609
:080FB000D107C9F7F894FFCF47
:100FB800000000007102DE010902B8023A021802BC
:100FC8002C0200000000FD02DE01A103FC02510317
:100FD8006903E402204578616D706C6520666F7264
:100FE8002054657374696E67204843303520426C1D
:100FF8007565746F6F7468204461746120000D0A10
:021008000000E6
:00000001FF
