:100000000C9462000C948A000C948A000C948A0070
:100010000C948A000C948A000C948A000C948A0038
:100020000C948A000C948A000C948A000C948A0028
:100030000C948A000C948A000C948A000C948A0018
:100040000C945E030C948A000C94CE030C94A803C9
:100050000C948A000C948A000C948A000C948A00F8
:100060000C948A000C948A000000000024002700F1
:100070002A0000000000250028002B0000000000DE
:1000800023002600290004040404040404040202DA
:100090000202020203030303030301020408102007
:1000A0004080010204081020010204081020000012
:1000B0000008000201000003040700000000000027
:1000C0000000000411241FBECFEFD8E0DEBFCDBF7B
:1000D00021E0AAE1B1E001C01D92A13EB207E1F723
:1000E00011E0A0E0B1E0E4E8FDE002C005900D926F
:1000F000AA31B107D9F710E0C2E6D0E004C02197D9
:10010000FE010E94B506C136D107C9F70E94460418
:100110000C94C0060C940000833081F028F48130E8
:1001200099F08230A1F008958730A9F08830B9F0B5
:100130008430D1F4809180008F7D03C08091800055
:100140008F7780938000089584B58F7702C084B53F
:100150008F7D84BD08958091B0008F7703C080911A
:10016000B0008F7D8093B0000895CF93DF93282F48
:1001700030E0F901E255FF4F8491F901E656FF4F57
:10018000D491F901EA57FF4FC491CC2391F081112A
:100190000E948C00EC2FF0E0EE0FFF1FE458FF4FA1
:1001A000A591B491EC91ED2381E090E021F480E001
:1001B00002C080E090E0DF91CF9108951F93CF932C
:1001C000DF93282F30E0F901E255FF4F8491F901C8
:1001D000E656FF4FD491F901EA57FF4FC491CC2363
:1001E000C9F0162F81110E948C00EC2FF0E0EE0F69
:1001F000FF1FEE58FF4FA591B4918FB7F8941111DE
:1002000005C09C91ED2FE095E92302C0EC91ED2B08
:10021000EC938FBFDF91CF911F910895CF93DF9320
:1002200090E0FC01E656FF4F2491FC01EA57FF4F96
:100230008491882361F190E0880F991FFC01E859AF
:10024000FF4FC591D491FC01EE58FF4FA591B49199
:10025000611109C09FB7F894888120958223888313
:10026000EC912E230BC0623061F49FB7F894388173
:10027000822F809583238883EC912E2B2C939FBF14
:1002800006C08FB7F894E8812E2B28838FBFDF91AB
:10029000CF9108958E3008F08E50877080648093DF
:1002A0007C0080917A00806480937A0080917A004B
:1002B00086FDFCCF809178002091790090E0922B10
:1002C00008953FB7F8948091280190912901A09159
:1002D0002A01B0912B0126B5A89B05C02F3F19F02C
:1002E0000196A11DB11D3FBFBA2FA92F982F8827B6
:1002F000820F911DA11DB11DBC01CD0142E0660F11
:10030000771F881F991F4A95D1F708958F929F9262
:10031000AF92BF92CF92DF92EF92FF926B017C017E
:100320000E9461014B015C01C114D104E104F1049C
:10033000F1F00E946101DC01CB0188199909AA0939
:10034000BB09883E9340A105B10570F321E0C21AB4
:10035000D108E108F10888EE880E83E0981EA11C00
:10036000B11CC114D104E104F10419F7DDCFFF90F1
:10037000EF90DF90CF90BF90AF909F908F900895B7
:10038000CF92DF92EF92FF920F931F93CF93DF9361
:100390006C017A018B01C0E0D0E0CE15DF0589F059
:1003A000D8016D918D01D601ED91FC910190F08104
:1003B000E02DC6010995892B11F47E0102C021961A
:1003C000ECCFC701DF91CF911F910F91FF90EF907C
:1003D000DF90CF900895FC01918D828D981761F088
:1003E000828DDF01A80FB11D5D968C91928D9F5F6C
:1003F0009F73928F90E008958FEF9FEF0895FC0117
:10040000918D828D981731F0828DE80FF11D858DC9
:1004100090E008958FEF9FEF0895FC01918D228D5C
:10042000892F90E0805C9F4F821B91098F739927E1
:1004300008958CE291E00E940D0221E0892B09F4DD
:1004400020E0822F0895FC01848DDF01A80FB11DEB
:10045000A35ABF4F2C91848D90E001968F739927FA
:10046000848FA689B7892C93A089B1898C918064E7
:100470008C93938D848D981306C00288F389E02DA8
:1004800080818F7D80830895EF92FF920F931F9359
:10049000CF93DF93EC0181E0888F9B8D8C8D981337
:1004A00005C0E889F989808185FD24C0F62E0B8D71
:1004B00010E00F5F1F4F0F731127E02E8C8DE81295
:1004C0000CC00FB607FCFACFE889F989808185FF57
:1004D000F5CFCE010E942302F1CF8B8DFE01E80FF4
:1004E000F11DE35AFF4FF0820B8FEA89FB8980816F
:1004F000806207C0EE89FF896083E889F98980817D
:100500008064808381E090E0DF91CF911F910F9113
:10051000FF90EF900895CF93DF93EC01888D8823AF
:10052000C9F0EA89FB89808185FD05C0A889B98960
:100530008C9186FD0FC00FB607FCF5CF808185FF3B
:10054000F2CFA889B9898C9185FFEDCFCE010E94A9
:100550002302E7CFDF91CF91089580E090E0892BCF
:1005600029F00E94190281110C94000008958EBD9B
:1005700000000DB407FEFDCF8EB508959CB59F7D9C
:100580009CBD9CB5937F9CBD9CB59C7F9CBD9DB53F
:1005900091609DBD682F8091CB010E94DE0080910B
:1005A000DD019091DE018230910538F0880F991FAE
:1005B000880F991F05970197F1F7089580E00C9433
:1005C000BE021F93CF93DF931F92CDB7DEB789830F
:1005D0000E94DE0289818F710E94B7028FEF0E9414
:1005E000B702182F81E00E94BE02812F0F90DF9189
:1005F000CF911F9108951F93CF93DF9300D0CDB774
:10060000DEB76A8389830E94DE0289818F718062EE
:100610000E94B702182F6A81862F0E94B70281E0DC
:100620000E94BE02812F0F900F90DF91CF911F91FA
:1006300008950F931F93CF938C0186E00E94E102EF
:10064000C82FC77D0230110531F4C0628BE990E0FC
:10065000A0E0B0E00DC00130110529F085E590E083
:10066000A0E0B0E005C0C86081E490E0A0E0B0E0A8
:100670008093D9019093DA01A093DB01B093DC0160
:100680006C2F86E00E94FB0286E00E94E10291E06E
:100690008C1390E0892FCF911F910F910895CF93E4
:1006A0000E94DE0281EE0E94B702C82F81E00E9404
:1006B000BE028C2FCF9108950E94BB061F920F920D
:1006C0000FB60F9211242F933F938F939F93AF9365
:1006D000BF938091240190912501A0912601B091B2
:1006E00027013091230123E0230F2D3720F40196B9
:1006F000A11DB11D05C026E8230F0296A11DB11D45
:10070000209323018093240190932501A093260137
:10071000B09327018091280190912901A0912A018D
:10072000B0912B010196A11DB11D809328019093DA
:100730002901A0932A01B0932B01BF91AF919F9102
:100740008F913F912F910F900FBE0F901F90189592
:100750001F920F920FB60F9211242F933F934F9336
:100760005F936F937F938F939F93AF93BF93EF9319
:10077000FF938CE291E00E942302FF91EF91BF91E1
:10078000AF919F918F917F916F915F914F913F9129
:100790002F910F900FBE0F901F9018951F920F92E0
:1007A0000FB60F9211242F938F939F93EF93FF9384
:1007B000E0913C01F0913D018081E0914201F09196
:1007C000430182FD12C09081809145018F5F8F733C
:1007D00020914601821751F0E0914501F0E0E45D7F
:1007E000FE4F958F8093450101C08081FF91EF916D
:1007F0009F918F912F910F900FBE0F901F90189582
:10080000ECE2F1E01382128288EE93E0A0E0B0E027
:1008100084839583A683B78384E091E0918380836A
:1008200085EC90E09587848784EC90E097878687B5
:1008300080EC90E0918B808B81EC90E0938B828BAD
:1008400082EC90E0958B848B86EC90E0978B868B86
:10085000118E128E138E148EE9ECF1E089E090E097
:10086000918380838AE090E093838283168280E282
:100870008783108685E0868785E090E0A0E0B0E081
:10088000848B958BA68BB78B11860895CF93DF93BE
:10089000CDB7DEB728970FB6F894DEBF0FBECDBF39
:1008A000789484B5826084BD84B5816084BD85B54B
:1008B000826085BD85B5816085BD80916E00816057
:1008C00080936E00109281008091810082608093FD
:1008D00081008091810081608093810080918000FF
:1008E0008160809380008091B10084608093B1002A
:1008F0008091B00081608093B00080917A00846024
:1009000080937A0080917A00826080937A0080914F
:100910007A00816080937A0080917A008068809369
:100920007A001092C100E0913C01F0913D0182E01B
:100930008083E0913801F09139011082E0913A0111
:10094000F0913B018FEC808310924401E0914001D3
:10095000F091410186E08083E0913E01F0913F01FA
:10096000808180618083E0913E01F0913F01808130
:1009700088608083E0913E01F0913F018081806832
:100980008083E0913E01F0913F0180818F7D8083E3
:1009900060E082E00E940E0160E083E00E940E01B0
:1009A00060E084E00E940E0160E085E00E940E019C
:1009B00060E086E00E940E018091C9019091CA0119
:1009C0002091CB013091CC018217930719F061E09F
:1009D0000E940E018091CB019091CC012091C90120
:1009E0003091CA012817390719F061E00E940E0101
:1009F0001FB7F89480911A01811127C0E0E9F0E057
:100A00008491E4EAF0E09491E82FF0E0EE0FFF1F0C
:100A1000E859FF4FA591B491EC91E92321F461E0ED
:100A20008AE00E94DE0061E08AE00E940E018CB53F
:100A300080618CBD8CB580648CBD61E08DE00E94CE
:100A40000E0161E08BE00E940E0180911A018F5F20
:100A500080931A011FBF8091C9019091CA01209112
:100A6000CB013091CC018217930719F060E00E940E
:100A7000DE0081E00E94BE0265E070E080E090E070
:100A80000E9486016CE080E00E94FB026FE584E03A
:100A90000E94FB0282E090E00E941903882319F073
:100AA00081E08093CF0186E00E94E10280E090E047
:100AB0000E9419030E94DE0280E50E94B70283E7CC
:100AC0000E94B70281E00E94BE0260E08DE10E94B8
:100AD000FB0260E08CE10E94FB021092D10160E712
:100AE00087E00E94FB026CE485E00E94FB020E940A
:100AF000DE0282EE0E94B70281E00E94BE020E94E6
:100B00004F0380E00E94E10281FD0BC0682F62600C
:100B100080E00E94FB0265E070E080E090E00E94CF
:100B2000860180E00E94E102682F6E7F80E00E94D3
:100B3000FB026CE685E00E94FB0282E090E00E94EE
:100B4000190386E00E94E102887F682F616086E0D9
:100B50000E94FB0281EE898380EF8A838B8388EE7B
:100B60008C838D831E821F821886D090D7010E94AD
:100B7000DE028AE20E94B7028E010F5F1F4F7801EA
:100B8000C02ED00EDE1431F0F70181917F010E945A
:100B9000B702F8CF81E00E94BE02F090D7010E9418
:100BA000DE0280E30E94B702FC0CF01631F0F8017F
:100BB00081918F010E94B702F8CF81E00E94BE02AE
:100BC0006091D00181E10E94FB0245E050E060E1CC
:100BD00071E08CE291E00E94C00142E050E066E1E9
:100BE00071E08CE291E00E94C00168EE73E080E069
:100BF00090E00E94860195E0E92EF12C24E0C22EBF
:100C0000D12C33E0A32EB12C42E0842E912C66240B
:100C10006394712C8EE00E944A0190931E01809390
:100C20001D018FE00E944A019093200180931F01D3
:100C300082E00E94B500892B29F470921C01609219
:100C40001B012CC083E00E94B500892B29F49092EF
:100C50001C0180921B0122C084E00E94B500892BF8
:100C600029F4B0921C01A0921B0118C085E00E94DB
:100C7000B500892B29F4D0921C01C0921B010EC033
:100C800086E00E94B500892B29F4F0921C01E092C5
:100C90001B0104C010921C0110921B0180911B01CA
:100CA00090911C0190932201809321011091D00119
:100CB000012F173008F006E08091D101811102C0A8
:100CC000101B01C010E00E94DE0280EA0E94B70201
:100CD0008DE1482E81E0582E015030F0F2018191D3
:100CE0002F010E94B702F8CF112329F080E00E9463
:100CF000B7021150F9CF81E00E94BE028091C90174
:100D00009091CA012091CB013091CC0182179307B9
:100D100019F061E00E94DE000E94DE028FEF0E9467
:100D2000B702182F81E00E94BE021073A9F38091D0
:100D3000C9019091CA012091CB013091CC01821759
:100D4000930719F060E00E94DE0060E787E00E94F0
:100D5000FB0284FD0E944F0364EF71E080E090E0AD
:100D60000E9486010E94AD0255CFEE0FFF1F059035
:100D7000F491E02D099481E090E0F8940C94C00681
:040D8000F894FFCF15
:100D8400000000004402C0010D02EB01FF018B02D0
:0A0D94005374617274000D0A000030
:00000001FF
