:100000000C9475000C949D000C949D000C94780544
:100010000C9478050C9478050C949D000C949D002C
:100020000C949D000C949D000C949D000C949D00DC
:100030000C949D000C949D000C949D000C949D00CC
:100040000C94D6040C949D000C9446050C94200549
:100050000C949D000C949D000C949D000C949D00AC
:100060000C949D000C949D008B09F40AF40AF40A88
:10007000F70A4909600953096F09F40A8109F40A6A
:10008000F40AF40AF40AF40A86094609000000009A
:10009000240027002A0000000008000201000003DD
:1000A0000407000000000000000000000000250020
:1000B00028002B0000000000230026002900040473
:1000C0000404040404040202020202020303030300
:1000D00003030102040810204080010204081020DC
:1000E0000102040810203706430B11241FBECFEF76
:1000F000D8E0DEBFCDBF11E0A0E0B1E0E6EFFAE16D
:1001000002C005900D92AC34B107D9F722E0ACE4FF
:10011000B1E001C01D92A837B207E1F710E0C4E7D3
:10012000D0E004C02197FE010E944F0DC337D107D4
:10013000C9F70E9442070C946E0D0C94000090E0E9
:10014000FC01EA56FF4F3491FC01EE52FF4F24911F
:10015000FC01E254FF4FE491EE2309F43BC033234A
:1001600039F1333091F038F43130A9F0323001F503
:1001700084B58F7D12C0373091F03830A1F0343023
:10018000B9F4809180008F7D03C0809180008F77CB
:10019000809380000DC084B58F7784BD09C08091A5
:1001A000B0008F7703C08091B0008F7D8093B00046
:1001B000F0E0EE0FFF1FE655FF4FA591B4918FB70A
:1001C000F894EC91611103C020952E2301C02E2BD1
:1001D0002C938FBF0895CF93DF9390E0FC01EE52F4
:1001E000FF4F2491FC01E254FF4F8491882361F179
:1001F00090E0880F991FFC01E457FF4FC591D491FF
:10020000FC01E655FF4FA591B491611109C09FB75C
:10021000F8948881209582238883EC912E230BC04B
:10022000623061F49FB7F8943881822F80958323E0
:100230008883EC912E2B2C939FBF06C08FB7F89428
:10024000E8812E2B28838FBFDF91CF9108951F93D4
:10025000CF93DF93182FEB0161E00E94EB00209712
:1002600011F460E004C0CF3FD10539F461E0812F83
:10027000DF91CF911F910C949F00E12FF0E0EA569F
:10028000FF4FE491E330F9F048F4E130B9F0E230A7
:10029000A1F584B5806284BDC8BD34C0E730E9F003
:1002A000E83019F1E43049F5809180008062809354
:1002B0008000D0938B00C0938A0024C084B58068EE
:1002C00084BDC7BD1FC0809180008068809380007E
:1002D000D0938900C093880015C08091B0008068D9
:1002E0008093B000C093B3000DC08091B0008062D5
:1002F0008093B000C093B40005C0C038D1050CF0A5
:10030000B5CFAFCFDF91CF911F910895CF93DF93FA
:10031000C8E5D2E060E070E08E810E94270160E0D5
:1003200070E08C810E94270160E070E08A810E9469
:10033000270160E070E08881DF91CF910C94270164
:100340008E3008F08E508770806480937C0080919E
:100350007A00806480937A0080917A0086FDFCCFD9
:10036000809178002091790090E0922B08953FB71A
:10037000F8948091980190919901A0919A01B0917F
:100380009B0126B5A89B05C02F3F19F00196A11D22
:10039000B11D3FBFBA2FA92F982F8827820F911D1B
:1003A000A11DB11DBC01CD0142E0660F771F881F62
:1003B000991F4A95D1F708958F929F92AF92BF925D
:1003C000CF92DF92EF92FF926B017C010E94B70106
:1003D0004B015C01C114D104E104F104F1F00E946D
:1003E000B701DC01CB0188199909AA09BB09883E2C
:1003F0009340A105B10570F321E0C21AD108E108CC
:10040000F10888EE880E83E0981EA11CB11CC1146F
:10041000D104E104F10419F7DDCFFF90EF90DF90F4
:10042000CF90BF90AF909F908F900895CF92DF9222
:10043000EF92FF920F931F93CF93DF936C017A019A
:100440008B01C0E0D0E0CE15DF0589F0D8016D91B9
:100450008D01D601ED91FC910190F081E02DC60156
:100460000995892B11F47E0102C02196ECCFC701BA
:10047000DF91CF911F910F91FF90EF90DF90CF9080
:100480000895FC01538D448D252F30E0842F90E09A
:10049000821B930B541710F0CF960895019708957F
:1004A000FC01918D828D981761F0828DDF01A80F7C
:1004B000B11D5D968C91928D9F5F9F73928F90E09E
:1004C00008958FEF9FEF0895FC01918D828D98170D
:1004D00031F0828DE80FF11D858D90E008958FEF4A
:1004E0009FEF0895FC01918D228D892F90E0805C13
:1004F0009F4F821B91098F73992708958CE991E092
:100500000E94720221E0892B09F420E0822F0895D5
:10051000FC01848DDF01A80FB11DA35ABF4F2C91A0
:10052000848D90E001968F739927848FA689B7896F
:100530002C93A089B1898C9180648C93938D848D48
:10054000981306C00288F389E02D80818F7D808317
:100550000895EF92FF920F931F93CF93DF93EC01D7
:1005600081E0888F9B8D8C8D981305C0E889F9896F
:10057000808185FD24C0F62E0B8D10E00F5F1F4F8C
:100580000F731127E02E8C8DE8120CC00FB607FCFC
:10059000FACFE889F989808185FFF5CFCE010E94E5
:1005A0008802F1CF8B8DFE01E80FF11DE35AFF4F5A
:1005B000F0820B8FEA89FB898081806207C0EE8917
:1005C000FF896083E889F98980818064808381E084
:1005D00090E0DF91CF911F910F91FF90EF900895E0
:1005E000CF93DF93EC01888D8823C9F0EA89FB89DA
:1005F000808185FD05C0A889B9898C9186FD0FC0D1
:100600000FB607FCF5CF808185FFF2CFA889B989A5
:100610008C9185FFEDCFCE010E948802E7CFDF915C
:10062000CF91089580E090E0892B29F00E947E020E
:1006300081110C940000089520918E0130918F015A
:100640002817390771F490918C0180918D019817CA
:1006500041F0E0918C01F0E0E45BFE4F808190E09E
:1006600008958FEF9FEF089508951F93CF93DF9321
:10067000DC015C962D913C915D972115310539F493
:1006800081E090E013969C938E9312973DC0519613
:10069000ED91FC91529750969C915097892F80959F
:1006A0001FB75E964C915E9741FB772770F941FD2D
:1006B0006095F8944081772311F0492B01C04823BD
:1006C0004083E9012197F1F748E0508160FF02C0C3
:1006D000592B01C058235083E9012197F1F7669502
:1006E000415099F7772321F090818923808303C0BB
:1006F0008081982B90831FBF5C968D919C915D9714
:100700000197F1F721E030E0C901DF91CF911F910E
:10071000089520918E0130918F012817390771F4C7
:1007200080918D0120918C0190E0805C9F4F821B15
:10073000910960E470E00E94190D089580E090E056
:10074000089520918E0130918F0128173907B9F44F
:1007500090918C0180918D01981789F0E0918C0126
:10076000F0E0E45BFE4F808120918C0130E02F5F50
:100770003F4F2F73332720938C0190E008958FEF24
:100780009FEF0895E0918E01F0918F01E817F9072E
:1007900069F4A389B4899C918589809589238C9378
:1007A00010928F0110928E0181E0089580E00895EB
:1007B000089580E090E008950F931F93CF93DF9307
:1007C0008C016F3F710519F014F06FEF70E0EB01D1
:1007D00061307F4F14F4C1E0DFEF60E070E0F801BA
:1007E000D7FD07C082810E942701BE01F8018081E8
:1007F00009C080810E942701662777276C1B7D0B2B
:10080000F8018281DF91CF911F910F910C94270104
:10081000CF93DF932FEFAC01249FC001259F900D54
:10082000112464E670E00E94190DEB018CE592E062
:100830000E94DC03BE0188E592E0DF91CF910C9429
:10084000DC03EF92FF921F93CF93DF937B011FEFA7
:100850009C01129FC001139F900D1124C4E6D0E0AB
:10086000BE010E94190D8CE592E00E94DC031E9DE2
:10087000C0011F9D900D1124BE010E94190D88E535
:1008800092E0DF91CF911F91FF90EF900C94DC03E9
:100890000F931F9360E0809160020E949F0083E0AD
:1008A00090E00197F1F761E0809160020E949F0063
:1008B00083E290E00197F1F760E0809160020E948E
:1008C0009F0080916202909163029927FC01EE5291
:1008D000FF4F6491FC01E254FF4FE491F0E0EE0F12
:1008E000FF1FEC54FF4F8591949100916402109189
:1008F000650220916602309167023F70462F0E9488
:10090000F205611571058105910549F0DC01CB0106
:100910000196A11DB11DBC01CD019F7003C060E017
:1009200070E0CB010E94FA0B609368027093690239
:1009300080936A0290936B0220E030E0A9010E944C
:100940004D0B811112C0609164027091650280911B
:100950006602909167020E94FC0B6093680270939C
:10096000690280936A0290936B02609168027091B1
:10097000690280916A0290916B020E94C40B1F91E0
:100980000F910895009769F0FC0101900020E9F7AC
:100990003197AF01481B590BBC018CE991E00C94D5
:1009A000160280E090E008950E94690D1F920F9258
:1009B0000FB60F9211242F933F938F939F93AF9372
:1009C000BF938091940190919501A0919601B0916F
:1009D00097013091930123E0230F2D3720F40196E6
:1009E000A11DB11D05C026E8230F0296A11DB11D52
:1009F000209393018093940190939501A093960185
:100A0000B09397018091980190919901A0919A01DA
:100A1000B0919B010196A11DB11D80939801909307
:100A20009901A0939A01B0939B01BF91AF919F91BF
:100A30008F913F912F910F900FBE0F901F9018959F
:100A40001F920F920FB60F9211242F933F934F9343
:100A50005F936F937F938F939F93AF93BF93EF9326
:100A6000FF938CE991E00E948802FF91EF91BF9182
:100A7000AF919F918F917F916F915F914F913F9136
:100A80002F910F900FBE0F901F9018951F920F92ED
:100A90000FB60F9211242F938F939F93EF93FF9391
:100AA000E091AC01F091AD018081E091B201F09153
:100AB000B30182FD12C090818091B5018F5F8F7369
:100AC0002091B601821751F0E091B501F0E0E456B3
:100AD000FE4F958F8093B50101C08081FF91EF910A
:100AE0009F918F912F910F900FBE0F901F9018958F
:100AF0001F920F920FB60F9211242F933F934F9393
:100B00005F936F937F938F939F93AF93BF93EF9375
:100B1000FF93E0918E01F0918F01309709F451C05D
:100B2000968DA685B785858591FF04C09C91892304
:100B300029F447C09C91892309F043C0A389B48953
:100B40009C918589809589238C93868997890197C3
:100B5000F1F7608D718DA685B785558538E020E069
:100B6000CB010197F1F7822F90E095958795282F7B
:100B70004C91452309F02068315091F7868D81FD15
:100B8000209580918D0190E001968F739927309187
:100B90008C01381749F0A0918D01B0E0A45BBE4FE5
:100BA0002C9380938D0103C0868D8160868F828D0A
:100BB000938D0197F1F7A389B4899C918589892B3D
:100BC0008C93FF91EF91BF91AF919F918F917F9106
:100BD0006F915F914F913F912F910F900FBE0F90AA
:100BE0001F901895CF92DF92EF92FF920F931F9371
:100BF000E82FF92F05C0015011092109310961F1D0
:100C0000908196239417B9F305C001501109210969
:100C1000310911F1908196239413F7CFC12CD12C77
:100C2000E12CF12C0AC08FEFC81AD80AE80AF80A9A
:100C30000C151D052E053F0579F08081862384174C
:100C400091F36C2D7D2D8E2D9F2D1F910F91FF9077
:100C5000EF90DF90CF90089560E070E080E090E04A
:100C60001F910F91FF90EF90DF90CF900895CF925A
:100C7000DF92EF92FF9210929F0110929E0198EEE8
:100C8000C92E93E0D92EE12CF12CC092A001D09274
:100C9000A101E092A201F092A30186E091E090937D
:100CA0009D0180939C0185EC90E09093A901809335
:100CB000A80184EC90E09093AB018093AA0180ECB2
:100CC00090E09093AD018093AC0181EC90E0909323
:100CD000AF018093AE0182EC90E09093B1018093DC
:100CE000B00186EC90E09093B3018093B201109232
:100CF000B5011092B6011092B7011092B80189E0C7
:100D000090E090935902809358028AE090E090938B
:100D10005B0280935A0261E089E00E94EB0061E08F
:100D200080915A020E94EB0085E090E090935D0272
:100D300080935C0286E090E090935F0280935E0275
:100D400061E085E00E94EB0061E080915E020E941C
:100D5000EB0061E084E00E94EB0060E083E00E9431
:100D6000EB0084E090E0909361028093600283E066
:100D700090E0909363028093620288EB9BE0A0E096
:100D8000B0E08093640290936502A0936602B093F2
:100D9000670281E090E0909375028093740280E98D
:100DA00091E0909377028093760210923C02109229
:100DB0003B02C0923D02D0923E02E0923F02F0928E
:100DC000400288E191E090933A02809339021092B8
:100DD000500210924F021092520210925102109241
:100DE00054021092530210925602109255026091D2
:100DF00057026E7F6D7F609357026695617081E048
:100E0000682787E00E949F0061E087E00E94EB0076
:100E1000E9EDF0E0E491E0934902E5ECF0E0E491E3
:100E2000F0E0EE0FFF1FE655FF4F859194919093F0
:100E30004B0280934A0260E088E00E94EB008091C0
:100E4000570281FD04C061E088E00E949F0088E0B5
:100E500080934502EAEDF0E0E491E0934602E6EC8F
:100E6000F0E0E491F0E0EE0FFF1FEC54FF4F8591AE
:100E700094919093480280934702FF90EF90DF9007
:100E8000CF900895CF93DF93CDB7DEB7A1970FB67C
:100E9000F894DEBF0FBECDBF789484B5826084BD68
:100EA00084B5816084BD85B5826085BD85B581606E
:100EB00085BD80916E00816080936E0010928100EC
:100EC00080918100826080938100809181008160A7
:100ED0008093810080918000816080938000809168
:100EE000B10084608093B1008091B00081608093F4
:100EF000B00080917A00846080937A0080917A00BB
:100F0000826080937A0080917A00816080937A0079
:100F100080917A00806880937A001092C1001092CC
:100F200054021092530210925202109251021092E7
:100F3000500210924F028DE991E0909356028093F7
:100F4000550290914502963108F057C02DEB30E0E4
:100F50003093500220934F022BE931E0309352023C
:100F6000209351022CE231E030935402209353023B
:100F700020916800983050F031E09E3008F430E065
:100F800081E001C0880F3A95EAF701C084E0822B26
:100F900080936800983038F09E3040F0963148F0E9
:100FA00020E030E008C02DE630E005C02BE630E060
:100FB00002C02CE630E030934D0220934C02983072
:100FC00030F481E001C0880F9A95EAF70EC0292F0E
:100FD00030E09E3018F42850310902C02E503109FB
:100FE00081E001C0880F2A95EAF780934E02809134
:100FF0005502909156020197F1F78091530290911A
:101000005402892B21F180918E0190918F0122E071
:1010100089339207E1F0009711F00E94C20380919A
:1010200057028E7F8093570210928D0110928C018F
:1010300089E392E090938F0180938E01E0914C02BE
:10104000F0914D02908180914E02892B8083E09136
:10105000AC01F091AD0182E08083E091A801F091B4
:10106000A9011082E091AA01F091AB018FEC80837D
:101070001092B401E091B001F091B10186E080835B
:10108000E091AE01F091AF01808180618083E091B9
:10109000AE01F091AF01808188608083E091AE0164
:1010A000F091AF01808180688083E091AE01F09182
:1010B000AF0180818F7D808386E291E00E94C2042F
:1010C00089E491E00E94C20460ED77E080E090E066
:1010D0000E94DC0181E090E090937502809374029D
:1010E00080E991E0909377028093760261E081E15C
:1010F0000E94EB0004E610E052E3252E312C66E45A
:10110000862E912C7AE0472E512C612C712C89E38C
:1011100092E00E948903181619060CF09EC089E31C
:1011200092E00E94A10380939201E0919C01F091D2
:101130009D010190F081E02D682F8CE991E00995E7
:1011400089E491E00E94C20480919201833509F400
:101150007CC0893309F468C0ECF4843309F454C0CA
:101160005CF4823309F446C00CF04BC0813309F0C3
:1011700074C08AE090E040C0863309F44DC00CF49E
:1011800046C0873309F44BC0883309F066C080E558
:1011900090E032C0863511F17CF4863409F450C0F9
:1011A00024F4823409F44CC058C08C3409F448C08B
:1011B000823509F445C051C08137E9F154F48835CE
:1011C00009F04BC0E2E0F0E0F0939101E093900170
:1011D00044C0863751F0883741F03FC081E090E04D
:1011E000909391018093900138C0109291011092D8
:1011F000900131C084E190E090930101809300015F
:101200002CC08EE190E0F8CF88E290E0F5CF3092EC
:1012100001012092000121C0ECE3F0E007C09092B0
:1012200001018092000119C0EAE5F0E0F0930101AC
:10123000E093000112C010930101009300010DC062
:10124000109291011092900108C0809190019091AC
:101250009101892B11F40E94860180919001909157
:101260009101009709F06AC0E09192018E2FEE0F74
:10127000990BAA0BBB0BFC01E254F109E231F10519
:1012800008F0B2C1EC5CFF4F0C944F0D0E94860138
:10129000ABC16091000170910101CB0177FD019616
:1012A000959587950AC02091000130910101C901EF
:1012B00063E070E00E94190DC9010E94210494C1ED
:1012C000809100019091010122273327281B390BBF
:1012D0006DEF7FEF0E94190DCB01B901EECF809128
:1012E000000190910101BC0197FF02C06F5F7F4F29
:1012F000759567957195619571099195819591099C
:10130000DCCF209100013091010185C120910001C5
:1013100030910101A1C120910001309101014FEFF5
:10132000429FC001439F900D1124B8010E94190DE6
:10133000EE24FF24E61AF70AB7017BC1813091053C
:1013400009F000C10E9448042EEA37E44BEE51E454
:10135000609168027091690280916A0290916B02BB
:101360000E94520B20E030E040E05FE30E94AC0CB2
:101370006B017C0160936C0270936D0280936E022E
:1013800090936F0264E670E080E090E00E94DC01E0
:10139000C701B6010E94C40B5B016B01770FEE0819
:1013A000FF08F7FE26C0E0919C01F0919D0101909D
:1013B000F081E02D6DE28CE991E009952227332739
:1013C000A9012C193D094E095F0919A2CE01819688
:1013D0007C01CA01B901A30192010E942D0D605D3B
:1013E000F70162937F01211531054105510589F708
:1013F00015C0A701960119A2CE0181967C01CA01F0
:10140000B901A30192010E942D0D605DF701629365
:101410007F01211531054105510589F7C7010E945A
:10142000C20489E491E00E94C204F9E1AF16B1045C
:101430000CF0DDC00E94860164E670E080E090E080
:101440000E94DC018AEB9FEF0E9408046CE271E0CD
:1014500080E090E00E94DC0162EB70E08CE592E0BD
:101460000E94DC036EE47FEF88E592E00E94DC03DB
:1014700064E670E080E090E00E94DC0164E670E0E9
:1014800080E090E00E94DC0164E670E080E090E0A3
:101490000E94DC010E94860168EC70E080E090E030
:1014A0000E94DC010E9448042EEA37E44BEE51E42E
:1014B000609168027091690280916A0290916B025A
:1014C0000E94520B20E030E040E05FE30E94AC0C51
:1014D0006B017C0160936C0270936D0280936E02CD
:1014E00090936F0264E670E080E090E00E94DC017F
:1014F000C701B6010E94C40B693171050CF074C0BC
:101500006EE47FEF8CE592E00E94DC0362EB70E01A
:1015100088E592E00E94DC0328E0E22EF12C64E6EC
:1015200070E080E090E00E94DC0121E0E21AF10826
:10153000B1F70E94860168EC70E080E090E00E94C4
:10154000DC0152C0029709F04FC061E081E10E94C6
:101550009F0081E00E94A0017C0160E081E10E9487
:101560009F002091740230917502809176029091D3
:101570007702232B21F08E159F05CCF103C0E816CE
:10158000F906ACF161E081E10E949F0080E00E94D9
:10159000A0017C0160E081E10E949F002091740223
:1015A000309175028091760290917702232B31F170
:1015B0008E159F0534F161E081E10E949F0082E079
:1015C0000E94A0017C0160E081E10E949F002091C7
:1015D0007402309175028091760290917702232BEC
:1015E00071F18E159F0574F10E94120390CD8091C8
:1015F0000001909101010E940804F6CFE816F90657
:10160000D4F6209100013091010137FF02C02F5F15
:101610003F4F359527954FEF429FC001439F900D57
:101620001124B8010E94190D7B01662777276E19D6
:101630007F098CE592E00E94DC03B7011FC0E81629
:10164000F90694F6209100013091010137FF02C0A4
:101650002F5F3F4F359527954FEF429FC001439F26
:10166000900D1124B8010E94190D7B018CE592E0C8
:101670000E94DC03662777276E197F0988E592E0D0
:101680000E94DC03B1CF88E191E090933A0280930D
:10169000390289E392E00C94C2030E94370C08F4EB
:1016A00081E008950E94660B0C94720C0E946B0CF2
:1016B00058F00E94640C40F029F45F3F29F00C942C
:1016C0005B0C51110C94A60C0C94610C0E94830CC1
:1016D00068F39923B1F3552391F3951B550BBB2761
:1016E000AA2762177307840738F09F5F5F4F220FA6
:1016F000331F441FAA1FA9F335D00E2E3AF0E0E89D
:1017000032D091505040E695001CCAF72BD0FE2FE6
:1017100029D0660F771F881FBB1F2617370748077A
:10172000AB07B0E809F0BB0B802DBF01FF27935832
:101730005F4F3AF09E3F510578F00C945B0C0C948F
:10174000A60C5F3FE4F3983ED4F3869577956795B2
:10175000B795F7959F5FC9F7880F911D9695879567
:1017600097F90895E1E0660F771F881FBB1F621786
:1017700073078407BA0720F0621B730B840BBA0B44
:10178000EE1F88F7E09508950E94CB0B6894B11185
:101790000C94A60C08950E948B0C88F09F5798F02B
:1017A000B92F9927B751B0F0E1F0660F771F881F66
:1017B000991F1AF0BA95C9F714C0B13091F00E9480
:1017C000A50CB1E008950C94A50C672F782F8827FD
:1017D000B85F39F0B93FCCF3869577956795B395A7
:1017E000D9F73EF490958095709561957F4F8F4F16
:1017F0009F4F0895E89409C097FB3EF4909580951B
:10180000709561957F4F8F4F9F4F9923A9F0F92FC6
:1018100096E9BB279395F695879577956795B79544
:10182000F111F8CFFAF4BB0F11F460FF1BC06F5F2A
:101830007F4F8F4F9F4F16C0882311F096E911C03C
:10184000772321F09EE8872F762F05C0662371F05D
:1018500096E8862F70E060E02AF09A95660F771F71
:10186000881FDAF7880F9695879597F90895990F4D
:101870000008550FAA0BE0E8FEEF16161706E8075A
:10188000F907C0F012161306E407F50798F0621B7B
:10189000730B840B950B39F40A2661F0232B242B50
:1018A000252B21F408950A2609F4A140A6958FEF6F
:1018B000811D811D089597F99F6780E870E060E0C1
:1018C00008959FEF80EC089500240A9416161706D9
:1018D00018060906089500240A9412161306140621
:1018E00005060895092E0394000C11F4882352F084
:1018F000BB0F40F4BF2B11F460FF04C06F5F7F4F3C
:101900008F4F9F4F089557FD9058440F551F59F022
:101910005F3F71F04795880F97FB991F61F09F3FDC
:1019200079F087950895121613061406551FF2CF05
:101930004695F1DF08C0161617061806991FF1CF55
:1019400086957105610508940895E894BB2766277C
:101950007727CB0197F908950E94BF0C0C94720C65
:101960000E94640C38F00E946B0C20F0952311F05B
:101970000C945B0C0C94610C11240C94A60C0E942A
:10198000830C70F3959FC1F3950F50E0551F629F34
:10199000F001729FBB27F00DB11D639FAA27F00DC8
:1019A000B11DAA1F649F6627B00DA11D661F829FEF
:1019B0002227B00DA11D621F739FB00DA11D621FD4
:1019C000839FA00D611D221F749F3327A00D611DF1
:1019D000231F849F600D211D822F762F6A2F1124D3
:1019E0009F5750409AF0F1F088234AF0EE0FFF1F06
:1019F000BB1F661F771F881F91505040A9F79E3F5D
:101A0000510580F00C945B0C0C94A60C5F3FE4F342
:101A1000983ED4F3869577956795B795F795E795B2
:101A20009F5FC1F7FE2B880F911D9695879597F9BB
:101A3000089597FB072E16F4009407D077FD09D080
:101A40000E94550D07FC05D03EF4909581959F4F5F
:101A50000895709561957F4F0895A1E21A2EAA1BF3
:101A6000BB1BFD010DC0AA1FBB1FEE1FFF1FA2174E
:101A7000B307E407F50720F0A21BB30BE40BF50B4B
:101A8000661F771F881F991F1A9469F760957095D4
:101A9000809590959B01AC01BD01CF010895EE0F9B
:101AA000FF1F0590F491E02D0994AA1BBB1B51E187
:101AB00007C0AA1FBB1FA617B70710F0A61BB70BBE
:101AC000881F991F5A95A9F780959095BC01CD0163
:101AD000089581E090E0F8940C946E0D10E0C4E756
:101AE000D0E004C0FE010E944F0D2196C537D107FA
:061AF000C9F7F894FFCFD6
:101AF600640000000000A90216024102F002720210
:101B0600500264020000000035031602D9033403B4
:101B16008903A1031C03204578616D706C652066FE
:101B26006F7220426C7565746F6F746820457870AB
:0C1B3600657269656E636520000D0A0091
:00000001FF
