:100000000C9466000C948E000C948E000C948E0060
:100010000C948E000C948E000C948E000C948E0028
:100020000C948E000C948E000C948E000C948E0018
:100030000C948E000C948E000C948E000C948E0008
:100040000C9477040C948E000C94E7040C94C10477
:100050000C948E000C948E000C948E000C948E00E8
:100060000C948E000C948E001112131415160A0BAA
:100070000C0D0E0F00010203040500000000240017
:1000800027002A0000000000250028002B0004049F
:100090000404040404040202020202020303030330
:1000A000030301020408102040800102040810200C
:1000B00001020408102000000008000201000003F3
:1000C00004070000000000000000190511241FBEF5
:1000D000CFEFD8E0DEBFCDBF22E0AEE3B1E001C09C
:1000E0001D92A233B207E1F711E0A0E0B1E0E6E62D
:1000F000F6E102C005900D92AE33B107D9F710E0DA
:10010000C6E6D0E004C02197FE010E94260BC5364A
:10011000D107C9F70E94A5050C94310B0C9400007F
:1001200090E0FC01EA54FF4F3491FC01EE55FF4F83
:100130002491FC01E257FF4FE491EE2309F43BC008
:10014000332339F1333091F038F43130A9F03230C3
:1001500001F584B58F7D12C0373091F03830A1F0B1
:100160003430B9F4809180008F7D03C0809180008D
:100170008F77809380000DC084B58F7784BD09C0D0
:100180008091B0008F7703C08091B0008F7D809305
:10019000B000F0E0EE0FFF1FEC57FF4FA591B491B8
:1001A0008FB7F894EC91611103C020952E2301C004
:1001B0002E2B2C938FBF0895CF93DF9390E0FC01FB
:1001C000EE55FF4F2491FC01E257FF4F84918823A5
:1001D00061F190E0880F991FFC01E658FF4FC5912F
:1001E000D491FC01EC57FF4FA591B491611109C066
:1001F0009FB7F8948881209582238883EC912E23E1
:100200000BC0623061F49FB7F8943881822F8095DB
:1002100083238883EC912E2B2C939FBF06C08FB72E
:10022000F894E8812E2B28838FBFDF91CF9108951A
:100230001F93CF93DF93182FEB0161E00E94DC0046
:10024000209711F460E004C0CF3FD10539F461E09C
:10025000812FDF91CF911F910C949000E12FF0E05E
:10026000EA54FF4FE491E330F9F048F4E130B9F09B
:10027000E230A1F584B5806284BDC8BD34C0E730EA
:10028000E9F0E83019F1E43049F5809180008062AE
:1002900080938000D0938B00C0938A0024C084B5E3
:1002A000806884BDC7BD1FC0809180008068809336
:1002B0008000D0938900C093880015C08091B00061
:1002C00080688093B000C093B3000DC08091B000EF
:1002D00080628093B000C093B40005C0C038D105DF
:1002E0000CF0B5CFAFCFDF91CF911F9108953FB7FD
:1002F000F8948091590190915A01A0915B01B091BD
:100300005C0126B5A89B05C02F3F19F00196A11DE1
:10031000B11D3FBFBA2FA92F982F8827820F911D9B
:10032000A11DB11DBC01CD0142E0660F771F881FE2
:10033000991F4A95D1F708958F929F92AF92BF92DD
:10034000CF92DF92EF92FF926B017C010E947701C6
:100350004B015C01C114D104E104F104F1F00E94ED
:100360007701DC01CB0188199909AA09BB09883EEC
:100370009340A105B10570F321E0C21AD108E1084C
:10038000F10888EE880E83E0981EA11CB11CC114F0
:10039000D104E104F10419F7DDCFFF90EF90DF9075
:1003A000CF90BF90AF909F908F900895CF92DF92A3
:1003B000EF92FF920F931F93CF93DF936C017A011B
:1003C0008B01C0E0D0E0CE15DF0589F0D8016D913A
:1003D0008D01D601ED91FC910190F081E02DC601D7
:1003E0000995892B11F47E0102C02196ECCFC7013B
:1003F000DF91CF911F910F91FF90EF90DF90CF9001
:100400000895FC01918D828D981761F0828DDF0136
:10041000A80FB11D5D968C91928D9F5F9F73928FF7
:1004200090E008958FEF9FEF0895FC01918D828DEC
:10043000981731F0828DE80FF11D858D90E00895B9
:100440008FEF9FEF0895FC01918D228D892F90E011
:10045000805C9F4F821B91098F73992708958DE5CA
:1004600091E00E94230221E0892B09F420E0822FF1
:100470000895FC01848DDF01A80FB11DA35ABF4F61
:100480002C91848D90E001968F739927848FA68993
:10049000B7892C93A089B1898C9180648C93938DBA
:1004A000848D981306C00288F389E02D80818F7DAA
:1004B00080830895EF92FF920F931F93CF93DF9362
:1004C000EC0181E0888F9B8D8C8D981305C0E889A5
:1004D000F989808185FD24C0F62E0B8D10E00F5F19
:1004E0001F4F0F731127E02E8C8DE8120CC00FB632
:1004F00007FCFACFE889F989808185FFF5CFCE0125
:100500000E943902F1CF8B8DFE01E80FF11DE35AF5
:10051000FF4FF0820B8FEA89FB898081806207C0E0
:10052000EE89FF896083E889F9898081806480830E
:1005300081E090E0DF91CF911F910F91FF90EF90BC
:100540000895CF93DF93EC01888D8823C9F0EA8961
:10055000FB89808185FD05C0A889B9898C9186FDBC
:100560000FC00FB607FCF5CF808185FFF2CFA889B9
:10057000B9898C9185FFEDCFCE010E943902E7CF7A
:10058000DF91CF91089580E090E0892B29F00E94BF
:100590002F0281110C94000008958EBD00000DB44F
:1005A00007FEFDCF8EB508950F931F93CF93DF9372
:1005B0008C016F3F710519F014F06FEF70E0EB01E3
:1005C00061307F4F14F4C1E0DFEF60E070E0F801CC
:1005D000D7FD07C082810E941801BE01F801808109
:1005E00009C080810E941801662777276C1B7D0B4C
:1005F000F8018281DF91CF911F910F910C94180126
:10060000009769F0FC0101900020E9F73197AF01F4
:10061000481B590BBC018DE591E00C94D60180E09C
:1006200090E008958F929F92AF92BF920F931F9385
:10063000CF93DF93CDB7DEB7A1970FB6F894DEBFA7
:100640000FBECDBF19A2423008F44AE08E010F5D03
:100650001F4F842E912CA12CB12CA50194010E9436
:10066000F00AE62FB901CA0101501109EA3014F469
:10067000E05D01C0E95CD801EC93232B242B252BF2
:1006800061F7C8010E940003A1960FB6F894DEBF7F
:100690000FBECDBFDF91CF911F910F91BF90AF9053
:1006A0009F908F900895CF92DF92EF92FF92CF9319
:1006B000DF936B017C01E0915D01F0915E0101909F
:1006C000F081E02D6DE28DE591E00995EC01662762
:1006D0007727CB016C197D098E099F094AE00E949A
:1006E00012038C0F9D1FDF91CF91FF90EF90DF9051
:1006F000CF900895CF93DF93BC01990F880B990B8E
:1007000097FF03C00E94530303C04AE00E941203F4
:10071000EC0180E191E00E9400038C0F9D1FDF91AE
:10072000CF9108959CB59F7D9CBD9CB5937F9CBD4A
:100730009CB59C7F9CBD9DB591609DBD682F8091AF
:10074000FC010E94900080910E0290910F02823075
:10075000910538F0880F991F880F991F0597019709
:10076000F1F7089581E00C9492031F93CF93DF93E8
:100770001F92CDB7DEB7182F80E00E949203812F21
:100780008F710E94CD028FEF0E94CD0289830E945B
:10079000B20389810F90DF91CF911F9108951F932C
:1007A000CF93DF931F92CDB7DEB7182F80E0698318
:1007B0000E949203812F8F7180620E94CD02182FB8
:1007C0006981862F0E94CD020E94B203812F0F9073
:1007D000DF91CF911F91089580E00E94B50381FDC4
:1007E0000BC0682F626080E00E94CF0365E070E07C
:1007F00080E090E00C949C0108950F931F93CF9399
:100800008C0186E00E94B503C82FC77D0230110518
:1008100031F4C0628BE990E0A0E0B0E00DC001309F
:10082000110529F085E590E0A0E0B0E005C0C860C2
:1008300081E490E0A0E0B0E080930A0290930B0284
:10084000A0930C02B0930D026C2F86E00E94CF03A0
:1008500086E00E94B50391E08C1390E0892FCF9140
:100860001F910F910895CF93DF931F92CDB7DEB7FD
:1008700080E00E94920381EE0E94CD0289830E9453
:10088000B20389810F90DF91CF910895EF92FF928B
:100890000F931F93CF93DF9300D0CDB7DEB7082F10
:1008A000162F80E049837A830E949203802F8F71F4
:1008B00080620E94CD02082FE12E7A81F72E4981B5
:1008C000140F1E1531F0F70181917F010E94CD02B6
:1008D000F8CF0E94B203802F0F900F90DF91CF913D
:1008E0001F910F91FF90EF9008950E942C0B1F9283
:1008F0000F920FB60F9211242F933F938F939F93D4
:10090000AF93BF938091550190915601A0915701EB
:10091000B09158013091540123E0230F2D3720F47A
:100920000196A11DB11D05C026E8230F0296A11D49
:10093000B11D209354018093550190935601A093CB
:100940005701B09358018091590190915A01A0919B
:100950005B01B0915C010196A11DB11D809359010D
:1009600090935A01A0935B01B0935C01BF91AF914A
:100970009F918F913F912F910F900FBE0F901F90DD
:1009800018951F920F920FB60F9211242F933F9339
:100990004F935F936F937F938F939F93AF93BF9387
:1009A000EF93FF938DE591E00E943902FF91EF9163
:1009B000BF91AF919F918F917F916F915F914F9177
:1009C0003F912F910F900FBE0F901F9018951F927F
:1009D0000F920FB60F9211242F938F939F93EF9343
:1009E000FF93E0916D01F0916E018081E0917301C0
:1009F000F091740182FD12C09081809176018F5F29
:100A00008F7320917701821751F0E0917601F0E029
:100A1000E35AFE4F958F8093760101C08081FF914C
:100A2000EF919F918F912F910F900FBE0F901F907C
:100A30001895CF93DF93EDE5F1E01382128288EEF3
:100A400093E0A0E0B0E084839583A683B78384E03D
:100A500091E09183808385EC90E09587848784EC96
:100A600090E09787868780EC90E0918B808B81EC7B
:100A700090E0938B828B82EC90E0958B848B86EC5C
:100A800090E0978B868B118E128E138E148EC2E19E
:100A9000D2E089E090E0998388838AE090E09B83AC
:100AA0008A8361E089E00E94DC0061E08A810E9423
:100AB000DC0085E090E09D838C8386E090E09F835E
:100AC0008E8361E085E00E94DC0061E08E810E94FF
:100AD000DC0061E084E00E94DC0060E083E00E94D2
:100AE000DC0084E090E09987888783E090E09B8732
:100AF0008A8788EB9BE0A0E0B0E08C879D87AE877B
:100B0000BF8781E090E09D8F8C8F80E991E09F8F7F
:100B10008E8FEAEFF1E087E090E09183808388E0B8
:100B200090E093838283168280E28783108685E03B
:100B3000868785E090E0A0E0B0E0848B958BA68B63
:100B4000B78B1186DF91CF910895CF93DF93CDB707
:100B5000DEB728970FB6F894DEBF0FBECDBF7894EE
:100B600084B5826084BD84B5816084BD85B58260B2
:100B700085BD85B5816085BD80916E008160809363
:100B80006E001092810080918100826080938100CC
:100B900080918100816080938100809180008160DC
:100BA000809380008091B10084608093B100809137
:100BB000B00081608093B00080917A00846080935F
:100BC0007A0080917A00826080937A0080917A0026
:100BD000816080937A0080917A00806880937A00A7
:100BE0001092C100E0916D01F0916E0182E080836E
:100BF000E0916901F0916A011082E0916B01F0913E
:100C00006C018FEC808310927501E0917101F0917D
:100C1000720186E08083E0916F01F0917001808124
:100C200080618083E0916F01F09170018081886024
:100C30008083E0916F01F0917001808180688083F2
:100C4000E0916F01F091700180818F7D808383E15D
:100C500091E00E94000380E191E00E9400038091F6
:100C6000FA019091FB012091FC013091FD01821766
:100C7000930719F061E00E94DC008091FC019091E3
:100C8000FD012091FA013091FB012817390719F075
:100C900061E00E94DC001FB7F89480913E01811151
:100CA00027C0E8E9F0E08491ECEAF0E09491E82FC5
:100CB000F0E0EE0FFF1FE658FF4FA591B491EC91C5
:100CC000E92321F461E08AE00E94900061E08AE07B
:100CD0000E94DC008CB580618CBD8CB580648CBDBD
:100CE00061E08DE00E94DC0061E08BE00E94DC00AE
:100CF00080913E018F5F80933E011FBF8091FA017A
:100D00009091FB012091FC013091FD018217930726
:100D100019F060E00E94900081E00E94920365E07B
:100D200070E080E090E00E949C016CE080E00E9416
:100D3000CF036FE584E00E94CF0382E090E00E9441
:100D4000FD03882319F081E08093000286E00E9471
:100D5000B50380E090E00E94FD0380E00E949203D2
:100D600080E50E94CD0283E70E94CD020E94B2037B
:100D700060E08DE10E94CF0360E08CE10E94CF0330
:100D80001092020260E787E00E94CF036CE485E0E6
:100D90000E94CF0380E00E94920382EE0E94CD0267
:100DA0000E94B2030E9433040E94EC0380E00E9480
:100DB000B503682F6E7F80E00E94CF036CE685E06C
:100DC0000E94CF0380E090E00E94FD0386E00E9435
:100DD000B503887F682F656086E00E94CF038CECA6
:100DE000898380EF8A838B8388EE8C838D831E8238
:100DF0001F821886EFE6F0E0849140910802BE0160
:100E00006F5F7F4F0E944604E9E6F0E084916091B5
:100E100001020E94CF0382E00E94B503E5E7F0E003
:100E2000E49161E070E001C0660FEA95EAF7682B93
:100E300082E00E94CF030E94EC0380E00E94B50391
:100E4000682F616080E00E94CF0360E787E00E9426
:100E5000CF038091FA019091FB012091FC01309128
:100E6000FD018217930719F061E00E9490008091C4
:100E70000302882341F04091080263E072E08AE0B7
:100E80000E94460412C082E00E94B503E4E7F0E04D
:100E9000E49121E030E001C0220FEA95EAF72095C5
:100EA000622F682382E00E94CF038DE10E94B50388
:100EB00081FD0E9433041092420110924101109270
:100EC000400110923F0168EE73E080E090E00E94E4
:100ED0009C01DD24D39494E6E92EF12C87E10E9455
:100EE000B50380FF0EC080914B01882309F428C10F
:100EF0000EC00E94B20360E787E00E94CF03D09249
:100F00004B0187E10E94B50380FF1DC1ECCF6091CA
:100F10004C0170914D0170934A0160934901809199
:100F20004E0190914F019093480180934701809129
:100F30005001909151019093460180934501809119
:100F40005201909153019093440180934301072EE5
:100F5000000C880B990B97FF03C00E94530303C03A
:100F60004AE00E9412038EE291E00E940003809109
:100F70004301909144010E947A036091490170916C
:100F80004A010091430110914401663FFFEF7F0742
:100F900064F5072E000C880B990B0E94E30920E0F2
:100FA00030E048EC52E40E94CD084B015C01B801EE
:100FB000012E000C880B990B0E94E3099B01AC01E8
:100FC000C501B4010E946F0A20E030E048EC52E411
:100FD0000E9439090E94AB0970934201609341015C
:100FE0001093400100933F0135C06B30710554F1FF
:100FF000072E000C880B990B0E94E3099B01AC01A2
:1010000060E070E088EC92E40E94CC084B015C0147
:10101000B801012E000C880B990B0E94E3099B017B
:10102000AC01C501B4010E946F0A20E030E048EC39
:1010300052E40E9439090E94AB0970934001609309
:101040003F0104C01093400100933F0110934201FF
:10105000009341010530110544F4109242011092B1
:1010600041011092400110923F0180E391E00E9403
:1010700000036091410170914201072E000C880B22
:10108000990B97FF03C00E94530303C04AE00E94DC
:10109000120385E391E00E94000380913F0190914B
:1010A00040010E947A0380914501909146011816F3
:1010B0001906C4F440913F01509140012FEF249F45
:1010C000C001259F900D1124B7010E94DC0A8B01FD
:1010D0004091410150914201249FC001259F900DF4
:1010E000112420C0883D9F4F4CF520914101309143
:1010F00042013195219531094FEF429FC001439F35
:10110000900D1124B7010E94DC0A8B0120913F0150
:1011100030914001319521953109429FC001439F93
:10112000900D1124B7010E94DC0A86E192E00E9432
:10113000D402B80182E192E00E94D40210924B01E5
:101140000E94C302CBCE10910102183018F108E0C2
:1011500080910202811102C0101B01C010E080E0EA
:101160000E94920381E60E94CD028CE4A82E81E0C9
:10117000B82E015038F08FEF0E94CD02F501819317
:101180005F01F7CF112309F4B4CE8FEF0E94CD0297
:101190001150F8CF012FDCCF5058BB27AA270E944F
:1011A000E4080C94350A0E94270A38F00E942E0A9F
:1011B00020F039F49F3F19F426F40C94240A0EF41D
:1011C000E095E7FB0C941E0AE92F0E94460A58F3AB
:1011D000BA17620773078407950720F079F4A6F51C
:1011E0000C94680A0EF4E0950B2EBA2FA02D0B017B
:1011F000B90190010C01CA01A0011124FF27591B5C
:1012000099F0593F50F4503E68F11A16F040A22F61
:10121000232F342F4427585FF3CF469537952795D2
:10122000A795F0405395C9F77EF41F16BA0B620BD1
:10123000730B840BBAF09150A1F0FF0FBB1F661F18
:10124000771F881FC2F70EC0BA0F621F731F841F5B
:1012500048F4879577956795B795F7959E3F08F081
:10126000B0CF9395880F08F09927EE0F9795879543
:1012700008950E944D090C94350A0E942E0A58F0D8
:101280000E94270A40F029F45F3F29F00C941E0ABF
:1012900051110C94690A0C94240A0E94460A68F3BE
:1012A0009923B1F3552391F3951B550BBB27AA271F
:1012B00062177307840738F09F5F5F4F220F331F59
:1012C000441FAA1FA9F335D00E2E3AF0E0E832D021
:1012D00091505040E695001CCAF72BD0FE2F29D024
:1012E000660F771F881FBB1F261737074807AB07F6
:1012F000B0E809F0BB0B802DBF01FF2793585F4F6B
:101300003AF09E3F510578F00C941E0A0C94690A3D
:101310005F3FE4F3983ED4F3869577956795B7954C
:10132000F7959F5FC9F7880F911D9695879597F957
:101330000895E1E0660F771F881FBB1F62177307D0
:101340008407BA0720F0621B730B840BBA0BEE1FE5
:1013500088F7E09508950E94B2096894B1110C9441
:10136000690A08950E944E0A88F09F5798F0B92F95
:101370009927B751B0F0E1F0660F771F881F991FCA
:101380001AF0BA95C9F714C0B13091F00E94680AFA
:10139000B1E008950C94680A672F782F8827B85F0A
:1013A00039F0B93FCCF3869577956795B395D9F722
:1013B0003EF490958095709561957F4F8F4F9F4F2C
:1013C0000895E89409C097FB3EF490958095709538
:1013D00061957F4F8F4F9F4F9923A9F0F92F96E981
:1013E000BB279395F695879577956795B795F111F6
:1013F000F8CFFAF4BB0F11F460FF1BC06F5F7F4F93
:101400008F4F9F4F16C0882311F096E911C07723A4
:1014100021F09EE8872F762F05C0662371F096E8AD
:10142000862F70E060E02AF09A95660F771F881F7C
:10143000DAF7880F9695879597F9089597F99F673A
:1014400080E870E060E008959FEF80EC089500244C
:101450000A941616170618060906089500240A9419
:1014600012161306140605060895092E0394000C9F
:1014700011F4882352F0BB0F40F4BF2B11F460FF2E
:1014800004C06F5F7F4F8F4F9F4F089557FD905857
:10149000440F551F59F05F3F71F04795880F97FB38
:1014A000991F61F09F3F79F08795089512161306F2
:1014B0001406551FF2CF4695F1DF08C01616170621
:1014C0001806991FF1CF8695710561050894089556
:1014D000E894BB2766277727CB0197F908950E94E8
:1014E000820A0C94350A0E94270A38F00E942E0ABC
:1014F00020F0952311F00C941E0A0C94240A112458
:101500000C94690A0E94460A70F3959FC1F3950FE7
:1015100050E0551F629FF001729FBB27F00DB11D77
:10152000639FAA27F00DB11DAA1F649F6627B00D07
:10153000A11D661F829F2227B00DA11D621F739FF0
:10154000B00DA11D621F839FA00D611D221F749FFE
:101550003327A00D611D231F849F600D211D822F45
:10156000762F6A2F11249F5750409AF0F1F088236C
:101570004AF0EE0FFF1FBB1F661F771F881F915099
:101580005040A9F79E3F510580F00C941E0A0C9420
:10159000690A5F3FE4F3983ED4F3869577956795A3
:1015A000B795F795E7959F5FC1F7FE2B880F911DC3
:1015B0009695879597F9089597FB072E16F4009452
:1015C00007D077FD09D00E94120B07FC05D03EF42E
:1015D000909581959F4F0895709561957F4F0895DF
:1015E000A1E21A2EAA1BBB1BFD010DC0AA1FBB1F27
:1015F000EE1FFF1FA217B307E407F50720F0A21B99
:10160000B30BE40BF50B661F771F881F991F1A9405
:1016100069F760957095809590959B01AC01BD012F
:10162000CF010895AA1BBB1B51E107C0AA1FBB1F16
:10163000A617B70710F0A61BB70B881F991F5A955E
:10164000A9F780959095BC01CD010895EE0FFF1F7D
:101650000590F491E02D099481E090E0F8940C94C9
:06166000310BF894FFCFEE
:10166600000000005A02D601230201021502A1025F
:101676000D0A004E726632344C3031205265636575
:1016860069766572205374617274696E67002C0006
:0E1696004C203D200020202052203D2000004E
:00000001FF
