:100000000C9466000C948E000C948E000C948E0060
:100010000C948E000C948E000C948E000C948E0028
:100020000C948E000C948E000C948E000C948E0018
:100030000C948E000C948E000C948E000C948E0008
:100040000C9474040C948E000C94E4040C94BE0480
:100050000C948E000C948E000C948E000C948E00E8
:100060000C948E000C948E001112131415160A0BAA
:100070000C0D0E0F00010203040500000000240017
:1000800027002A0000000000250028002B0004049F
:100090000404040404040202020202020303030330
:1000A000030301020408102040800102040810200C
:1000B00001020408102000000008000201000003F3
:1000C00004070000000000000000160511241FBEF8
:1000D000CFEFD8E0DEBFCDBF22E0A8E3B1E001C0A2
:1000E0001D92AA32B207E1F711E0A0E0B1E0E2E828
:1000F000F1E102C005900D92A833B107D9F710E0E5
:10010000C6E6D0E004C02197FE010E94B408C536BF
:10011000D107C9F70E94A2050C94BF080C940000F7
:1001200090E0FC01EA54FF4F3491FC01EE55FF4F83
:100130002491FC01E257FF4FE491EE2309F43BC008
:10014000332339F1333091F038F43130A9F03230C3
:1001500001F584B58F7D12C0373091F03830A1F0B1
:100160003430B9F4809180008F7D03C0809180008D
:100170008F77809380000DC084B58F7784BD09C0D0
:100180008091B0008F7703C08091B0008F7D809305
:10019000B000F0E0EE0FFF1FEC57FF4FA591B491B8
:1001A0008FB7F894EC91611103C020952E2301C004
:1001B0002E2B2C938FBF0895CF93DF9390E0FC01FB
:1001C000EE55FF4F2491FC01E257FF4F84918823A5
:1001D00061F190E0880F991FFC01E658FF4FC5912F
:1001E000D491FC01EC57FF4FA591B491611109C066
:1001F0009FB7F8948881209582238883EC912E23E1
:100200000BC0623061F49FB7F8943881822F8095DB
:1002100083238883EC912E2B2C939FBF06C08FB72E
:10022000F894E8812E2B28838FBFDF91CF9108951A
:100230001F93CF93DF93182FEB0161E00E94DC0046
:10024000209711F460E004C0CF3FD10539F461E09C
:10025000812FDF91CF911F910C949000E12FF0E05E
:10026000EA54FF4FE491E330F9F048F4E130B9F09B
:10027000E230A1F584B5806284BDC8BD34C0E730EA
:10028000E9F0E83019F1E43049F5809180008062AE
:1002900080938000D0938B00C0938A0024C084B5E3
:1002A000806884BDC7BD1FC0809180008068809336
:1002B0008000D0938900C093880015C08091B00061
:1002C00080688093B000C093B3000DC08091B000EF
:1002D00080628093B000C093B40005C0C038D105DF
:1002E0000CF0B5CFAFCFDF91CF911F9108953FB7FD
:1002F000F8948091510190915201A0915301B091D5
:10030000540126B5A89B05C02F3F19F00196A11DE9
:10031000B11D3FBFBA2FA92F982F8827820F911D9B
:10032000A11DB11DBC01CD0142E0660F771F881FE2
:10033000991F4A95D1F708958F929F92AF92BF92DD
:10034000CF92DF92EF92FF926B017C010E947701C6
:100350004B015C01C114D104E104F104F1F00E94ED
:100360007701DC01CB0188199909AA09BB09883EEC
:100370009340A105B10570F321E0C21AD108E1084C
:10038000F10888EE880E83E0981EA11CB11CC114F0
:10039000D104E104F10419F7DDCFFF90EF90DF9075
:1003A000CF90BF90AF909F908F900895CF92DF92A3
:1003B000EF92FF920F931F93CF93DF936C017A011B
:1003C0008B01C0E0D0E0CE15DF0589F0D8016D913A
:1003D0008D01D601ED91FC910190F081E02DC601D7
:1003E0000995892B11F47E0102C02196ECCFC7013B
:1003F000DF91CF911F910F91FF90EF90DF90CF9001
:100400000895FC01918D828D981761F0828DDF0136
:10041000A80FB11D5D968C91928D9F5F9F73928FF7
:1004200090E008958FEF9FEF0895FC01918D828DEC
:10043000981731F0828DE80FF11D858D90E00895B9
:100440008FEF9FEF0895FC01918D228D892F90E011
:10045000805C9F4F821B91098F739927089585E5D2
:1004600091E00E94230221E0892B09F420E0822FF1
:100470000895FC01848DDF01A80FB11DA35ABF4F61
:100480002C91848D90E001968F739927848FA68993
:10049000B7892C93A089B1898C9180648C93938DBA
:1004A000848D981306C00288F389E02D80818F7DAA
:1004B00080830895EF92FF920F931F93CF93DF9362
:1004C000EC0181E0888F9B8D8C8D981305C0E889A5
:1004D000F989808185FD24C0F62E0B8D10E00F5F19
:1004E0001F4F0F731127E02E8C8DE8120CC00FB632
:1004F00007FCFACFE889F989808185FFF5CFCE0125
:100500000E943902F1CF8B8DFE01E80FF11DE35AF5
:10051000FF4FF0820B8FEA89FB898081806207C0E0
:10052000EE89FF896083E889F9898081806480830E
:1005300081E090E0DF91CF911F910F91FF90EF90BC
:100540000895CF93DF93EC01888D8823C9F0EA8961
:10055000FB89808185FD05C0A889B9898C9186FDBC
:100560000FC00FB607FCF5CF808185FFF2CFA889B9
:10057000B9898C9185FFEDCFCE010E943902E7CF7A
:10058000DF91CF91089580E090E0892B29F00E94BF
:100590002F0281110C94000008958EBD00000DB44F
:1005A00007FEFDCF8EB508950F931F93CF93DF9372
:1005B0008C016F3F710519F014F06FEF70E0EB01E3
:1005C00061307F4F14F4C1E0DFEF60E070E0F801CC
:1005D000D7FD07C082810E941801BE01F801808109
:1005E00009C080810E941801662777276C1B7D0B4C
:1005F000F8018281DF91CF911F910F910C94180126
:10060000009769F0FC0101900020E9F73197AF01F4
:10061000481B590BBC0185E591E00C94D60180E0A4
:1006200090E008958F929F92AF92BF920F931F9385
:10063000CF93DF93CDB7DEB7A1970FB6F894DEBFA7
:100640000FBECDBF19A2423008F44AE08E010F5D03
:100650001F4F842E912CA12CB12CA50194010E9436
:100660007E08E62FB901CA0101501109EA3014F4DD
:10067000E05D01C0E95CD801EC93232B242B252BF2
:1006800061F7C8010E940003A1960FB6F894DEBF7F
:100690000FBECDBFDF91CF911F910F91BF90AF9053
:1006A0009F908F900895CF92DF92EF92FF92CF9319
:1006B000DF936B017C01E0915501F09156010190AF
:1006C000F081E02D6DE285E591E00995EC0166276A
:1006D0007727CB016C197D098E099F094AE00E949A
:1006E00012038C0F9D1FDF91CF91FF90EF90DF9051
:1006F000CF900895CF93DF93BC01990F880B990B8E
:1007000097FF03C00E94530303C04AE00E941203F4
:10071000EC0180E191E00E9400038C0F9D1FDF91AE
:10072000CF9108959CB59F7D9CBD9CB5937F9CBD4A
:100730009CB59C7F9CBD9DB591609DBD682F8091AF
:10074000F4010E949000809106029091070282308D
:10075000910538F0880F991F880F991F0597019709
:10076000F1F7089580E00C9492031F93CF93DF93E9
:100770001F92CDB7DEB789830E94B20389818F7142
:100780000E94CD028FEF0E94CD02182F81E00E94BF
:100790009203812F0F90DF91CF911F9108951F93A6
:1007A000CF93DF9300D0CDB7DEB76A8389830E94F1
:1007B000B20389818F7180620E94CD02182F6A81F5
:1007C000862F0E94CD0281E00E949203812F0F901C
:1007D0000F90DF91CF911F91089580E00E94B503A3
:1007E00081FD0BC0682F626080E00E94CF0365E04E
:1007F00070E080E090E00C949C0108950F931F93AB
:10080000CF938C0186E00E94B503C82FC77D0230CC
:10081000110531F4C0628BE990E0A0E0B0E00DC0BA
:100820000130110529F085E590E0A0E0B0E005C0B9
:10083000C86081E490E0A0E0B0E080930202909371
:100840000302A0930402B09305026C2F86E00E947D
:10085000CF0386E00E94B50391E08C1390E0892FCE
:10086000CF911F910F910895CF930E94B20381EE13
:100870000E94CD02C82F81E00E9492038C2FCF915D
:100880000895EF92FF920F931F93CF93DF9300D0C1
:100890001F92CDB7DEB7162F4A837B8389830E94D0
:1008A000B20389818F7180620E94CD02082FE12EF0
:1008B0007B81F72E4A81140F1E1531F0F7018191CB
:1008C0007F010E94CD02F8CF81E00E949203802F29
:1008D0000F900F900F90DF91CF911F910F91FF908C
:1008E000EF9008950E94BA081F920F920FB60F92D0
:1008F00011242F933F938F939F93AF93BF93809136
:100900004D0190914E01A0914F01B0915001309155
:100910004C0123E0230F2D3720F40196A11DB11DBA
:1009200005C026E8230F0296A11DB11D20934C019E
:1009300080934D0190934E01A0934F01B0935001CD
:100940008091510190915201A0915301B0915401B5
:100950000196A11DB11D8093510190935201A09366
:100960005301B0935401BF91AF919F918F913F91EB
:100970002F910F900FBE0F901F9018951F920F92FE
:100980000FB60F9211242F933F934F935F936F9362
:100990007F938F939F93AF93BF93EF93FF9385E5DF
:1009A00091E00E943902FF91EF91BF91AF919F9129
:1009B0008F917F916F915F914F913F912F910F9008
:1009C0000FBE0F901F9018951F920F920FB60F92A7
:1009D00011242F938F939F93EF93FF93E0916501E1
:1009E000F09166018081E0916B01F0916C0182FDD4
:1009F00012C0908180916E018F5F8F7320916F0183
:100A0000821751F0E0916E01F0E0EB5AFE4F958FA6
:100A100080936E0101C08081FF91EF919F918F9132
:100A20002F910F900FBE0F901F901895CF93DF93CB
:100A3000E5E5F1E01382128288EE93E0A0E0B0E0F9
:100A400084839583A683B78384E091E09183808338
:100A500085EC90E09587848784EC90E09787868783
:100A600080EC90E0918B808B81EC90E0938B828B7B
:100A700082EC90E0958B848B86EC90E0978B868B54
:100A8000118E128E138E148ECAE0D2E089E090E0AF
:100A9000998388838AE090E09B838A8361E089E080
:100AA0000E94DC0061E08A810E94DC0085E090E029
:100AB0009D838C8386E090E09F838E8361E085E058
:100AC0000E94DC0061E08E810E94DC0061E084E035
:100AD0000E94DC0060E083E00E94DC0084E090E0A3
:100AE0009987888783E090E09B878A8788EB9BE0E3
:100AF000A0E0B0E08C879D87AE87BF8781E090E063
:100B00009D8F8C8F80E991E09F8F8E8FE2EFF1E0D7
:100B100087E090E09183808388E090E093838283F4
:100B2000168280E28783108685E0868785E090E0E4
:100B3000A0E0B0E0848B958BA68BB78B1186DF91FC
:100B4000CF910895CF93DF93CDB7DEB728970FB637
:100B5000F894DEBF0FBECDBF789484B5826084BDAB
:100B600084B5816084BD85B5826085BD85B58160B1
:100B700085BD80916E00816080936E00109281002F
:100B800080918100826080938100809181008160EA
:100B900080938100809180008160809380008091AB
:100BA000B10084608093B1008091B0008160809337
:100BB000B00080917A00846080937A0080917A00FE
:100BC000826080937A0080917A00816080937A00BD
:100BD00080917A00806880937A001092C100E09141
:100BE0006501F091660182E08083E0916101F091FE
:100BF00062011082E0916301F09164018FEC8083C7
:100C000010926D01E0916901F0916A0186E08083A4
:100C1000E0916701F0916801808180618083E091BB
:100C20006701F0916801808188608083E0916701AD
:100C3000F0916801808180688083E0916701F09184
:100C4000680180818F7D808383E191E00E940003B1
:100C500080E191E00E9400038091F2019091F30104
:100C60002091F4013091F5018217930719F061E0AA
:100C70000E94DC008091F4019091F5012091F20135
:100C80003091F3012817390719F061E00E94DC0068
:100C90001FB7F89480913801811127C0E8E9F0E08E
:100CA0008491ECEAF0E09491E82FF0E0EE0FFF1F62
:100CB000E658FF4FA591B491EC91E92321F461E04E
:100CC0008AE00E94900061E08AE00E94DC008CB51E
:100CD00080618CBD8CB580648CBD61E08DE00E942C
:100CE000DC0061E08BE00E94DC00809138018F5FC6
:100CF000809338011FBF8091F2019091F301209100
:100D0000F4013091F5018217930719F060E00E9419
:100D1000900081E00E94920365E070E080E090E046
:100D20000E949C016CE080E00E94CF036FE584E0AC
:100D30000E94CF0382E090E00E94FE03882319F016
:100D400081E08093F80186E00E94B50380E090E0A6
:100D50000E94FE030E94B20380E50E94CD0283E759
:100D60000E94CD0281E00E94920360E08DE10E942A
:100D7000CF0360E08CE10E94CF031092FA0160E79C
:100D800087E00E94CF036CE485E00E94CF030E94BD
:100D9000B20382EE0E94CD0281E00E9492030E9483
:100DA00034040E94ED0380E00E94B503682F6E7F3B
:100DB00080E00E94CF0368E785E00E94CF0380E0D7
:100DC00090E00E94FE0386E00E94B503887F682FB2
:100DD000656086E00E94CF038CEC898380EF8A8374
:100DE0008B8388EE8C838D831E821F821886EFE6AC
:100DF000F0E0849140910002BE016F5F7F4F0E943E
:100E00004104E9E6F0E084916091F9010E94CF038A
:100E100082E00E94B503E5E7F0E0E49161E070E074
:100E200001C0660FEA95EAF7682B82E00E94CF03C3
:100E30000E94ED0380E00E94B503682F616080E0AE
:100E40000E94CF0360E787E00E94CF038091F20108
:100E50009091F3012091F4013091F50182179307ED
:100E600019F061E00E9490008091FB01882341F01D
:100E7000409100026BEF71E08AE00E94410412C0D1
:100E800082E00E94B503E4E7F0E0E49121E030E085
:100E900001C0220FEA95EAF72095622F682382E0CD
:100EA0000E94CF038DE10E94B50381FD0E943404AE
:100EB00010923C0110923B0110923A0110923901BC
:100EC00068EE73E080E090E00E949C0194E6E92ED9
:100ED000F12C20EBC22EDD24DA9430E5A32EB12CC8
:100EE00087E10E94B50380FD13C087E10E94B5032E
:100EF00080FFBEC080E391E00E94000380E191E0AA
:100F00000E94000380914A0190914B010E947A0354
:100F100080914301882309F4A8C060914401709135
:100F20004501709342016093410180914601909187
:100F300047019093400180933F0180914801909137
:100F4000490190933E0180933D01072E000C880BD0
:100F5000990B97FF03C00E94530303C04AE00E940D
:100F600012038EE291E00E94000380913F01909174
:100F700040010E947A0320913F013091400180910D
:100F8000410190914201B901680F791F70933C01B2
:100F900060933B01A901481B590B50933A014093C0
:100FA0003901613571052CF0B0923C01A0923B01F2
:100FB00007C0603B7F4F24F4D0923C01C0923B01BC
:100FC000413551052CF0B0923A01A092390107C089
:100FD000403B5F4F24F4D0923A01C09239012D5E1C
:100FE0003F4F27323105E0F443968797C8F460E01D
:100FF00070E0809110020E94180160E070E0809122
:101000000E020E94180160E070E080910C020E94C4
:10101000180160E070E080910A020E94180123C06C
:101020004091390150913A012FEF249FC001259F33
:10103000900D1124B7010E946A088B0140913B0179
:1010400050913C01249FC001259F900D1124B701B0
:101050000E946A088EE092E00E94D402B8018AE001
:1010600092E00E94D402109243010E94C30238CF42
:101070001091F901183060F108E08091FA018111B6
:1010800002C0101B01C010E00E94B20381E60E9462
:10109000CD0284E4882E81E0982E015038F08FEF45
:1010A0000E94CD02F40181934F01F7CF112329F063
:1010B0008FEF0E94CD021150F9CF81E00E94920380
:1010C00060E787E00E94CF0381E0809343010DCF6A
:1010D000012FD3CF97FB072E16F4009407D077FD8E
:1010E00009D00E94A00807FC05D03EF49095819598
:1010F0009F4F0895709561957F4F0895A1E21A2E34
:10110000AA1BBB1BFD010DC0AA1FBB1FEE1FFF1FAB
:10111000A217B307E407F50720F0A21BB30BE40BFB
:10112000F50B661F771F881F991F1A9469F7609542
:101130007095809590959B01AC01BD01CF010895FC
:10114000AA1BBB1B51E107C0AA1FBB1FA617B707ED
:1011500010F0A61BB70B881F991F5A95A9F7809509
:101160009095BC01CD010895EE0FFF1F0590F491FD
:10117000E02D099481E090E0F8940C94BF08F89475
:02118000FFCF9F
:10118200000000005A02D601230201021502A10248
:101192000D0A004E726632344C303120526563655E
:1011A20069766572205374617274696E67002C00EF
:0811B20075706461746564004E
:00000001FF
